{
  "contractName": "Yogdaan",
  "abi": [
    {
      "inputs": [],
      "stateMutability": "nonpayable",
      "type": "constructor"
    },
    {
      "inputs": [
        {
          "internalType": "string",
          "name": "_name",
          "type": "string"
        },
        {
          "internalType": "address",
          "name": "_walletAddress",
          "type": "address"
        },
        {
          "internalType": "string",
          "name": "_code",
          "type": "string"
        },
        {
          "internalType": "uint256",
          "name": "_intrestRate",
          "type": "uint256"
        }
      ],
      "name": "addBank",
      "outputs": [],
      "stateMutability": "nonpayable",
      "type": "function"
    },
    {
      "inputs": [
        {
          "internalType": "uint256[]",
          "name": "members",
          "type": "uint256[]"
        },
        {
          "internalType": "uint256",
          "name": "president",
          "type": "uint256"
        },
        {
          "internalType": "uint256",
          "name": "treasurer",
          "type": "uint256"
        },
        {
          "internalType": "string",
          "name": "name",
          "type": "string"
        },
        {
          "components": [
            {
              "internalType": "string",
              "name": "state",
              "type": "string"
            },
            {
              "internalType": "string",
              "name": "district",
              "type": "string"
            },
            {
              "internalType": "string",
              "name": "blockName",
              "type": "string"
            },
            {
              "internalType": "string",
              "name": "panchyatName",
              "type": "string"
            },
            {
              "internalType": "string",
              "name": "villageName",
              "type": "string"
            }
          ],
          "internalType": "struct structs.Location",
          "name": "location",
          "type": "tuple"
        },
        {
          "internalType": "string",
          "name": "dateOfFormation",
          "type": "string"
        },
        {
          "internalType": "uint256",
          "name": "_baseIntrest",
          "type": "uint256"
        }
      ],
      "name": "addSHG",
      "outputs": [],
      "stateMutability": "nonpayable",
      "type": "function"
    },
    {
      "inputs": [
        {
          "internalType": "uint256",
          "name": "userid",
          "type": "uint256"
        },
        {
          "internalType": "uint256",
          "name": "shg",
          "type": "uint256"
        }
      ],
      "name": "addSHGMember",
      "outputs": [],
      "stateMutability": "nonpayable",
      "type": "function"
    },
    {
      "inputs": [
        {
          "internalType": "string",
          "name": "name",
          "type": "string"
        },
        {
          "internalType": "string",
          "name": "aadhar",
          "type": "string"
        },
        {
          "internalType": "uint256",
          "name": "mobno",
          "type": "uint256"
        },
        {
          "internalType": "string",
          "name": "fatherName",
          "type": "string"
        },
        {
          "internalType": "enum structs.Gender",
          "name": "gender",
          "type": "uint8"
        },
        {
          "internalType": "string",
          "name": "_state",
          "type": "string"
        },
        {
          "internalType": "string",
          "name": "_district",
          "type": "string"
        },
        {
          "internalType": "string",
          "name": "_blockName",
          "type": "string"
        },
        {
          "internalType": "string",
          "name": "_panchyatName",
          "type": "string"
        },
        {
          "internalType": "string",
          "name": "_villageName",
          "type": "string"
        }
      ],
      "name": "addUser",
      "outputs": [],
      "stateMutability": "nonpayable",
      "type": "function"
    },
    {
      "inputs": [
        {
          "internalType": "address",
          "name": "",
          "type": "address"
        }
      ],
      "name": "addressToBankid",
      "outputs": [
        {
          "internalType": "uint256",
          "name": "",
          "type": "uint256"
        }
      ],
      "stateMutability": "view",
      "type": "function",
      "constant": true
    },
    {
      "inputs": [
        {
          "internalType": "address",
          "name": "",
          "type": "address"
        }
      ],
      "name": "addressToSHGid",
      "outputs": [
        {
          "internalType": "uint256",
          "name": "",
          "type": "uint256"
        }
      ],
      "stateMutability": "view",
      "type": "function",
      "constant": true
    },
    {
      "inputs": [
        {
          "internalType": "address",
          "name": "",
          "type": "address"
        }
      ],
      "name": "addressToUser",
      "outputs": [
        {
          "internalType": "uint256",
          "name": "",
          "type": "uint256"
        }
      ],
      "stateMutability": "view",
      "type": "function",
      "constant": true
    },
    {
      "inputs": [
        {
          "internalType": "uint256",
          "name": "_shgrequestid",
          "type": "uint256"
        },
        {
          "internalType": "uint256",
          "name": "_bankid",
          "type": "uint256"
        }
      ],
      "name": "approveLoan",
      "outputs": [],
      "stateMutability": "nonpayable",
      "type": "function"
    },
    {
      "inputs": [
        {
          "internalType": "uint256",
          "name": "_requestid",
          "type": "uint256"
        },
        {
          "internalType": "uint256",
          "name": "_shgid",
          "type": "uint256"
        }
      ],
      "name": "approveRequest",
      "outputs": [],
      "stateMutability": "nonpayable",
      "type": "function"
    },
    {
      "inputs": [
        {
          "internalType": "uint256",
          "name": "",
          "type": "uint256"
        }
      ],
      "name": "banks",
      "outputs": [
        {
          "internalType": "uint256",
          "name": "id",
          "type": "uint256"
        },
        {
          "internalType": "string",
          "name": "name",
          "type": "string"
        },
        {
          "internalType": "address",
          "name": "walletAddress",
          "type": "address"
        },
        {
          "internalType": "string",
          "name": "code",
          "type": "string"
        },
        {
          "internalType": "uint256",
          "name": "intrestRate",
          "type": "uint256"
        }
      ],
      "stateMutability": "view",
      "type": "function",
      "constant": true
    },
    {
      "inputs": [
        {
          "internalType": "uint256",
          "name": "_userid",
          "type": "uint256"
        },
        {
          "internalType": "uint256",
          "name": "_requestid",
          "type": "uint256"
        }
      ],
      "name": "deleteRequest",
      "outputs": [],
      "stateMutability": "nonpayable",
      "type": "function"
    },
    {
      "inputs": [
        {
          "internalType": "uint256",
          "name": "userid",
          "type": "uint256"
        }
      ],
      "name": "getAllLoans",
      "outputs": [
        {
          "internalType": "uint256[]",
          "name": "",
          "type": "uint256[]"
        }
      ],
      "stateMutability": "view",
      "type": "function",
      "constant": true
    },
    {
      "inputs": [
        {
          "internalType": "uint256",
          "name": "_shgid",
          "type": "uint256"
        },
        {
          "internalType": "uint256",
          "name": "_loanid",
          "type": "uint256"
        }
      ],
      "name": "getSHGEMI",
      "outputs": [
        {
          "internalType": "uint256",
          "name": "",
          "type": "uint256"
        }
      ],
      "stateMutability": "nonpayable",
      "type": "function"
    },
    {
      "inputs": [
        {
          "internalType": "uint256",
          "name": "shgid",
          "type": "uint256"
        }
      ],
      "name": "getSHGMembers",
      "outputs": [
        {
          "internalType": "uint256[]",
          "name": "",
          "type": "uint256[]"
        }
      ],
      "stateMutability": "view",
      "type": "function",
      "constant": true
    },
    {
      "inputs": [
        {
          "internalType": "uint256",
          "name": "userid",
          "type": "uint256"
        },
        {
          "internalType": "uint256",
          "name": "loanid",
          "type": "uint256"
        }
      ],
      "name": "getUserEMI",
      "outputs": [
        {
          "internalType": "uint256",
          "name": "",
          "type": "uint256"
        }
      ],
      "stateMutability": "nonpayable",
      "type": "function"
    },
    {
      "inputs": [
        {
          "internalType": "uint256",
          "name": "_userid",
          "type": "uint256"
        }
      ],
      "name": "getUserLoanAmount",
      "outputs": [
        {
          "internalType": "uint256",
          "name": "",
          "type": "uint256"
        }
      ],
      "stateMutability": "view",
      "type": "function",
      "constant": true
    },
    {
      "inputs": [
        {
          "internalType": "uint256",
          "name": "_shgrequestid",
          "type": "uint256"
        },
        {
          "internalType": "uint256",
          "name": "_bankid",
          "type": "uint256"
        },
        {
          "internalType": "uint256",
          "name": "_amount",
          "type": "uint256"
        }
      ],
      "name": "grantLoan",
      "outputs": [],
      "stateMutability": "nonpayable",
      "type": "function"
    },
    {
      "inputs": [
        {
          "internalType": "uint256",
          "name": "",
          "type": "uint256"
        }
      ],
      "name": "loans",
      "outputs": [
        {
          "internalType": "uint256",
          "name": "loanId",
          "type": "uint256"
        },
        {
          "internalType": "uint256",
          "name": "lenderId",
          "type": "uint256"
        },
        {
          "internalType": "uint256",
          "name": "amount",
          "type": "uint256"
        },
        {
          "internalType": "uint256",
          "name": "lendeeId",
          "type": "uint256"
        },
        {
          "internalType": "uint256",
          "name": "intrest",
          "type": "uint256"
        },
        {
          "internalType": "uint256",
          "name": "loanTime",
          "type": "uint256"
        },
        {
          "internalType": "uint256",
          "name": "date",
          "type": "uint256"
        },
        {
          "internalType": "uint256",
          "name": "lastEMI",
          "type": "uint256"
        }
      ],
      "stateMutability": "view",
      "type": "function",
      "constant": true
    },
    {
      "inputs": [],
      "name": "login",
      "outputs": [
        {
          "internalType": "bool",
          "name": "",
          "type": "bool"
        }
      ],
      "stateMutability": "view",
      "type": "function",
      "constant": true
    },
    {
      "inputs": [
        {
          "internalType": "uint256",
          "name": "_shgid",
          "type": "uint256"
        },
        {
          "internalType": "uint256",
          "name": "_userid",
          "type": "uint256"
        },
        {
          "internalType": "uint256",
          "name": "_amount",
          "type": "uint256"
        },
        {
          "internalType": "string",
          "name": "_description",
          "type": "string"
        },
        {
          "internalType": "uint256",
          "name": "_loanTime",
          "type": "uint256"
        }
      ],
      "name": "makeRequest",
      "outputs": [],
      "stateMutability": "nonpayable",
      "type": "function"
    },
    {
      "inputs": [
        {
          "internalType": "uint256",
          "name": "_userid",
          "type": "uint256"
        },
        {
          "internalType": "uint256",
          "name": "_loanid",
          "type": "uint256"
        },
        {
          "internalType": "uint256",
          "name": "_amount",
          "type": "uint256"
        }
      ],
      "name": "payEMI",
      "outputs": [],
      "stateMutability": "payable",
      "type": "function",
      "payable": true
    },
    {
      "inputs": [
        {
          "internalType": "uint256",
          "name": "userid",
          "type": "uint256"
        },
        {
          "internalType": "uint256",
          "name": "shgid",
          "type": "uint256"
        }
      ],
      "name": "removeSHGMember",
      "outputs": [],
      "stateMutability": "nonpayable",
      "type": "function"
    },
    {
      "inputs": [
        {
          "internalType": "uint256",
          "name": "_requestid",
          "type": "uint256"
        }
      ],
      "name": "sendGrant",
      "outputs": [],
      "stateMutability": "nonpayable",
      "type": "function"
    },
    {
      "inputs": [
        {
          "internalType": "uint256",
          "name": "_shgid",
          "type": "uint256"
        },
        {
          "internalType": "uint256",
          "name": "_amount",
          "type": "uint256"
        },
        {
          "internalType": "uint256",
          "name": "_loanTime",
          "type": "uint256"
        }
      ],
      "name": "sendRequestToBank",
      "outputs": [],
      "stateMutability": "nonpayable",
      "type": "function"
    },
    {
      "inputs": [
        {
          "internalType": "uint256",
          "name": "_bankid",
          "type": "uint256"
        },
        {
          "internalType": "uint256",
          "name": "_requestid",
          "type": "uint256"
        },
        {
          "internalType": "uint256",
          "name": "_amount",
          "type": "uint256"
        }
      ],
      "name": "shgLoan",
      "outputs": [],
      "stateMutability": "payable",
      "type": "function",
      "payable": true
    },
    {
      "inputs": [
        {
          "internalType": "uint256",
          "name": "_shgid",
          "type": "uint256"
        },
        {
          "internalType": "uint256",
          "name": "_loanid",
          "type": "uint256"
        },
        {
          "internalType": "uint256",
          "name": "_amount",
          "type": "uint256"
        }
      ],
      "name": "shgPayEMI",
      "outputs": [],
      "stateMutability": "nonpayable",
      "type": "function"
    },
    {
      "inputs": [
        {
          "internalType": "uint256",
          "name": "",
          "type": "uint256"
        }
      ],
      "name": "shgRequests",
      "outputs": [
        {
          "internalType": "uint256",
          "name": "requestid",
          "type": "uint256"
        },
        {
          "internalType": "uint256",
          "name": "shgid",
          "type": "uint256"
        },
        {
          "internalType": "uint256",
          "name": "amount",
          "type": "uint256"
        },
        {
          "internalType": "uint256",
          "name": "loanTime",
          "type": "uint256"
        },
        {
          "internalType": "enum structs.RequestStatus",
          "name": "status",
          "type": "uint8"
        }
      ],
      "stateMutability": "view",
      "type": "function",
      "constant": true
    },
    {
      "inputs": [
        {
          "internalType": "uint256",
          "name": "",
          "type": "uint256"
        }
      ],
      "name": "shgs",
      "outputs": [
        {
          "internalType": "uint256",
          "name": "id",
          "type": "uint256"
        },
        {
          "internalType": "string",
          "name": "name",
          "type": "string"
        },
        {
          "components": [
            {
              "internalType": "string",
              "name": "state",
              "type": "string"
            },
            {
              "internalType": "string",
              "name": "district",
              "type": "string"
            },
            {
              "internalType": "string",
              "name": "blockName",
              "type": "string"
            },
            {
              "internalType": "string",
              "name": "panchyatName",
              "type": "string"
            },
            {
              "internalType": "string",
              "name": "villageName",
              "type": "string"
            }
          ],
          "internalType": "struct structs.Location",
          "name": "location",
          "type": "tuple"
        },
        {
          "internalType": "string",
          "name": "dateOfFormation",
          "type": "string"
        },
        {
          "internalType": "uint256",
          "name": "currentBalance",
          "type": "uint256"
        },
        {
          "internalType": "uint256",
          "name": "owedBalance",
          "type": "uint256"
        },
        {
          "internalType": "uint256",
          "name": "baseIntrest",
          "type": "uint256"
        }
      ],
      "stateMutability": "view",
      "type": "function",
      "constant": true
    },
    {
      "inputs": [
        {
          "internalType": "uint256",
          "name": "id",
          "type": "uint256"
        },
        {
          "internalType": "enum structs.UserType",
          "name": "updatedType",
          "type": "uint8"
        }
      ],
      "name": "updateMemberRole",
      "outputs": [],
      "stateMutability": "nonpayable",
      "type": "function"
    },
    {
      "inputs": [
        {
          "internalType": "uint256",
          "name": "",
          "type": "uint256"
        }
      ],
      "name": "userRequests",
      "outputs": [
        {
          "internalType": "uint256",
          "name": "requestId",
          "type": "uint256"
        },
        {
          "internalType": "uint256",
          "name": "userId",
          "type": "uint256"
        },
        {
          "internalType": "uint256",
          "name": "amount",
          "type": "uint256"
        },
        {
          "internalType": "string",
          "name": "description",
          "type": "string"
        },
        {
          "internalType": "uint256",
          "name": "SHGId",
          "type": "uint256"
        },
        {
          "internalType": "enum structs.RequestStatus",
          "name": "status",
          "type": "uint8"
        },
        {
          "internalType": "uint256",
          "name": "loanTime",
          "type": "uint256"
        }
      ],
      "stateMutability": "view",
      "type": "function",
      "constant": true
    },
    {
      "inputs": [
        {
          "internalType": "uint256",
          "name": "",
          "type": "uint256"
        }
      ],
      "name": "users",
      "outputs": [
        {
          "internalType": "uint256",
          "name": "id",
          "type": "uint256"
        },
        {
          "internalType": "string",
          "name": "name",
          "type": "string"
        },
        {
          "internalType": "string",
          "name": "aadhar",
          "type": "string"
        },
        {
          "internalType": "uint256",
          "name": "mobno",
          "type": "uint256"
        },
        {
          "internalType": "string",
          "name": "fatherName",
          "type": "string"
        },
        {
          "internalType": "address",
          "name": "walletAddress",
          "type": "address"
        },
        {
          "internalType": "uint256",
          "name": "shgid",
          "type": "uint256"
        },
        {
          "internalType": "enum structs.UserType",
          "name": "userType",
          "type": "uint8"
        },
        {
          "internalType": "enum structs.Gender",
          "name": "gender",
          "type": "uint8"
        },
        {
          "components": [
            {
              "internalType": "string",
              "name": "state",
              "type": "string"
            },
            {
              "internalType": "string",
              "name": "district",
              "type": "string"
            },
            {
              "internalType": "string",
              "name": "blockName",
              "type": "string"
            },
            {
              "internalType": "string",
              "name": "panchyatName",
              "type": "string"
            },
            {
              "internalType": "string",
              "name": "villageName",
              "type": "string"
            }
          ],
          "internalType": "struct structs.Location",
          "name": "location",
          "type": "tuple"
        }
      ],
      "stateMutability": "view",
      "type": "function",
      "constant": true
    }
  ],
  "bytecode": "0x608060405234801561001057600080fd5b5033600f60006101000a81548173ffffffffffffffffffffffffffffffffffffffff021916908373ffffffffffffffffffffffffffffffffffffffff160217905550615332806100616000396000f3fe6080604052600436106101d75760003560e01c80634f269c9211610102578063a6e90a5811610095578063db223b4c11610064578063db223b4c14610724578063e1ec3c681461074d578063edf5388614610791578063f736ae43146107ce576101d7565b8063a6e90a5814610656578063af08a94f1461067f578063b34e97e8146106bc578063cfcb4b2f146106e7576101d7565b80637d550bb3116100d15780637d550bb3146105985780638106bada146105c157806394169656146105ea5780639bbc9ab11461062d576101d7565b80634f269c92146104cc57806361c91b70146104f5578063769d0e16146105325780637a6464921461056f576101d7565b806326271cf21161017a57806339d8bed11161014957806339d8bed11461040d5780633ae0058f146104365780633c5657571461047357806342f5f815146104b0576101d7565b806326271cf2146103325780632c0a90a9146103755780632e1310461461039e578063365b98b2146103c7576101d7565b8063089511f7116101b6578063089511f71461026f57806314795ce3146102ac578063249c4bff146102d5578063257a170b146102f1576101d7565b806285ae2b146101dc578063021af3971461021d5780630227f43514610246575b600080fd5b3480156101e857600080fd5b5061020360048036038101906101fe9190614488565b6107f7565b6040516102149594939291906149d4565b60405180910390f35b34801561022957600080fd5b50610244600480360381019061023f9190614529565b61095d565b005b34801561025257600080fd5b5061026d60048036038101906102689190614578565b610b34565b005b34801561027b57600080fd5b5061029660048036038101906102919190614488565b610d4a565b6040516102a391906149b9565b60405180910390f35b3480156102b857600080fd5b506102d360048036038101906102ce919061425a565b610e31565b005b6102ef60048036038101906102ea9190614529565b611011565b005b3480156102fd57600080fd5b5061031860048036038101906103139190614488565b61121a565b604051610329959493929190614be7565b60405180910390f35b34801561033e57600080fd5b5061035960048036038101906103549190614488565b61125d565b60405161036c9796959493929190614aed565b60405180910390f35b34801561038157600080fd5b5061039c600480360381019061039791906144ed565b611693565b005b3480156103aa57600080fd5b506103c560048036038101906103c091906142ed565b6117e9565b005b3480156103d357600080fd5b506103ee60048036038101906103e99190614488565b611d87565b6040516104049a99989796959493929190614a35565b60405180910390f35b34801561041957600080fd5b50610434600480360381019061042f91906144ed565b612291565b005b34801561044257600080fd5b5061045d60048036038101906104589190614133565b6123a7565b60405161046a91906149b9565b60405180910390f35b34801561047f57600080fd5b5061049a600480360381019061049591906144ed565b6123bf565b6040516104a791906149b9565b60405180910390f35b6104ca60048036038101906104c59190614529565b6124dc565b005b3480156104d857600080fd5b506104f360048036038101906104ee91906144b1565b6125ba565b005b34801561050157600080fd5b5061051c60048036038101906105179190614133565b612621565b60405161052991906149b9565b60405180910390f35b34801561053e57600080fd5b50610559600480360381019061055491906144ed565b612639565b60405161056691906149b9565b60405180910390f35b34801561057b57600080fd5b50610596600480360381019061059191906144ed565b612757565b005b3480156105a457600080fd5b506105bf60048036038101906105ba9190614529565b6127e6565b005b3480156105cd57600080fd5b506105e860048036038101906105e3919061415c565b6128c5565b005b3480156105f657600080fd5b50610611600480360381019061060c9190614488565b612f39565b6040516106249796959493929190614b71565b60405180910390f35b34801561063957600080fd5b50610654600480360381019061064f9190614488565b613010565b005b34801561066257600080fd5b5061067d600480360381019061067891906144ed565b6134b8565b005b34801561068b57600080fd5b506106a660048036038101906106a19190614488565b61364a565b6040516106b391906148bc565b60405180910390f35b3480156106c857600080fd5b506106d16136b8565b6040516106de91906148de565b60405180910390f35b3480156106f357600080fd5b5061070e60048036038101906107099190614488565b613762565b60405161071b91906148bc565b60405180910390f35b34801561073057600080fd5b5061074b60048036038101906107469190614529565b6137f4565b005b34801561075957600080fd5b50610774600480360381019061076f9190614488565b61390e565b604051610788989796959493929190614c3a565b60405180910390f35b34801561079d57600080fd5b506107b860048036038101906107b39190614133565b613956565b6040516107c591906149b9565b60405180910390f35b3480156107da57600080fd5b506107f560048036038101906107f091906144ed565b61396e565b005b600260205280600052604060002060009150905080600001549080600101805461082090614fae565b80601f016020809104026020016040519081016040528092919081815260200182805461084c90614fae565b80156108995780601f1061086e57610100808354040283529160200191610899565b820191906000526020600020905b81548152906001019060200180831161087c57829003601f168201915b5050505050908060020160009054906101000a900473ffffffffffffffffffffffffffffffffffffffff16908060030180546108d490614fae565b80601f016020809104026020016040519081016040528092919081815260200182805461090090614fae565b801561094d5780601f106109225761010080835404028352916020019161094d565b820191906000526020600020905b81548152906001019060200180831161093057829003601f168201915b5050505050908060040154905085565b8260006001600083815260200190815260200160002060000154141561098257600080fd5b83600080600360003373ffffffffffffffffffffffffffffffffffffffff1673ffffffffffffffffffffffffffffffffffffffff16815260200190815260200160002054815260200190815260200160002060080154146109e257600080fd5b6000600c60008154809291906109f790615011565b9190505590506040518060a00160405280828152602001868152602001858152602001848152602001600380811115610a59577f4e487b7100000000000000000000000000000000000000000000000000000000600052602160045260246000fd5b815250600660008381526020019081526020016000206000820151816000015560208201518160010155604082015181600201556060820151816003015560808201518160040160006101000a81548160ff02191690836003811115610ae8577f4e487b7100000000000000000000000000000000000000000000000000000000600052602160045260246000fd5b021790555090505060016000868152602001908152602001600020600c018190806001815401808255809150506001900390600052602060002001600090919091909150555050505050565b6000600b60008154610b4590615011565b9190508190559050604051806101000160405280828152602001868152602001858152602001848152602001878152602001600380811115610bb0577f4e487b7100000000000000000000000000000000000000000000000000000000600052602160045260246000fd5b8152602001838152602001600067ffffffffffffffff811115610bfc577f4e487b7100000000000000000000000000000000000000000000000000000000600052604160045260246000fd5b604051908082528060200260200182016040528015610c2a5781602001602082028036833780820191505090505b50815250600560008381526020019081526020016000206000820151816000015560208201518160010155604082015181600201556060820151816003019080519060200190610c7b929190613d90565b506080820151816004015560a08201518160050160006101000a81548160ff02191690836003811115610cd7577f4e487b7100000000000000000000000000000000000000000000000000000000600052602160045260246000fd5b021790555060c0820151816006015560e0820151816007019080519060200190610d02929190613e16565b50905050600080868152602001908152602001600020600701819080600181540180825580915050600190039060005260206000200160009091909190915055505050505050565b600080600090506000806000858152602001908152602001600020600601805480602002602001604051908101604052809291908181526020018280548015610db257602002820191906000526020600020905b815481526020019060010190808311610d9e575b5050505050905060005b8151811015610e2657818181518110610dfe577f4e487b7100000000000000000000000000000000000000000000000000000000600052603260045260246000fd5b602002602001015183610e119190614da0565b92508080610e1e90615011565b915050610dbc565b508192505050919050565b6000600d60008154610e4290615011565b91905081905590506040518060c001604052808281526020018681526020018573ffffffffffffffffffffffffffffffffffffffff168152602001848152602001838152602001600067ffffffffffffffff811115610eca577f4e487b7100000000000000000000000000000000000000000000000000000000600052604160045260246000fd5b604051908082528060200260200182016040528015610ef85781602001602082028036833780820191505090505b5081525060026000838152602001908152602001600020600082015181600001556020820151816001019080519060200190610f35929190613d90565b5060408201518160020160006101000a81548173ffffffffffffffffffffffffffffffffffffffff021916908373ffffffffffffffffffffffffffffffffffffffff1602179055506060820151816003019080519060200190610f99929190613d90565b506080820151816004015560a0820151816005019080519060200190610fc0929190613e16565b50905050600d54600860008673ffffffffffffffffffffffffffffffffffffffff1673ffffffffffffffffffffffffffffffffffffffff168152602001908152602001600020819055505050505050565b8260006002600083815260200190815260200160002060000154141561103657600080fd5b6000604051806101000160405280600e6000815461105390615011565b9190508190558152602001600660008781526020019081526020016000206001015481526020018481526020018681526020016002600088815260200190815260200160002060040154815260200160066000878152602001908152602001600020600301548152602001428152602001600081525090506001600060066000878152602001908152602001600020600101548152602001908152602001600020600c01600e5490806001815401808255809150506001900390600052602060002001600090919091909150553073ffffffffffffffffffffffffffffffffffffffff166108fc849081150290604051600060405180830381858888f19350505050158015611166573d6000803e3d6000fd5b5082600160006006600088815260200190815260200160002060010154815260200190815260200160002060090160008282546111a39190614da0565b925050819055508060046000600e548152602001908152602001600020600082015181600001556020820151816001015560408201518160020155606082015181600301556080820151816004015560a0820151816005015560c0820151816006015560e082015181600701559050505050505050565b60066020528060005260406000206000915090508060000154908060010154908060020154908060030154908060040160009054906101000a900460ff16905085565b600160205280600052604060002060009150905080600001549080600201805461128690614fae565b80601f01602080910402602001604051908101604052809291908181526020018280546112b290614fae565b80156112ff5780601f106112d4576101008083540402835291602001916112ff565b820191906000526020600020905b8154815290600101906020018083116112e257829003601f168201915b505050505090806003016040518060a001604052908160008201805461132490614fae565b80601f016020809104026020016040519081016040528092919081815260200182805461135090614fae565b801561139d5780601f106113725761010080835404028352916020019161139d565b820191906000526020600020905b81548152906001019060200180831161138057829003601f168201915b505050505081526020016001820180546113b690614fae565b80601f01602080910402602001604051908101604052809291908181526020018280546113e290614fae565b801561142f5780601f106114045761010080835404028352916020019161142f565b820191906000526020600020905b81548152906001019060200180831161141257829003601f168201915b5050505050815260200160028201805461144890614fae565b80601f016020809104026020016040519081016040528092919081815260200182805461147490614fae565b80156114c15780601f10611496576101008083540402835291602001916114c1565b820191906000526020600020905b8154815290600101906020018083116114a457829003601f168201915b505050505081526020016003820180546114da90614fae565b80601f016020809104026020016040519081016040528092919081815260200182805461150690614fae565b80156115535780601f1061152857610100808354040283529160200191611553565b820191906000526020600020905b81548152906001019060200180831161153657829003601f168201915b5050505050815260200160048201805461156c90614fae565b80601f016020809104026020016040519081016040528092919081815260200182805461159890614fae565b80156115e55780601f106115ba576101008083540402835291602001916115e5565b820191906000526020600020905b8154815290600101906020018083116115c857829003601f168201915b505050505081525050908060080180546115fe90614fae565b80601f016020809104026020016040519081016040528092919081815260200182805461162a90614fae565b80156116775780601f1061164c57610100808354040283529160200191611677565b820191906000526020600020905b81548152906001019060200180831161165a57829003601f168201915b50505050509080600901549080600a01549080600d0154905087565b806000600160008381526020019081526020016000206000015414156116b857600080fd5b6000600560008581526020019081526020016000209050828160040154146116df57600080fd5b6116e884613a78565b6116f157600080fd5b80600701600360003373ffffffffffffffffffffffffffffffffffffffff1673ffffffffffffffffffffffffffffffffffffffff168152602001908152602001600020549080600181540180825580915050600190039060005260206000200160009091909190915055600260016000858152602001908152602001600020600101805490506117819190614df6565b816007018054905011156117e35760008160050160006101000a81548160ff021916908360038111156117dd577f4e487b7100000000000000000000000000000000000000000000000000000000600052602160045260246000fd5b02179055505b50505050565b3373ffffffffffffffffffffffffffffffffffffffff16600080600360003373ffffffffffffffffffffffffffffffffffffffff1673ffffffffffffffffffffffffffffffffffffffff16815260200190815260200160002054815260200190815260200160002060050160009054906101000a900473ffffffffffffffffffffffffffffffffffffffff1673ffffffffffffffffffffffffffffffffffffffff1614156118cc576040517f08c379a00000000000000000000000000000000000000000000000000000000081526004016118c390614919565b60405180910390fd5b60006009600081546118dd90615011565b919050819055905080600360003373ffffffffffffffffffffffffffffffffffffffff1673ffffffffffffffffffffffffffffffffffffffff1681526020019081526020016000208190555060006040518060a001604052808881526020018781526020018681526020018581526020018481525090506040518061018001604052806009600081548092919061197390615011565b9190505581526020018d81526020018c81526020018b81526020018a81526020013373ffffffffffffffffffffffffffffffffffffffff168152602001600067ffffffffffffffff8111156119f1577f4e487b7100000000000000000000000000000000000000000000000000000000600052604160045260246000fd5b604051908082528060200260200182016040528015611a1f5781602001602082028036833780820191505090505b508152602001600067ffffffffffffffff811115611a66577f4e487b7100000000000000000000000000000000000000000000000000000000600052604160045260246000fd5b604051908082528060200260200182016040528015611a945781602001602082028036833780820191505090505b5081526020016000815260200160046005811115611adb577f4e487b7100000000000000000000000000000000000000000000000000000000600052602160045260246000fd5b8152602001896002811115611b19577f4e487b7100000000000000000000000000000000000000000000000000000000600052602160045260246000fd5b815260200182815250600080848152602001908152602001600020600082015181600001556020820151816001019080519060200190611b5a929190613d90565b506040820151816002019080519060200190611b77929190613d90565b50606082015181600301556080820151816004019080519060200190611b9e929190613d90565b5060a08201518160050160006101000a81548173ffffffffffffffffffffffffffffffffffffffff021916908373ffffffffffffffffffffffffffffffffffffffff16021790555060c0820151816006019080519060200190611c02929190613e16565b5060e0820151816007019080519060200190611c1f929190613e16565b5061010082015181600801556101208201518160090160006101000a81548160ff02191690836005811115611c7d577f4e487b7100000000000000000000000000000000000000000000000000000000600052602160045260246000fd5b02179055506101408201518160090160016101000a81548160ff02191690836002811115611cd4577f4e487b7100000000000000000000000000000000000000000000000000000000600052602160045260246000fd5b021790555061016082015181600a016000820151816000019080519060200190611cff929190613d90565b506020820151816001019080519060200190611d1c929190613d90565b506040820151816002019080519060200190611d39929190613d90565b506060820151816003019080519060200190611d56929190613d90565b506080820151816004019080519060200190611d73929190613d90565b505050905050505050505050505050505050565b6000602052806000526040600020600091509050806000015490806001018054611db090614fae565b80601f0160208091040260200160405190810160405280929190818152602001828054611ddc90614fae565b8015611e295780601f10611dfe57610100808354040283529160200191611e29565b820191906000526020600020905b815481529060010190602001808311611e0c57829003601f168201915b505050505090806002018054611e3e90614fae565b80601f0160208091040260200160405190810160405280929190818152602001828054611e6a90614fae565b8015611eb75780601f10611e8c57610100808354040283529160200191611eb7565b820191906000526020600020905b815481529060010190602001808311611e9a57829003601f168201915b505050505090806003015490806004018054611ed290614fae565b80601f0160208091040260200160405190810160405280929190818152602001828054611efe90614fae565b8015611f4b5780601f10611f2057610100808354040283529160200191611f4b565b820191906000526020600020905b815481529060010190602001808311611f2e57829003601f168201915b5050505050908060050160009054906101000a900473ffffffffffffffffffffffffffffffffffffffff16908060080154908060090160009054906101000a900460ff16908060090160019054906101000a900460ff169080600a016040518060a0016040529081600082018054611fc290614fae565b80601f0160208091040260200160405190810160405280929190818152602001828054611fee90614fae565b801561203b5780601f106120105761010080835404028352916020019161203b565b820191906000526020600020905b81548152906001019060200180831161201e57829003601f168201915b5050505050815260200160018201805461205490614fae565b80601f016020809104026020016040519081016040528092919081815260200182805461208090614fae565b80156120cd5780601f106120a2576101008083540402835291602001916120cd565b820191906000526020600020905b8154815290600101906020018083116120b057829003601f168201915b505050505081526020016002820180546120e690614fae565b80601f016020809104026020016040519081016040528092919081815260200182805461211290614fae565b801561215f5780601f106121345761010080835404028352916020019161215f565b820191906000526020600020905b81548152906001019060200180831161214257829003601f168201915b5050505050815260200160038201805461217890614fae565b80601f01602080910402602001604051908101604052809291908181526020018280546121a490614fae565b80156121f15780601f106121c6576101008083540402835291602001916121f1565b820191906000526020600020905b8154815290600101906020018083116121d457829003601f168201915b5050505050815260200160048201805461220a90614fae565b80601f016020809104026020016040519081016040528092919081815260200182805461223690614fae565b80156122835780601f1061225857610100808354040283529160200191612283565b820191906000526020600020905b81548152906001019060200180831161226657829003601f168201915b50505050508152505090508a565b8060008084815260200190815260200160002060080154146122e8576040517f08c379a00000000000000000000000000000000000000000000000000000000081526004016122df90614959565b60405180910390fd5b8060008084815260200190815260200160002060080181905550600360008084815260200190815260200160002060090160006101000a81548160ff02191690836005811115612361577f4e487b7100000000000000000000000000000000000000000000000000000000600052602160045260246000fd5b0217905550600160008281526020019081526020016000206001018290806001815401808255809150506001900390600052602060002001600090919091909150555050565b60076020528060005260406000206000915090505481565b60008260008060008381526020019081526020016000206000015414156123e557600080fd5b60006004600085815260200190815260200160002090506000601e603c8060188560070154426124159190614e81565b61241f9190614df6565b6124299190614e27565b6124339190614e27565b61243d9190614e27565b90506000811161244c57600080fd5b60008260020154905060008360040154905060008460050154905060008382600c6124779190614e27565b6124819190614e81565b600c6064856124909190614df6565b61249a9190614e27565b60016124a69190614da0565b856124b19190614e27565b1890508086600201546124c49190614e81565b86600201819055508097505050505050505092915050565b82600080600083815260200190815260200160002060000154141561250057600080fd5b600061250c85856123bf565b905082811461251a57600080fd5b60006004600086815260200190815260200160002090503073ffffffffffffffffffffffffffffffffffffffff166108fc859081150290604051600060405180830381858888f19350505050158015612577573d6000803e3d6000fd5b5083600160008360030154815260200190815260200160002060090160008282546125a29190614da0565b92505081905550428160070181905550505050505050565b8060008084815260200190815260200160002060090160006101000a81548160ff02191690836005811115612618577f4e487b7100000000000000000000000000000000000000000000000000000000600052602160045260246000fd5b02179055505050565b60086020528060005260406000206000915090505481565b60008260006001600083815260200190815260200160002060000154141561266057600080fd5b60006004600085815260200190815260200160002090506000601e603c8060188560070154426126909190614e81565b61269a9190614df6565b6126a49190614e27565b6126ae9190614e27565b6126b89190614e27565b9050600081116126c757600080fd5b60008260020154905060008360040154905060008460050154905060008382600c6126f29190614e27565b6126fc9190614e81565b600c60648561270b9190614df6565b6127159190614e27565b60016127219190614da0565b8561272c9190614e27565b18905080866002015461273f9190614e81565b86600201819055508097505050505050505092915050565b8060006002600083815260200190815260200160002060000154141561277c57600080fd5b60006006600085815260200190815260200160002060040160006101000a81548160ff021916908360038111156127dc577f4e487b7100000000000000000000000000000000000000000000000000000000600052602160045260246000fd5b0217905550505050565b8260006001600083815260200190815260200160002060000154141561280b57600080fd5b60006128178585612639565b905082811461282557600080fd5b60006004600086815260200190815260200160002090503073ffffffffffffffffffffffffffffffffffffffff166108fc859081150290604051600060405180830381858888f19350505050158015612882573d6000803e3d6000fd5b5083600160008360030154815260200190815260200160002060090160008282546128ad9190614da0565b92505081905550428160070181905550505050505050565b60078751101561290a576040517f08c379a0000000000000000000000000000000000000000000000000000000008152600401612901906148f9565b60405180910390fd5b6000600a6000815461291b90615011565b91905081905590506040518061014001604052808281526020018981526020018681526020018581526020018481526020016000815260200160008152602001600067ffffffffffffffff81111561299c577f4e487b7100000000000000000000000000000000000000000000000000000000600052604160045260246000fd5b6040519080825280602002602001820160405280156129ca5781602001602082028036833780820191505090505b508152602001600067ffffffffffffffff811115612a11577f4e487b7100000000000000000000000000000000000000000000000000000000600052604160045260246000fd5b604051908082528060200260200182016040528015612a3f5781602001602082028036833780820191505090505b5081526020018381525060016000838152602001908152602001600020600082015181600001556020820151816001019080519060200190612a82929190613e16565b506040820151816002019080519060200190612a9f929190613d90565b506060820151816003016000820151816000019080519060200190612ac5929190613d90565b506020820151816001019080519060200190612ae2929190613d90565b506040820151816002019080519060200190612aff929190613d90565b506060820151816003019080519060200190612b1c929190613d90565b506080820151816004019080519060200190612b39929190613d90565b5050506080820151816008019080519060200190612b58929190613d90565b5060a0820151816009015560c082015181600a015560e082015181600b019080519060200190612b89929190613e16565b5061010082015181600c019080519060200190612ba7929190613e16565b5061012082015181600d015590505060005b8851811015612e535760036000808b8481518110612c00577f4e487b7100000000000000000000000000000000000000000000000000000000600052603260045260246000fd5b6020026020010151815260200190815260200160002060090160006101000a81548160ff02191690836005811115612c61577f4e487b7100000000000000000000000000000000000000000000000000000000600052602160045260246000fd5b021790555087898281518110612ca0577f4e487b7100000000000000000000000000000000000000000000000000000000600052603260045260246000fd5b60200260200101511415612d535760008060008b8481518110612cec577f4e487b7100000000000000000000000000000000000000000000000000000000600052603260045260246000fd5b6020026020010151815260200190815260200160002060090160006101000a81548160ff02191690836005811115612d4d577f4e487b7100000000000000000000000000000000000000000000000000000000600052602160045260246000fd5b02179055505b86898281518110612d8d577f4e487b7100000000000000000000000000000000000000000000000000000000600052603260045260246000fd5b60200260200101511415612e405760026000808b8481518110612dd9577f4e487b7100000000000000000000000000000000000000000000000000000000600052603260045260246000fd5b6020026020010151815260200190815260200160002060090160006101000a81548160ff02191690836005811115612e3a577f4e487b7100000000000000000000000000000000000000000000000000000000600052602160045260246000fd5b02179055505b8080612e4b90615011565b915050612bb9565b5060005b8851811015612f2e57600a54600760008060008d8681518110612ea3577f4e487b7100000000000000000000000000000000000000000000000000000000600052603260045260246000fd5b6020026020010151815260200190815260200160002060050160009054906101000a900473ffffffffffffffffffffffffffffffffffffffff1673ffffffffffffffffffffffffffffffffffffffff1673ffffffffffffffffffffffffffffffffffffffff168152602001908152602001600020819055508080612f2690615011565b915050612e57565b505050505050505050565b6005602052806000526040600020600091509050806000015490806001015490806002015490806003018054612f6e90614fae565b80601f0160208091040260200160405190810160405280929190818152602001828054612f9a90614fae565b8015612fe75780601f10612fbc57610100808354040283529160200191612fe7565b820191906000526020600020905b815481529060010190602001808311612fca57829003601f168201915b5050505050908060040154908060050160009054906101000a900460ff16908060060154905087565b6002600581111561304a577f4e487b7100000000000000000000000000000000000000000000000000000000600052602160045260246000fd5b600080600360003373ffffffffffffffffffffffffffffffffffffffff1673ffffffffffffffffffffffffffffffffffffffff16815260200190815260200160002054815260200190815260200160002060090160009054906101000a900460ff1660058111156130e4577f4e487b7100000000000000000000000000000000000000000000000000000000600052602160045260246000fd5b14613124576040517f08c379a000000000000000000000000000000000000000000000000000000000815260040161311b90614999565b60405180910390fd5b6000600381111561315e577f4e487b7100000000000000000000000000000000000000000000000000000000600052602160045260246000fd5b6005600083815260200190815260200160002060050160009054906101000a900460ff1660038111156131ba577f4e487b7100000000000000000000000000000000000000000000000000000000600052602160045260246000fd5b146131fa576040517f08c379a00000000000000000000000000000000000000000000000000000000081526004016131f190614979565b60405180910390fd5b600060056000838152602001908152602001600020905060018160050160006101000a81548160ff0219169083600381111561325f577f4e487b7100000000000000000000000000000000000000000000000000000000600052602160045260246000fd5b02179055506000604051806101000160405280600e6000815461328190615011565b91905081905581526020018360040154815260200183600201548152602001836001015481526020016001600085600401548152602001908152602001600020600d0154815260200183600601548152602001428152602001600081525090508060046000600e548152602001908152602001600020600082015181600001556020820151816001015560408201518160020155606082015181600301556080820151816004015560a0820151816005015560c0820151816006015560e082015181600701559050506001600083600401548152602001908152602001600020600b01600e54908060018154018082558091505060019003906000526020600020016000909190919091505560008083600101548152602001908152602001600020600601600e549080600181540180825580915050600190039060005260206000200160009091909190915055816002015460016000846004015481526020019081526020016000206009015410156133fa57600080fd5b6000808360010154815260200190815260200160002060050160009054906101000a900473ffffffffffffffffffffffffffffffffffffffff1673ffffffffffffffffffffffffffffffffffffffff166108fc83600201549081150290604051600060405180830381858888f1935050505015801561347d573d6000803e3d6000fd5b508160020154600160008460040154815260200190815260200160002060090160008282546134ac9190614e81565b92505081905550505050565b600060016000838152602001908152602001600020905061352b8160010180548060200260200160405190810160405280929190818152602001828054801561352057602002820191906000526020600020905b81548152602001906001019080831161350c575b505050505083613b56565b61356a576040517f08c379a000000000000000000000000000000000000000000000000000000000815260040161356190614939565b60405180910390fd5b60006135c8826001018054806020026020016040519081016040528092919081815260200182805480156135bd57602002820191906000526020600020905b8154815260200190600101908083116135a9575b505050505085613be4565b905060006136288360010180548060200260200160405190810160405280929190818152602001828054801561361d57602002820191906000526020600020905b815481526020019060010190808311613609575b505050505083613c65565b905080836001019080519060200190613642929190613e16565b505050505050565b6060600160008381526020019081526020016000206001018054806020026020016040519081016040528092919081815260200182805480156136ac57602002820191906000526020600020905b815481526020019060010190808311613698575b50505050509050919050565b60003373ffffffffffffffffffffffffffffffffffffffff16600080600360003373ffffffffffffffffffffffffffffffffffffffff1673ffffffffffffffffffffffffffffffffffffffff16815260200190815260200160002054815260200190815260200160002060050160009054906101000a900473ffffffffffffffffffffffffffffffffffffffff1673ffffffffffffffffffffffffffffffffffffffff1614905090565b606081600080600083815260200190815260200160002060000154141561378857600080fd5b6000808481526020019081526020016000206006018054806020026020016040519081016040528092919081815260200182805480156137e757602002820191906000526020600020905b8154815260200190600101908083116137d3575b5050505050915050919050565b8160006002600083815260200190815260200160002060000154141561381957600080fd5b3073ffffffffffffffffffffffffffffffffffffffff166108fc839081150290604051600060405180830381858888f1935050505015801561385f573d6000803e3d6000fd5b5060016006600086815260200190815260200160002060040160006101000a81548160ff021916908360038111156138c0577f4e487b7100000000000000000000000000000000000000000000000000000000600052602160045260246000fd5b021790555081600160006006600088815260200190815260200160002060010154815260200190815260200160002060090160008282546139019190614da0565b9250508190555050505050565b60046020528060005260406000206000915090508060000154908060010154908060020154908060030154908060040154908060050154908060060154908060070154905088565b60036020528060005260406000206000915090505481565b81600080600083815260200190815260200160002060000154141561399257600080fd5b826005600084815260200190815260200160002060010154146139b457600080fd5b600080600090505b600b548110156139ff5784600560008381526020019081526020016000206001015414156139ec578091506139ff565b80806139f790615011565b9150506139bc565b506005600082815260200190815260200160002060008082016000905560018201600090556002820160009055600382016000613a3c9190613e63565b60048201600090556005820160006101000a81549060ff02191690556006820160009055600782016000613a709190613ea3565b505050505050565b60008060056000848152602001908152602001600020600701905060005b8180549050811015613b4a57600360003373ffffffffffffffffffffffffffffffffffffffff1673ffffffffffffffffffffffffffffffffffffffff16815260200190815260200160002054828281548110613b1b577f4e487b7100000000000000000000000000000000000000000000000000000000600052603260045260246000fd5b90600052602060002001541415613b3757600092505050613b51565b8080613b4290615011565b915050613a96565b5060019150505b919050565b600080600090505b60018451613b6c9190614e81565b811015613bd85782848281518110613bad577f4e487b7100000000000000000000000000000000000000000000000000000000600052603260045260246000fd5b60200260200101511415613bc5576001915050613bde565b8080613bd090615011565b915050613b5e565b50600090505b92915050565b600080600090505b8351811015613c595782848281518110613c2f577f4e487b7100000000000000000000000000000000000000000000000000000000600052603260045260246000fd5b60200260200101511415613c465780915050613c5f565b8080613c5190615011565b915050613bec565b50600090505b92915050565b606082518210613c7457600080fd5b60008290505b60018451613c889190614e81565b811015613d345783600182613c9d9190614da0565b81518110613cd4577f4e487b7100000000000000000000000000000000000000000000000000000000600052603260045260246000fd5b6020026020010151848281518110613d15577f4e487b7100000000000000000000000000000000000000000000000000000000600052603260045260246000fd5b6020026020010181815250508080613d2c90615011565b915050613c7a565b508260018451613d449190614e81565b81518110613d7b577f4e487b7100000000000000000000000000000000000000000000000000000000600052603260045260246000fd5b60200260200101600081525082905092915050565b828054613d9c90614fae565b90600052602060002090601f016020900481019282613dbe5760008555613e05565b82601f10613dd757805160ff1916838001178555613e05565b82800160010185558215613e05579182015b82811115613e04578251825591602001919060010190613de9565b5b509050613e129190613ec4565b5090565b828054828255906000526020600020908101928215613e52579160200282015b82811115613e51578251825591602001919060010190613e36565b5b509050613e5f9190613ec4565b5090565b508054613e6f90614fae565b6000825580601f10613e815750613ea0565b601f016020900490600052602060002090810190613e9f9190613ec4565b5b50565b5080546000825590600052602060002090810190613ec19190613ec4565b50565b5b80821115613edd576000816000905550600101613ec5565b5090565b6000613ef4613eef84614cdd565b614cb8565b90508083825260208201905082856020860282011115613f1357600080fd5b60005b85811015613f435781613f29888261411e565b845260208401935060208301925050600181019050613f16565b5050509392505050565b6000613f60613f5b84614d09565b614cb8565b905082815260208101848484011115613f7857600080fd5b613f83848285614f6c565b509392505050565b600081359050613f9a816152ae565b92915050565b600082601f830112613fb157600080fd5b8135613fc1848260208601613ee1565b91505092915050565b600081359050613fd9816152c5565b92915050565b600081359050613fee816152d5565b92915050565b600082601f83011261400557600080fd5b8135614015848260208601613f4d565b91505092915050565b600060a0828403121561403057600080fd5b61403a60a0614cb8565b9050600082013567ffffffffffffffff81111561405657600080fd5b61406284828501613ff4565b600083015250602082013567ffffffffffffffff81111561408257600080fd5b61408e84828501613ff4565b602083015250604082013567ffffffffffffffff8111156140ae57600080fd5b6140ba84828501613ff4565b604083015250606082013567ffffffffffffffff8111156140da57600080fd5b6140e684828501613ff4565b606083015250608082013567ffffffffffffffff81111561410657600080fd5b61411284828501613ff4565b60808301525092915050565b60008135905061412d816152e5565b92915050565b60006020828403121561414557600080fd5b600061415384828501613f8b565b91505092915050565b600080600080600080600060e0888a03121561417757600080fd5b600088013567ffffffffffffffff81111561419157600080fd5b61419d8a828b01613fa0565b97505060206141ae8a828b0161411e565b96505060406141bf8a828b0161411e565b955050606088013567ffffffffffffffff8111156141dc57600080fd5b6141e88a828b01613ff4565b945050608088013567ffffffffffffffff81111561420557600080fd5b6142118a828b0161401e565b93505060a088013567ffffffffffffffff81111561422e57600080fd5b61423a8a828b01613ff4565b92505060c061424b8a828b0161411e565b91505092959891949750929550565b6000806000806080858703121561427057600080fd5b600085013567ffffffffffffffff81111561428a57600080fd5b61429687828801613ff4565b94505060206142a787828801613f8b565b935050604085013567ffffffffffffffff8111156142c457600080fd5b6142d087828801613ff4565b92505060606142e18782880161411e565b91505092959194509250565b6000806000806000806000806000806101408b8d03121561430d57600080fd5b60008b013567ffffffffffffffff81111561432757600080fd5b6143338d828e01613ff4565b9a505060208b013567ffffffffffffffff81111561435057600080fd5b61435c8d828e01613ff4565b995050604061436d8d828e0161411e565b98505060608b013567ffffffffffffffff81111561438a57600080fd5b6143968d828e01613ff4565b97505060806143a78d828e01613fca565b96505060a08b013567ffffffffffffffff8111156143c457600080fd5b6143d08d828e01613ff4565b95505060c08b013567ffffffffffffffff8111156143ed57600080fd5b6143f98d828e01613ff4565b94505060e08b013567ffffffffffffffff81111561441657600080fd5b6144228d828e01613ff4565b9350506101008b013567ffffffffffffffff81111561444057600080fd5b61444c8d828e01613ff4565b9250506101208b013567ffffffffffffffff81111561446a57600080fd5b6144768d828e01613ff4565b9150509295989b9194979a5092959850565b60006020828403121561449a57600080fd5b60006144a88482850161411e565b91505092915050565b600080604083850312156144c457600080fd5b60006144d28582860161411e565b92505060206144e385828601613fdf565b9150509250929050565b6000806040838503121561450057600080fd5b600061450e8582860161411e565b925050602061451f8582860161411e565b9150509250929050565b60008060006060848603121561453e57600080fd5b600061454c8682870161411e565b935050602061455d8682870161411e565b925050604061456e8682870161411e565b9150509250925092565b600080600080600060a0868803121561459057600080fd5b600061459e8882890161411e565b95505060206145af8882890161411e565b94505060406145c08882890161411e565b935050606086013567ffffffffffffffff8111156145dd57600080fd5b6145e988828901613ff4565b92505060806145fa8882890161411e565b9150509295509295909350565b6000614613838361489e565b60208301905092915050565b61462881614eb5565b82525050565b600061463982614d4a565b6146438185614d6d565b935061464e83614d3a565b8060005b8381101561467f5781516146668882614607565b975061467183614d60565b925050600181019050614652565b5085935050505092915050565b61469581614ec7565b82525050565b6146a481614f36565b82525050565b6146b381614f48565b82525050565b6146c281614f5a565b82525050565b60006146d382614d55565b6146dd8185614d7e565b93506146ed818560208601614f7b565b6146f681615145565b840191505092915050565b600061470c82614d55565b6147168185614d8f565b9350614726818560208601614f7b565b61472f81615145565b840191505092915050565b6000614747601a83614d8f565b915061475282615156565b602082019050919050565b600061476a601283614d8f565b91506147758261517f565b602082019050919050565b600061478d602583614d8f565b9150614798826151a8565b604082019050919050565b60006147b0601283614d8f565b91506147bb826151f7565b602082019050919050565b60006147d3601283614d8f565b91506147de82615220565b602082019050919050565b60006147f6601383614d8f565b915061480182615249565b602082019050919050565b600060a083016000830151848203600086015261482982826146c8565b9150506020830151848203602086015261484382826146c8565b9150506040830151848203604086015261485d82826146c8565b9150506060830151848203606086015261487782826146c8565b9150506080830151848203608086015261489182826146c8565b9150508091505092915050565b6148a781614f2c565b82525050565b6148b681614f2c565b82525050565b600060208201905081810360008301526148d6818461462e565b905092915050565b60006020820190506148f3600083018461468c565b92915050565b600060208201905081810360008301526149128161473a565b9050919050565b600060208201905081810360008301526149328161475d565b9050919050565b6000602082019050818103600083015261495281614780565b9050919050565b60006020820190508181036000830152614972816147a3565b9050919050565b60006020820190508181036000830152614992816147c6565b9050919050565b600060208201905081810360008301526149b2816147e9565b9050919050565b60006020820190506149ce60008301846148ad565b92915050565b600060a0820190506149e960008301886148ad565b81810360208301526149fb8187614701565b9050614a0a604083018661461f565b8181036060830152614a1c8185614701565b9050614a2b60808301846148ad565b9695505050505050565b600061014082019050614a4b600083018d6148ad565b8181036020830152614a5d818c614701565b90508181036040830152614a71818b614701565b9050614a80606083018a6148ad565b8181036080830152614a928189614701565b9050614aa160a083018861461f565b614aae60c08301876148ad565b614abb60e08301866146b9565b614ac961010083018561469b565b818103610120830152614adc818461480c565b90509b9a5050505050505050505050565b600060e082019050614b02600083018a6148ad565b8181036020830152614b148189614701565b90508181036040830152614b28818861480c565b90508181036060830152614b3c8187614701565b9050614b4b60808301866148ad565b614b5860a08301856148ad565b614b6560c08301846148ad565b98975050505050505050565b600060e082019050614b86600083018a6148ad565b614b9360208301896148ad565b614ba060408301886148ad565b8181036060830152614bb28187614701565b9050614bc160808301866148ad565b614bce60a08301856146aa565b614bdb60c08301846148ad565b98975050505050505050565b600060a082019050614bfc60008301886148ad565b614c0960208301876148ad565b614c1660408301866148ad565b614c2360608301856148ad565b614c3060808301846146aa565b9695505050505050565b600061010082019050614c50600083018b6148ad565b614c5d602083018a6148ad565b614c6a60408301896148ad565b614c7760608301886148ad565b614c8460808301876148ad565b614c9160a08301866148ad565b614c9e60c08301856148ad565b614cab60e08301846148ad565b9998505050505050505050565b6000614cc2614cd3565b9050614cce8282614fe0565b919050565b6000604051905090565b600067ffffffffffffffff821115614cf857614cf7615116565b5b602082029050602081019050919050565b600067ffffffffffffffff821115614d2457614d23615116565b5b614d2d82615145565b9050602081019050919050565b6000819050602082019050919050565b600081519050919050565b600081519050919050565b6000602082019050919050565b600082825260208201905092915050565b600082825260208201905092915050565b600082825260208201905092915050565b6000614dab82614f2c565b9150614db683614f2c565b9250827fffffffffffffffffffffffffffffffffffffffffffffffffffffffffffffffff03821115614deb57614dea61505a565b5b828201905092915050565b6000614e0182614f2c565b9150614e0c83614f2c565b925082614e1c57614e1b615089565b5b828204905092915050565b6000614e3282614f2c565b9150614e3d83614f2c565b9250817fffffffffffffffffffffffffffffffffffffffffffffffffffffffffffffffff0483118215151615614e7657614e7561505a565b5b828202905092915050565b6000614e8c82614f2c565b9150614e9783614f2c565b925082821015614eaa57614ea961505a565b5b828203905092915050565b6000614ec082614f0c565b9050919050565b60008115159050919050565b6000819050614ee182615272565b919050565b6000819050614ef482615286565b919050565b6000819050614f078261529a565b919050565b600073ffffffffffffffffffffffffffffffffffffffff82169050919050565b6000819050919050565b6000614f4182614ed3565b9050919050565b6000614f5382614ee6565b9050919050565b6000614f6582614ef9565b9050919050565b82818337600083830152505050565b60005b83811015614f99578082015181840152602081019050614f7e565b83811115614fa8576000848401525b50505050565b60006002820490506001821680614fc657607f821691505b60208210811415614fda57614fd96150e7565b5b50919050565b614fe982615145565b810181811067ffffffffffffffff8211171561500857615007615116565b5b80604052505050565b600061501c82614f2c565b91507fffffffffffffffffffffffffffffffffffffffffffffffffffffffffffffffff82141561504f5761504e61505a565b5b600182019050919050565b7f4e487b7100000000000000000000000000000000000000000000000000000000600052601160045260246000fd5b7f4e487b7100000000000000000000000000000000000000000000000000000000600052601260045260246000fd5b7f4e487b7100000000000000000000000000000000000000000000000000000000600052602160045260246000fd5b7f4e487b7100000000000000000000000000000000000000000000000000000000600052602260045260246000fd5b7f4e487b7100000000000000000000000000000000000000000000000000000000600052604160045260246000fd5b6000601f19601f8301169050919050565b7f41746c656173742037206d656d62657273207265717569726564000000000000600082015250565b7f416c726561647920526567697374657265640000000000000000000000000000600082015250565b7f5573657220697320616c7265616479206e6f7420612070617274206f6620746860008201527f6520534847000000000000000000000000000000000000000000000000000000602082015250565b7f5573657220616c72656164792061646465640000000000000000000000000000600082015250565b7f556e617070726f76656420726571756573740000000000000000000000000000600082015250565b7f556e617574686f72697a65642072657165737400000000000000000000000000600082015250565b60038110615283576152826150b8565b5b50565b60048110615297576152966150b8565b5b50565b600681106152ab576152aa6150b8565b5b50565b6152b781614eb5565b81146152c257600080fd5b50565b600381106152d257600080fd5b50565b600681106152e257600080fd5b50565b6152ee81614f2c565b81146152f957600080fd5b5056fea26469706673582212201579d62a9a44c00ce27b435a2744f19d2f0364fc6dc8f8a656dedaf20281c78964736f6c63430008040033",
  "immutableReferences": {},
  "source": "// SPDX-License-Identifier: MIT\npragma solidity ^0.8.1;\nimport \"./lib/Bank.sol\";\nimport \"./lib/SHG.sol\";\nimport \"./lib/User.sol\";\n\ncontract Yogdaan is Bank, SHG, User {\n    address admin;\n\n    constructor() {\n        admin = msg.sender;\n    }\n}\n",
  "sourcePath": "/home/sdas/code/yogdaan-contracts/contracts/yogdaan.sol",
  "compiler": {
    "name": "solc",
    "version": "0.8.4+commit.c7e474f2.Emscripten.clang"
  },
  "schemaVersion": "3.4.9",
  "updatedAt": "2022-08-25T04:37:21.774Z",
  "networkType": "ethereum",
  "devdoc": {
    "kind": "dev",
    "methods": {},
    "version": 1
  },
  "userdoc": {
    "kind": "user",
    "methods": {},
    "version": 1
  }
}