{
  "contractName": "Yogdaan",
  "abi": [
    {
      "inputs": [],
      "stateMutability": "nonpayable",
      "type": "constructor"
    },
    {
      "inputs": [
        {
          "internalType": "string",
          "name": "_name",
          "type": "string"
        },
        {
          "internalType": "address",
          "name": "_walletAddress",
          "type": "address"
        },
        {
          "internalType": "string",
          "name": "_code",
          "type": "string"
        },
        {
          "internalType": "uint256",
          "name": "_intrestRate",
          "type": "uint256"
        }
      ],
      "name": "addBank",
      "outputs": [],
      "stateMutability": "nonpayable",
      "type": "function"
    },
    {
      "inputs": [
        {
          "internalType": "uint256[]",
          "name": "members",
          "type": "uint256[]"
        },
        {
          "internalType": "uint256",
          "name": "president",
          "type": "uint256"
        },
        {
          "internalType": "uint256",
          "name": "treasurer",
          "type": "uint256"
        },
        {
          "internalType": "string",
          "name": "name",
          "type": "string"
        },
        {
          "internalType": "string",
          "name": "_state",
          "type": "string"
        },
        {
          "internalType": "string",
          "name": "_district",
          "type": "string"
        },
        {
          "internalType": "string",
          "name": "_blockName",
          "type": "string"
        },
        {
          "internalType": "string",
          "name": "_panchyatName",
          "type": "string"
        },
        {
          "internalType": "string",
          "name": "_villageName",
          "type": "string"
        },
        {
          "internalType": "string",
          "name": "dateOfFormation",
          "type": "string"
        },
        {
          "internalType": "uint256",
          "name": "_baseIntrest",
          "type": "uint256"
        }
      ],
      "name": "addSHG",
      "outputs": [],
      "stateMutability": "nonpayable",
      "type": "function"
    },
    {
      "inputs": [
        {
          "internalType": "uint256",
          "name": "userid",
          "type": "uint256"
        },
        {
          "internalType": "uint256",
          "name": "shg",
          "type": "uint256"
        }
      ],
      "name": "addSHGMember",
      "outputs": [],
      "stateMutability": "nonpayable",
      "type": "function"
    },
    {
      "inputs": [
        {
          "internalType": "string",
          "name": "name",
          "type": "string"
        },
        {
          "internalType": "string",
          "name": "aadhar",
          "type": "string"
        },
        {
          "internalType": "uint256",
          "name": "mobno",
          "type": "uint256"
        },
        {
          "internalType": "string",
          "name": "fatherName",
          "type": "string"
        },
        {
          "internalType": "enum structs.Gender",
          "name": "gender",
          "type": "uint8"
        },
        {
          "internalType": "string",
          "name": "_state",
          "type": "string"
        },
        {
          "internalType": "string",
          "name": "_district",
          "type": "string"
        },
        {
          "internalType": "string",
          "name": "_blockName",
          "type": "string"
        },
        {
          "internalType": "string",
          "name": "_panchyatName",
          "type": "string"
        },
        {
          "internalType": "string",
          "name": "_villageName",
          "type": "string"
        }
      ],
      "name": "addUser",
      "outputs": [],
      "stateMutability": "nonpayable",
      "type": "function"
    },
    {
      "inputs": [
        {
          "internalType": "address",
          "name": "",
          "type": "address"
        }
      ],
      "name": "addressToBankid",
      "outputs": [
        {
          "internalType": "uint256",
          "name": "",
          "type": "uint256"
        }
      ],
      "stateMutability": "view",
      "type": "function",
      "constant": true
    },
    {
      "inputs": [
        {
          "internalType": "address",
          "name": "",
          "type": "address"
        }
      ],
      "name": "addressToSHGid",
      "outputs": [
        {
          "internalType": "uint256",
          "name": "",
          "type": "uint256"
        }
      ],
      "stateMutability": "view",
      "type": "function",
      "constant": true
    },
    {
      "inputs": [
        {
          "internalType": "address",
          "name": "",
          "type": "address"
        }
      ],
      "name": "addressToUser",
      "outputs": [
        {
          "internalType": "uint256",
          "name": "",
          "type": "uint256"
        }
      ],
      "stateMutability": "view",
      "type": "function",
      "constant": true
    },
    {
      "inputs": [
        {
          "internalType": "uint256",
          "name": "_shgrequestid",
          "type": "uint256"
        },
        {
          "internalType": "uint256",
          "name": "_bankid",
          "type": "uint256"
        }
      ],
      "name": "approveLoan",
      "outputs": [],
      "stateMutability": "nonpayable",
      "type": "function"
    },
    {
      "inputs": [
        {
          "internalType": "uint256",
          "name": "_requestid",
          "type": "uint256"
        },
        {
          "internalType": "uint256",
          "name": "_shgid",
          "type": "uint256"
        }
      ],
      "name": "approveRequest",
      "outputs": [],
      "stateMutability": "nonpayable",
      "type": "function"
    },
    {
      "inputs": [
        {
          "internalType": "uint256",
          "name": "",
          "type": "uint256"
        }
      ],
      "name": "banks",
      "outputs": [
        {
          "internalType": "uint256",
          "name": "id",
          "type": "uint256"
        },
        {
          "internalType": "string",
          "name": "name",
          "type": "string"
        },
        {
          "internalType": "address",
          "name": "walletAddress",
          "type": "address"
        },
        {
          "internalType": "string",
          "name": "code",
          "type": "string"
        },
        {
          "internalType": "uint256",
          "name": "intrestRate",
          "type": "uint256"
        }
      ],
      "stateMutability": "view",
      "type": "function",
      "constant": true
    },
    {
      "inputs": [
        {
          "internalType": "uint256",
          "name": "_userid",
          "type": "uint256"
        },
        {
          "internalType": "uint256",
          "name": "_requestid",
          "type": "uint256"
        }
      ],
      "name": "deleteRequest",
      "outputs": [],
      "stateMutability": "nonpayable",
      "type": "function"
    },
    {
      "inputs": [
        {
          "internalType": "string",
          "name": "",
          "type": "string"
        },
        {
          "internalType": "uint256",
          "name": "",
          "type": "uint256"
        }
      ],
      "name": "districtToSHGs",
      "outputs": [
        {
          "internalType": "uint256",
          "name": "",
          "type": "uint256"
        }
      ],
      "stateMutability": "view",
      "type": "function",
      "constant": true
    },
    {
      "inputs": [
        {
          "internalType": "uint256",
          "name": "bankid",
          "type": "uint256"
        }
      ],
      "name": "getAllBanks",
      "outputs": [
        {
          "components": [
            {
              "internalType": "uint256",
              "name": "id",
              "type": "uint256"
            },
            {
              "internalType": "string",
              "name": "name",
              "type": "string"
            },
            {
              "internalType": "address",
              "name": "walletAddress",
              "type": "address"
            },
            {
              "internalType": "string",
              "name": "code",
              "type": "string"
            },
            {
              "internalType": "uint256",
              "name": "intrestRate",
              "type": "uint256"
            },
            {
              "internalType": "uint256[]",
              "name": "requests",
              "type": "uint256[]"
            }
          ],
          "internalType": "struct structs.Bank",
          "name": "",
          "type": "tuple"
        }
      ],
      "stateMutability": "view",
      "type": "function",
      "constant": true
    },
    {
      "inputs": [
        {
          "internalType": "uint256",
          "name": "userid",
          "type": "uint256"
        }
      ],
      "name": "getAllLoans",
      "outputs": [
        {
          "internalType": "uint256[]",
          "name": "",
          "type": "uint256[]"
        }
      ],
      "stateMutability": "view",
      "type": "function",
      "constant": true
    },
    {
      "inputs": [],
      "name": "getNumUsers",
      "outputs": [
        {
          "internalType": "uint256",
          "name": "",
          "type": "uint256"
        }
      ],
      "stateMutability": "view",
      "type": "function",
      "constant": true
    },
    {
      "inputs": [
        {
          "internalType": "uint256",
          "name": "_shgid",
          "type": "uint256"
        },
        {
          "internalType": "uint256",
          "name": "_loanid",
          "type": "uint256"
        }
      ],
      "name": "getSHGEMI",
      "outputs": [
        {
          "internalType": "uint256",
          "name": "",
          "type": "uint256"
        }
      ],
      "stateMutability": "nonpayable",
      "type": "function"
    },
    {
      "inputs": [
        {
          "internalType": "uint256",
          "name": "shgid",
          "type": "uint256"
        }
      ],
      "name": "getSHGMembers",
      "outputs": [
        {
          "internalType": "uint256[]",
          "name": "",
          "type": "uint256[]"
        }
      ],
      "stateMutability": "view",
      "type": "function",
      "constant": true
    },
    {
      "inputs": [
        {
          "internalType": "uint256",
          "name": "_shgid",
          "type": "uint256"
        }
      ],
      "name": "getSHGRequests",
      "outputs": [
        {
          "internalType": "uint256[]",
          "name": "",
          "type": "uint256[]"
        }
      ],
      "stateMutability": "nonpayable",
      "type": "function"
    },
    {
      "inputs": [],
      "name": "getTotalBanks",
      "outputs": [
        {
          "internalType": "uint256",
          "name": "",
          "type": "uint256"
        }
      ],
      "stateMutability": "view",
      "type": "function",
      "constant": true
    },
    {
      "inputs": [
        {
          "internalType": "uint256",
          "name": "userid",
          "type": "uint256"
        },
        {
          "internalType": "uint256",
          "name": "loanid",
          "type": "uint256"
        }
      ],
      "name": "getUserEMI",
      "outputs": [
        {
          "internalType": "uint256",
          "name": "",
          "type": "uint256"
        }
      ],
      "stateMutability": "nonpayable",
      "type": "function"
    },
    {
      "inputs": [
        {
          "internalType": "uint256",
          "name": "_userid",
          "type": "uint256"
        }
      ],
      "name": "getUserLoanAmount",
      "outputs": [
        {
          "internalType": "uint256",
          "name": "",
          "type": "uint256"
        }
      ],
      "stateMutability": "view",
      "type": "function",
      "constant": true
    },
    {
      "inputs": [
        {
          "internalType": "uint256",
          "name": "_userid",
          "type": "uint256"
        }
      ],
      "name": "getUserRequest",
      "outputs": [
        {
          "internalType": "uint256[]",
          "name": "",
          "type": "uint256[]"
        }
      ],
      "stateMutability": "view",
      "type": "function",
      "constant": true
    },
    {
      "inputs": [
        {
          "internalType": "uint256",
          "name": "_shgrequestid",
          "type": "uint256"
        },
        {
          "internalType": "uint256",
          "name": "_bankid",
          "type": "uint256"
        },
        {
          "internalType": "uint256",
          "name": "_amount",
          "type": "uint256"
        }
      ],
      "name": "grantLoan",
      "outputs": [],
      "stateMutability": "nonpayable",
      "type": "function"
    },
    {
      "inputs": [
        {
          "internalType": "uint256",
          "name": "",
          "type": "uint256"
        }
      ],
      "name": "loans",
      "outputs": [
        {
          "internalType": "uint256",
          "name": "loanId",
          "type": "uint256"
        },
        {
          "internalType": "uint256",
          "name": "lenderId",
          "type": "uint256"
        },
        {
          "internalType": "uint256",
          "name": "amount",
          "type": "uint256"
        },
        {
          "internalType": "uint256",
          "name": "lendeeId",
          "type": "uint256"
        },
        {
          "internalType": "uint256",
          "name": "intrest",
          "type": "uint256"
        },
        {
          "internalType": "uint256",
          "name": "loanTime",
          "type": "uint256"
        },
        {
          "internalType": "uint256",
          "name": "date",
          "type": "uint256"
        },
        {
          "internalType": "uint256",
          "name": "lastEMI",
          "type": "uint256"
        }
      ],
      "stateMutability": "view",
      "type": "function",
      "constant": true
    },
    {
      "inputs": [],
      "name": "login",
      "outputs": [
        {
          "internalType": "bool",
          "name": "",
          "type": "bool"
        }
      ],
      "stateMutability": "view",
      "type": "function",
      "constant": true
    },
    {
      "inputs": [
        {
          "internalType": "uint256",
          "name": "_shgid",
          "type": "uint256"
        },
        {
          "internalType": "uint256",
          "name": "_userid",
          "type": "uint256"
        },
        {
          "internalType": "uint256",
          "name": "_amount",
          "type": "uint256"
        },
        {
          "internalType": "string",
          "name": "_description",
          "type": "string"
        },
        {
          "internalType": "uint256",
          "name": "_loanTime",
          "type": "uint256"
        }
      ],
      "name": "makeRequest",
      "outputs": [],
      "stateMutability": "nonpayable",
      "type": "function"
    },
    {
      "inputs": [
        {
          "internalType": "uint256",
          "name": "_userid",
          "type": "uint256"
        },
        {
          "internalType": "uint256",
          "name": "_loanid",
          "type": "uint256"
        },
        {
          "internalType": "uint256",
          "name": "_amount",
          "type": "uint256"
        }
      ],
      "name": "payEMI",
      "outputs": [],
      "stateMutability": "payable",
      "type": "function",
      "payable": true
    },
    {
      "inputs": [
        {
          "internalType": "uint256",
          "name": "userid",
          "type": "uint256"
        },
        {
          "internalType": "uint256",
          "name": "shgid",
          "type": "uint256"
        }
      ],
      "name": "removeSHGMember",
      "outputs": [],
      "stateMutability": "nonpayable",
      "type": "function"
    },
    {
      "inputs": [
        {
          "internalType": "uint256",
          "name": "_requestid",
          "type": "uint256"
        }
      ],
      "name": "sendGrant",
      "outputs": [],
      "stateMutability": "nonpayable",
      "type": "function"
    },
    {
      "inputs": [
        {
          "internalType": "uint256",
          "name": "_shgid",
          "type": "uint256"
        },
        {
          "internalType": "uint256",
          "name": "_amount",
          "type": "uint256"
        },
        {
          "internalType": "uint256",
          "name": "_loanTime",
          "type": "uint256"
        }
      ],
      "name": "sendRequestToBank",
      "outputs": [],
      "stateMutability": "nonpayable",
      "type": "function"
    },
    {
      "inputs": [
        {
          "internalType": "uint256",
          "name": "_bankid",
          "type": "uint256"
        },
        {
          "internalType": "uint256",
          "name": "_requestid",
          "type": "uint256"
        },
        {
          "internalType": "uint256",
          "name": "_amount",
          "type": "uint256"
        }
      ],
      "name": "shgLoan",
      "outputs": [],
      "stateMutability": "payable",
      "type": "function",
      "payable": true
    },
    {
      "inputs": [
        {
          "internalType": "uint256",
          "name": "_shgid",
          "type": "uint256"
        },
        {
          "internalType": "uint256",
          "name": "_loanid",
          "type": "uint256"
        },
        {
          "internalType": "uint256",
          "name": "_amount",
          "type": "uint256"
        }
      ],
      "name": "shgPayEMI",
      "outputs": [],
      "stateMutability": "nonpayable",
      "type": "function"
    },
    {
      "inputs": [
        {
          "internalType": "uint256",
          "name": "",
          "type": "uint256"
        }
      ],
      "name": "shgRequests",
      "outputs": [
        {
          "internalType": "uint256",
          "name": "requestid",
          "type": "uint256"
        },
        {
          "internalType": "uint256",
          "name": "shgid",
          "type": "uint256"
        },
        {
          "internalType": "uint256",
          "name": "amount",
          "type": "uint256"
        },
        {
          "internalType": "uint256",
          "name": "loanTime",
          "type": "uint256"
        },
        {
          "internalType": "enum structs.RequestStatus",
          "name": "status",
          "type": "uint8"
        }
      ],
      "stateMutability": "view",
      "type": "function",
      "constant": true
    },
    {
      "inputs": [
        {
          "internalType": "uint256",
          "name": "",
          "type": "uint256"
        },
        {
          "internalType": "uint256",
          "name": "",
          "type": "uint256"
        }
      ],
      "name": "shgToRequests",
      "outputs": [
        {
          "internalType": "uint256",
          "name": "",
          "type": "uint256"
        }
      ],
      "stateMutability": "view",
      "type": "function",
      "constant": true
    },
    {
      "inputs": [
        {
          "internalType": "uint256",
          "name": "",
          "type": "uint256"
        }
      ],
      "name": "shgs",
      "outputs": [
        {
          "internalType": "uint256",
          "name": "id",
          "type": "uint256"
        },
        {
          "internalType": "string",
          "name": "name",
          "type": "string"
        },
        {
          "components": [
            {
              "internalType": "string",
              "name": "state",
              "type": "string"
            },
            {
              "internalType": "string",
              "name": "district",
              "type": "string"
            },
            {
              "internalType": "string",
              "name": "blockName",
              "type": "string"
            },
            {
              "internalType": "string",
              "name": "panchyatName",
              "type": "string"
            },
            {
              "internalType": "string",
              "name": "villageName",
              "type": "string"
            }
          ],
          "internalType": "struct structs.Location",
          "name": "location",
          "type": "tuple"
        },
        {
          "internalType": "string",
          "name": "dateOfFormation",
          "type": "string"
        },
        {
          "internalType": "uint256",
          "name": "currentBalance",
          "type": "uint256"
        },
        {
          "internalType": "uint256",
          "name": "owedBalance",
          "type": "uint256"
        },
        {
          "internalType": "uint256",
          "name": "baseIntrest",
          "type": "uint256"
        }
      ],
      "stateMutability": "view",
      "type": "function",
      "constant": true
    },
    {
      "inputs": [
        {
          "internalType": "string",
          "name": "district",
          "type": "string"
        }
      ],
      "name": "shgsOfDistrict",
      "outputs": [
        {
          "internalType": "uint256[]",
          "name": "",
          "type": "uint256[]"
        }
      ],
      "stateMutability": "view",
      "type": "function",
      "constant": true
    },
    {
      "inputs": [],
      "name": "totalNumSHGs",
      "outputs": [
        {
          "internalType": "uint256",
          "name": "",
          "type": "uint256"
        }
      ],
      "stateMutability": "view",
      "type": "function",
      "constant": true
    },
    {
      "inputs": [
        {
          "internalType": "uint256",
          "name": "id",
          "type": "uint256"
        },
        {
          "internalType": "enum structs.UserType",
          "name": "updatedType",
          "type": "uint8"
        }
      ],
      "name": "updateMemberRole",
      "outputs": [],
      "stateMutability": "nonpayable",
      "type": "function"
    },
    {
      "inputs": [
        {
          "internalType": "uint256",
          "name": "",
          "type": "uint256"
        }
      ],
      "name": "userRequests",
      "outputs": [
        {
          "internalType": "uint256",
          "name": "requestId",
          "type": "uint256"
        },
        {
          "internalType": "uint256",
          "name": "userId",
          "type": "uint256"
        },
        {
          "internalType": "uint256",
          "name": "amount",
          "type": "uint256"
        },
        {
          "internalType": "string",
          "name": "description",
          "type": "string"
        },
        {
          "internalType": "uint256",
          "name": "SHGId",
          "type": "uint256"
        },
        {
          "internalType": "enum structs.RequestStatus",
          "name": "status",
          "type": "uint8"
        },
        {
          "internalType": "uint256",
          "name": "loanTime",
          "type": "uint256"
        }
      ],
      "stateMutability": "view",
      "type": "function",
      "constant": true
    },
    {
      "inputs": [
        {
          "internalType": "uint256",
          "name": "_shgid",
          "type": "uint256"
        }
      ],
      "name": "userRequestsOfSHG",
      "outputs": [
        {
          "internalType": "uint256[]",
          "name": "",
          "type": "uint256[]"
        }
      ],
      "stateMutability": "view",
      "type": "function",
      "constant": true
    },
    {
      "inputs": [
        {
          "internalType": "uint256",
          "name": "",
          "type": "uint256"
        },
        {
          "internalType": "uint256",
          "name": "",
          "type": "uint256"
        }
      ],
      "name": "userToRequests",
      "outputs": [
        {
          "internalType": "uint256",
          "name": "",
          "type": "uint256"
        }
      ],
      "stateMutability": "view",
      "type": "function",
      "constant": true
    },
    {
      "inputs": [
        {
          "internalType": "uint256",
          "name": "",
          "type": "uint256"
        }
      ],
      "name": "users",
      "outputs": [
        {
          "internalType": "uint256",
          "name": "id",
          "type": "uint256"
        },
        {
          "internalType": "string",
          "name": "name",
          "type": "string"
        },
        {
          "internalType": "string",
          "name": "aadhar",
          "type": "string"
        },
        {
          "internalType": "uint256",
          "name": "mobno",
          "type": "uint256"
        },
        {
          "internalType": "string",
          "name": "fatherName",
          "type": "string"
        },
        {
          "internalType": "address",
          "name": "walletAddress",
          "type": "address"
        },
        {
          "internalType": "uint256",
          "name": "shgid",
          "type": "uint256"
        },
        {
          "internalType": "enum structs.UserType",
          "name": "userType",
          "type": "uint8"
        },
        {
          "internalType": "enum structs.Gender",
          "name": "gender",
          "type": "uint8"
        },
        {
          "components": [
            {
              "internalType": "string",
              "name": "state",
              "type": "string"
            },
            {
              "internalType": "string",
              "name": "district",
              "type": "string"
            },
            {
              "internalType": "string",
              "name": "blockName",
              "type": "string"
            },
            {
              "internalType": "string",
              "name": "panchyatName",
              "type": "string"
            },
            {
              "internalType": "string",
              "name": "villageName",
              "type": "string"
            }
          ],
          "internalType": "struct structs.Location",
          "name": "location",
          "type": "tuple"
        }
      ],
      "stateMutability": "view",
      "type": "function",
      "constant": true
    }
  ],
  "bytecode": "0x608060405234801561001057600080fd5b5033601260006101000a81548173ffffffffffffffffffffffffffffffffffffffff021916908373ffffffffffffffffffffffffffffffffffffffff160217905550615d1680620000626000396000f3fe6080604052600436106102505760003560e01c80634f269c9211610139578063a6e90a58116100b6578063d3f86fb81161007a578063d3f86fb81461098c578063db223b4c146109c9578063e1ec3c68146109f2578063edf5388614610a36578063f61074ff14610a73578063f736ae4314610ab057610250565b8063a6e90a5814610895578063af08a94f146108be578063b34e97e8146108fb578063bc1e72ad14610926578063cfcb4b2f1461094f57610250565b80637a646492116100fd5780637a6464921461079a5780637d550bb3146107c357806394169656146107ec57806397e492dd1461082f5780639bbc9ab11461086c57610250565b80634f269c92146106a15780635df3fc81146106ca57806361c91b70146106f557806365f88c0d14610732578063769d0e161461075d57610250565b806326271cf2116101d257806339d8bed11161019657806339d8bed1146105685780633ae0058f146105915780633c565757146105ce5780633cec42721461060b57806342f5f815146106485780634d82d8e81461066457610250565b806326271cf2146104505780632c0a90a9146104935780632e131046146104bc578063365b98b2146104e5578063368c2c531461052b57610250565b806311c988151161021957806311c988151461036257806314795ce31461038d5780631d3ff78a146103b6578063249c4bff146103f3578063257a170b1461040f57610250565b806285ae2b14610255578063021af397146102965780630227f435146102bf578063089511f7146102e85780630c1c788314610325575b600080fd5b34801561026157600080fd5b5061027c60048036038101906102779190614ce2565b610ad9565b60405161028d95949392919061539c565b60405180910390f35b3480156102a257600080fd5b506102bd60048036038101906102b89190614d83565b610c3f565b005b3480156102cb57600080fd5b506102e660048036038101906102e19190614dd2565b610e16565b005b3480156102f457600080fd5b5061030f600480360381019061030a9190614ce2565b611069565b60405161031c9190615381565b60405180910390f35b34801561033157600080fd5b5061034c60048036038101906103479190614d47565b611150565b6040516103599190615381565b60405180910390f35b34801561036e57600080fd5b50610377611181565b6040516103849190615381565b60405180910390f35b34801561039957600080fd5b506103b460048036038101906103af9190614a60565b61118b565b005b3480156103c257600080fd5b506103dd60048036038101906103d89190614ce2565b61136b565b6040516103ea9190615262565b60405180910390f35b61040d60048036038101906104089190614d83565b6113d8565b005b34801561041b57600080fd5b5061043660048036038101906104319190614ce2565b6115e1565b6040516104479594939291906155af565b60405180910390f35b34801561045c57600080fd5b5061047760048036038101906104729190614ce2565b611624565b60405161048a97969594939291906154b5565b60405180910390f35b34801561049f57600080fd5b506104ba60048036038101906104b59190614d47565b611a5a565b005b3480156104c857600080fd5b506104e360048036038101906104de9190614af3565b611bb0565b005b3480156104f157600080fd5b5061050c60048036038101906105079190614ce2565b61214e565b6040516105229a999897969594939291906153fd565b60405180910390f35b34801561053757600080fd5b50610552600480360381019061054d9190614ce2565b612658565b60405161055f9190615262565b60405180910390f35b34801561057457600080fd5b5061058f600480360381019061058a9190614d47565b6126c6565b005b34801561059d57600080fd5b506105b860048036038101906105b39190614846565b6127dc565b6040516105c59190615381565b60405180910390f35b3480156105da57600080fd5b506105f560048036038101906105f09190614d47565b6127f4565b6040516106029190615381565b60405180910390f35b34801561061757600080fd5b50610632600480360381019061062d9190614c8e565b612906565b60405161063f9190615381565b60405180910390f35b610662600480360381019061065d9190614d83565b61294d565b005b34801561067057600080fd5b5061068b60048036038101906106869190614ce2565b612a2b565b604051610698919061535f565b60405180910390f35b3480156106ad57600080fd5b506106c860048036038101906106c39190614d0b565b612c3e565b005b3480156106d657600080fd5b506106df612ca5565b6040516106ec9190615381565b60405180910390f35b34801561070157600080fd5b5061071c60048036038101906107179190614846565b612caf565b6040516107299190615381565b60405180910390f35b34801561073e57600080fd5b50610747612cc7565b6040516107549190615381565b60405180910390f35b34801561076957600080fd5b50610784600480360381019061077f9190614d47565b612cd1565b6040516107919190615381565b60405180910390f35b3480156107a657600080fd5b506107c160048036038101906107bc9190614d47565b612de4565b005b3480156107cf57600080fd5b506107ea60048036038101906107e59190614d83565b612e73565b005b3480156107f857600080fd5b50610813600480360381019061080e9190614ce2565b612f52565b6040516108269796959493929190615539565b60405180910390f35b34801561083b57600080fd5b5061085660048036038101906108519190614a1f565b613029565b6040516108639190615262565b60405180910390f35b34801561087857600080fd5b50610893600480360381019061088e9190614ce2565b61309f565b005b3480156108a157600080fd5b506108bc60048036038101906108b79190614d47565b613547565b005b3480156108ca57600080fd5b506108e560048036038101906108e09190614ce2565b6136d9565b6040516108f29190615262565b60405180910390f35b34801561090757600080fd5b50610910613747565b60405161091d9190615284565b60405180910390f35b34801561093257600080fd5b5061094d6004803603810190610948919061486f565b6137f1565b005b34801561095b57600080fd5b5061097660048036038101906109719190614ce2565b613e13565b6040516109839190615262565b60405180910390f35b34801561099857600080fd5b506109b360048036038101906109ae9190614ce2565b613ea5565b6040516109c09190615262565b60405180910390f35b3480156109d557600080fd5b506109f060048036038101906109eb9190614d83565b613f8a565b005b3480156109fe57600080fd5b50610a196004803603810190610a149190614ce2565b6140a4565b604051610a2d989796959493929190615602565b60405180910390f35b348015610a4257600080fd5b50610a5d6004803603810190610a589190614846565b6140ec565b604051610a6a9190615381565b60405180910390f35b348015610a7f57600080fd5b50610a9a6004803603810190610a959190614d47565b614104565b604051610aa79190615381565b60405180910390f35b348015610abc57600080fd5b50610ad76004803603810190610ad29190614d47565b614135565b005b6003602052806000526040600020600091509050806000015490806001018054610b0290615992565b80601f0160208091040260200160405190810160405280929190818152602001828054610b2e90615992565b8015610b7b5780601f10610b5057610100808354040283529160200191610b7b565b820191906000526020600020905b815481529060010190602001808311610b5e57829003601f168201915b5050505050908060020160009054906101000a900473ffffffffffffffffffffffffffffffffffffffff1690806003018054610bb690615992565b80601f0160208091040260200160405190810160405280929190818152602001828054610be290615992565b8015610c2f5780601f10610c0457610100808354040283529160200191610c2f565b820191906000526020600020905b815481529060010190602001808311610c1257829003601f168201915b5050505050908060040154905085565b82600060016000838152602001908152602001600020600001541415610c6457600080fd5b83600080600460003373ffffffffffffffffffffffffffffffffffffffff1673ffffffffffffffffffffffffffffffffffffffff1681526020019081526020016000205481526020019081526020016000206008015414610cc457600080fd5b6000600f6000815480929190610cd9906159f5565b9190505590506040518060a00160405280828152602001868152602001858152602001848152602001600380811115610d3b577f4e487b7100000000000000000000000000000000000000000000000000000000600052602160045260246000fd5b815250600760008381526020019081526020016000206000820151816000015560208201518160010155604082015181600201556060820151816003015560808201518160040160006101000a81548160ff02191690836003811115610dca577f4e487b7100000000000000000000000000000000000000000000000000000000600052602160045260246000fd5b021790555090505060016000868152602001908152602001600020600c018190806001815401808255809150506001900390600052602060002001600090919091909150555050505050565b6000600e60008154610e27906159f5565b9190508190559050604051806101000160405280828152602001868152602001858152602001848152602001878152602001600380811115610e92577f4e487b7100000000000000000000000000000000000000000000000000000000600052602160045260246000fd5b8152602001838152602001600067ffffffffffffffff811115610ede577f4e487b7100000000000000000000000000000000000000000000000000000000600052604160045260246000fd5b604051908082528060200260200182016040528015610f0c5781602001602082028036833780820191505090505b50815250600660008381526020019081526020016000206000820151816000015560208201518160010155604082015181600201556060820151816003019080519060200190610f5d929190614557565b506080820151816004015560a08201518160050160006101000a81548160ff02191690836003811115610fb9577f4e487b7100000000000000000000000000000000000000000000000000000000600052602160045260246000fd5b021790555060c0820151816006015560e0820151816007019080519060200190610fe49291906145dd565b5090505060008086815260200190815260200160002060070181908060018154018082558091505060019003906000526020600020016000909190919091505560016000878152602001908152602001600020600d01819080600181540180825580915050600190039060005260206000200160009091909190915055505050505050565b6000806000905060008060008581526020019081526020016000206006018054806020026020016040519081016040528092919081815260200182805480156110d157602002820191906000526020600020905b8154815260200190600101908083116110bd575b5050505050905060005b81518110156111455781818151811061111d577f4e487b7100000000000000000000000000000000000000000000000000000000600052603260045260246000fd5b6020026020010151836111309190615784565b9250808061113d906159f5565b9150506110db565b508192505050919050565b600a602052816000526040600020818154811061116c57600080fd5b90600052602060002001600091509150505481565b6000601054905090565b600060106000815461119c906159f5565b91905081905590506040518060c001604052808281526020018681526020018573ffffffffffffffffffffffffffffffffffffffff168152602001848152602001838152602001600067ffffffffffffffff811115611224577f4e487b7100000000000000000000000000000000000000000000000000000000600052604160045260246000fd5b6040519080825280602002602001820160405280156112525781602001602082028036833780820191505090505b508152506003600083815260200190815260200160002060008201518160000155602082015181600101908051906020019061128f929190614557565b5060408201518160020160006101000a81548173ffffffffffffffffffffffffffffffffffffffff021916908373ffffffffffffffffffffffffffffffffffffffff16021790555060608201518160030190805190602001906112f3929190614557565b506080820151816004015560a082015181600501908051906020019061131a9291906145dd565b50905050601054600960008673ffffffffffffffffffffffffffffffffffffffff1673ffffffffffffffffffffffffffffffffffffffff168152602001908152602001600020819055505050505050565b60606000808381526020019081526020016000206007018054806020026020016040519081016040528092919081815260200182805480156113cc57602002820191906000526020600020905b8154815260200190600101908083116113b8575b50505050509050919050565b826000600360008381526020019081526020016000206000015414156113fd57600080fd5b600060405180610100016040528060116000815461141a906159f5565b9190508190558152602001600760008781526020019081526020016000206001015481526020018481526020018681526020016003600088815260200190815260200160002060040154815260200160076000878152602001908152602001600020600301548152602001428152602001600081525090506001600060076000878152602001908152602001600020600101548152602001908152602001600020600c0160115490806001815401808255809150506001900390600052602060002001600090919091909150553073ffffffffffffffffffffffffffffffffffffffff166108fc849081150290604051600060405180830381858888f1935050505015801561152d573d6000803e3d6000fd5b50826001600060076000888152602001908152602001600020600101548152602001908152602001600020600901600082825461156a9190615784565b9250508190555080600560006011548152602001908152602001600020600082015181600001556020820151816001015560408201518160020155606082015181600301556080820151816004015560a0820151816005015560c0820151816006015560e082015181600701559050505050505050565b60076020528060005260406000206000915090508060000154908060010154908060020154908060030154908060040160009054906101000a900460ff16905085565b600160205280600052604060002060009150905080600001549080600201805461164d90615992565b80601f016020809104026020016040519081016040528092919081815260200182805461167990615992565b80156116c65780601f1061169b576101008083540402835291602001916116c6565b820191906000526020600020905b8154815290600101906020018083116116a957829003601f168201915b505050505090806003016040518060a00160405290816000820180546116eb90615992565b80601f016020809104026020016040519081016040528092919081815260200182805461171790615992565b80156117645780601f1061173957610100808354040283529160200191611764565b820191906000526020600020905b81548152906001019060200180831161174757829003601f168201915b5050505050815260200160018201805461177d90615992565b80601f01602080910402602001604051908101604052809291908181526020018280546117a990615992565b80156117f65780601f106117cb576101008083540402835291602001916117f6565b820191906000526020600020905b8154815290600101906020018083116117d957829003601f168201915b5050505050815260200160028201805461180f90615992565b80601f016020809104026020016040519081016040528092919081815260200182805461183b90615992565b80156118885780601f1061185d57610100808354040283529160200191611888565b820191906000526020600020905b81548152906001019060200180831161186b57829003601f168201915b505050505081526020016003820180546118a190615992565b80601f01602080910402602001604051908101604052809291908181526020018280546118cd90615992565b801561191a5780601f106118ef5761010080835404028352916020019161191a565b820191906000526020600020905b8154815290600101906020018083116118fd57829003601f168201915b5050505050815260200160048201805461193390615992565b80601f016020809104026020016040519081016040528092919081815260200182805461195f90615992565b80156119ac5780601f10611981576101008083540402835291602001916119ac565b820191906000526020600020905b81548152906001019060200180831161198f57829003601f168201915b505050505081525050908060080180546119c590615992565b80601f01602080910402602001604051908101604052809291908181526020018280546119f190615992565b8015611a3e5780601f10611a1357610100808354040283529160200191611a3e565b820191906000526020600020905b815481529060010190602001808311611a2157829003601f168201915b50505050509080600901549080600a01549080600e0154905087565b80600060016000838152602001908152602001600020600001541415611a7f57600080fd5b600060066000858152602001908152602001600020905082816004015414611aa657600080fd5b611aaf8461423f565b611ab857600080fd5b80600701600460003373ffffffffffffffffffffffffffffffffffffffff1673ffffffffffffffffffffffffffffffffffffffff16815260200190815260200160002054908060018154018082558091505060019003906000526020600020016000909190919091505560026001600085815260200190815260200160002060010180549050611b4891906157da565b81600701805490501115611baa5760008160050160006101000a81548160ff02191690836003811115611ba4577f4e487b7100000000000000000000000000000000000000000000000000000000600052602160045260246000fd5b02179055505b50505050565b3373ffffffffffffffffffffffffffffffffffffffff16600080600460003373ffffffffffffffffffffffffffffffffffffffff1673ffffffffffffffffffffffffffffffffffffffff16815260200190815260200160002054815260200190815260200160002060050160009054906101000a900473ffffffffffffffffffffffffffffffffffffffff1673ffffffffffffffffffffffffffffffffffffffff161415611c93576040517f08c379a0000000000000000000000000000000000000000000000000000000008152600401611c8a906152bf565b60405180910390fd5b6000600c60008154611ca4906159f5565b919050819055905080600460003373ffffffffffffffffffffffffffffffffffffffff1673ffffffffffffffffffffffffffffffffffffffff1681526020019081526020016000208190555060006040518060a00160405280888152602001878152602001868152602001858152602001848152509050604051806101800160405280600c6000815480929190611d3a906159f5565b9190505581526020018d81526020018c81526020018b81526020018a81526020013373ffffffffffffffffffffffffffffffffffffffff168152602001600067ffffffffffffffff811115611db8577f4e487b7100000000000000000000000000000000000000000000000000000000600052604160045260246000fd5b604051908082528060200260200182016040528015611de65781602001602082028036833780820191505090505b508152602001600067ffffffffffffffff811115611e2d577f4e487b7100000000000000000000000000000000000000000000000000000000600052604160045260246000fd5b604051908082528060200260200182016040528015611e5b5781602001602082028036833780820191505090505b5081526020016000815260200160046005811115611ea2577f4e487b7100000000000000000000000000000000000000000000000000000000600052602160045260246000fd5b8152602001896002811115611ee0577f4e487b7100000000000000000000000000000000000000000000000000000000600052602160045260246000fd5b815260200182815250600080848152602001908152602001600020600082015181600001556020820151816001019080519060200190611f21929190614557565b506040820151816002019080519060200190611f3e929190614557565b50606082015181600301556080820151816004019080519060200190611f65929190614557565b5060a08201518160050160006101000a81548173ffffffffffffffffffffffffffffffffffffffff021916908373ffffffffffffffffffffffffffffffffffffffff16021790555060c0820151816006019080519060200190611fc99291906145dd565b5060e0820151816007019080519060200190611fe69291906145dd565b5061010082015181600801556101208201518160090160006101000a81548160ff02191690836005811115612044577f4e487b7100000000000000000000000000000000000000000000000000000000600052602160045260246000fd5b02179055506101408201518160090160016101000a81548160ff0219169083600281111561209b577f4e487b7100000000000000000000000000000000000000000000000000000000600052602160045260246000fd5b021790555061016082015181600a0160008201518160000190805190602001906120c6929190614557565b5060208201518160010190805190602001906120e3929190614557565b506040820151816002019080519060200190612100929190614557565b50606082015181600301908051906020019061211d929190614557565b50608082015181600401908051906020019061213a929190614557565b505050905050505050505050505050505050565b600060205280600052604060002060009150905080600001549080600101805461217790615992565b80601f01602080910402602001604051908101604052809291908181526020018280546121a390615992565b80156121f05780601f106121c5576101008083540402835291602001916121f0565b820191906000526020600020905b8154815290600101906020018083116121d357829003601f168201915b50505050509080600201805461220590615992565b80601f016020809104026020016040519081016040528092919081815260200182805461223190615992565b801561227e5780601f106122535761010080835404028352916020019161227e565b820191906000526020600020905b81548152906001019060200180831161226157829003601f168201915b50505050509080600301549080600401805461229990615992565b80601f01602080910402602001604051908101604052809291908181526020018280546122c590615992565b80156123125780601f106122e757610100808354040283529160200191612312565b820191906000526020600020905b8154815290600101906020018083116122f557829003601f168201915b5050505050908060050160009054906101000a900473ffffffffffffffffffffffffffffffffffffffff16908060080154908060090160009054906101000a900460ff16908060090160019054906101000a900460ff169080600a016040518060a001604052908160008201805461238990615992565b80601f01602080910402602001604051908101604052809291908181526020018280546123b590615992565b80156124025780601f106123d757610100808354040283529160200191612402565b820191906000526020600020905b8154815290600101906020018083116123e557829003601f168201915b5050505050815260200160018201805461241b90615992565b80601f016020809104026020016040519081016040528092919081815260200182805461244790615992565b80156124945780601f1061246957610100808354040283529160200191612494565b820191906000526020600020905b81548152906001019060200180831161247757829003601f168201915b505050505081526020016002820180546124ad90615992565b80601f01602080910402602001604051908101604052809291908181526020018280546124d990615992565b80156125265780601f106124fb57610100808354040283529160200191612526565b820191906000526020600020905b81548152906001019060200180831161250957829003601f168201915b5050505050815260200160038201805461253f90615992565b80601f016020809104026020016040519081016040528092919081815260200182805461256b90615992565b80156125b85780601f1061258d576101008083540402835291602001916125b8565b820191906000526020600020905b81548152906001019060200180831161259b57829003601f168201915b505050505081526020016004820180546125d190615992565b80601f01602080910402602001604051908101604052809291908181526020018280546125fd90615992565b801561264a5780601f1061261f5761010080835404028352916020019161264a565b820191906000526020600020905b81548152906001019060200180831161262d57829003601f168201915b50505050508152505090508a565b606060016000838152602001908152602001600020600d018054806020026020016040519081016040528092919081815260200182805480156126ba57602002820191906000526020600020905b8154815260200190600101908083116126a6575b50505050509050919050565b80600080848152602001908152602001600020600801541461271d576040517f08c379a0000000000000000000000000000000000000000000000000000000008152600401612714906152ff565b60405180910390fd5b8060008084815260200190815260200160002060080181905550600360008084815260200190815260200160002060090160006101000a81548160ff02191690836005811115612796577f4e487b7100000000000000000000000000000000000000000000000000000000600052602160045260246000fd5b0217905550600160008281526020019081526020016000206001018290806001815401808255809150506001900390600052602060002001600090919091909150555050565b60086020528060005260406000206000915090505481565b600082600080600083815260200190815260200160002060000154141561281a57600080fd5b60006005600085815260200190815260200160002090506000601e603c80601885600701544261284a9190615865565b61285491906157da565b61285e919061580b565b612868919061580b565b612872919061580b565b90506000811161288157600080fd5b600082600201549050600083600401549050600084600501549050600081600c6128ab919061580b565b600c6064856128ba91906157da565b6128c4919061580b565b60016128d09190615784565b856128db919061580b565b1890508086600201546128ee9190615865565b86600201819055508097505050505050505092915050565b600282805160208101820180518482526020830160208501208183528095505050505050818154811061293857600080fd5b90600052602060002001600091509150505481565b82600080600083815260200190815260200160002060000154141561297157600080fd5b600061297d85856127f4565b905082811461298b57600080fd5b60006005600086815260200190815260200160002090503073ffffffffffffffffffffffffffffffffffffffff166108fc859081150290604051600060405180830381858888f193505050501580156129e8573d6000803e3d6000fd5b508360016000836003015481526020019081526020016000206009016000828254612a139190615784565b92505081905550428160070181905550505050505050565b612a3361462a565b600360008381526020019081526020016000206040518060c001604052908160008201548152602001600182018054612a6b90615992565b80601f0160208091040260200160405190810160405280929190818152602001828054612a9790615992565b8015612ae45780601f10612ab957610100808354040283529160200191612ae4565b820191906000526020600020905b815481529060010190602001808311612ac757829003601f168201915b505050505081526020016002820160009054906101000a900473ffffffffffffffffffffffffffffffffffffffff1673ffffffffffffffffffffffffffffffffffffffff1673ffffffffffffffffffffffffffffffffffffffff168152602001600382018054612b5390615992565b80601f0160208091040260200160405190810160405280929190818152602001828054612b7f90615992565b8015612bcc5780601f10612ba157610100808354040283529160200191612bcc565b820191906000526020600020905b815481529060010190602001808311612baf57829003601f168201915b505050505081526020016004820154815260200160058201805480602002602001604051908101604052809291908181526020018280548015612c2e57602002820191906000526020600020905b815481526020019060010190808311612c1a575b5050505050815250509050919050565b8060008084815260200190815260200160002060090160006101000a81548160ff02191690836005811115612c9c577f4e487b7100000000000000000000000000000000000000000000000000000000600052602160045260246000fd5b02179055505050565b6000600d54905090565b60096020528060005260406000206000915090505481565b6000600c54905090565b600082600060016000838152602001908152602001600020600001541415612cf857600080fd5b60006005600085815260200190815260200160002090506000601e603c806018856007015442612d289190615865565b612d3291906157da565b612d3c919061580b565b612d46919061580b565b612d50919061580b565b905060008111612d5f57600080fd5b600082600201549050600083600401549050600084600501549050600081600c612d89919061580b565b600c606485612d9891906157da565b612da2919061580b565b6001612dae9190615784565b85612db9919061580b565b189050808660020154612dcc9190615865565b86600201819055508097505050505050505092915050565b80600060036000838152602001908152602001600020600001541415612e0957600080fd5b60006007600085815260200190815260200160002060040160006101000a81548160ff02191690836003811115612e69577f4e487b7100000000000000000000000000000000000000000000000000000000600052602160045260246000fd5b0217905550505050565b82600060016000838152602001908152602001600020600001541415612e9857600080fd5b6000612ea48585612cd1565b9050828114612eb257600080fd5b60006005600086815260200190815260200160002090503073ffffffffffffffffffffffffffffffffffffffff166108fc859081150290604051600060405180830381858888f19350505050158015612f0f573d6000803e3d6000fd5b508360016000836003015481526020019081526020016000206009016000828254612f3a9190615784565b92505081905550428160070181905550505050505050565b6006602052806000526040600020600091509050806000015490806001015490806002015490806003018054612f8790615992565b80601f0160208091040260200160405190810160405280929190818152602001828054612fb390615992565b80156130005780601f10612fd557610100808354040283529160200191613000565b820191906000526020600020905b815481529060010190602001808311612fe357829003601f168201915b5050505050908060040154908060050160009054906101000a900460ff16908060060154905087565b606060028260405161303b919061524b565b908152602001604051809103902080548060200260200160405190810160405280929190818152602001828054801561309357602002820191906000526020600020905b81548152602001906001019080831161307f575b50505050509050919050565b600260058111156130d9577f4e487b7100000000000000000000000000000000000000000000000000000000600052602160045260246000fd5b600080600460003373ffffffffffffffffffffffffffffffffffffffff1673ffffffffffffffffffffffffffffffffffffffff16815260200190815260200160002054815260200190815260200160002060090160009054906101000a900460ff166005811115613173577f4e487b7100000000000000000000000000000000000000000000000000000000600052602160045260246000fd5b146131b3576040517f08c379a00000000000000000000000000000000000000000000000000000000081526004016131aa9061533f565b60405180910390fd5b600060038111156131ed577f4e487b7100000000000000000000000000000000000000000000000000000000600052602160045260246000fd5b6006600083815260200190815260200160002060050160009054906101000a900460ff166003811115613249577f4e487b7100000000000000000000000000000000000000000000000000000000600052602160045260246000fd5b14613289576040517f08c379a00000000000000000000000000000000000000000000000000000000081526004016132809061531f565b60405180910390fd5b600060066000838152602001908152602001600020905060018160050160006101000a81548160ff021916908360038111156132ee577f4e487b7100000000000000000000000000000000000000000000000000000000600052602160045260246000fd5b02179055506000604051806101000160405280601160008154613310906159f5565b91905081905581526020018360040154815260200183600201548152602001836001015481526020016001600085600401548152602001908152602001600020600e01548152602001836006015481526020014281526020016000815250905080600560006011548152602001908152602001600020600082015181600001556020820151816001015560408201518160020155606082015181600301556080820151816004015560a0820151816005015560c0820151816006015560e082015181600701559050506001600083600401548152602001908152602001600020600b0160115490806001815401808255809150506001900390600052602060002001600090919091909150556000808360010154815260200190815260200160002060060160115490806001815401808255809150506001900390600052602060002001600090919091909150558160020154600160008460040154815260200190815260200160002060090154101561348957600080fd5b6000808360010154815260200190815260200160002060050160009054906101000a900473ffffffffffffffffffffffffffffffffffffffff1673ffffffffffffffffffffffffffffffffffffffff166108fc83600201549081150290604051600060405180830381858888f1935050505015801561350c573d6000803e3d6000fd5b5081600201546001600084600401548152602001908152602001600020600901600082825461353b9190615865565b92505081905550505050565b60006001600083815260200190815260200160002090506135ba816001018054806020026020016040519081016040528092919081815260200182805480156135af57602002820191906000526020600020905b81548152602001906001019080831161359b575b50505050508361431d565b6135f9576040517f08c379a00000000000000000000000000000000000000000000000000000000081526004016135f0906152df565b60405180910390fd5b60006136578260010180548060200260200160405190810160405280929190818152602001828054801561364c57602002820191906000526020600020905b815481526020019060010190808311613638575b5050505050856143ab565b905060006136b7836001018054806020026020016040519081016040528092919081815260200182805480156136ac57602002820191906000526020600020905b815481526020019060010190808311613698575b50505050508361442c565b9050808360010190805190602001906136d19291906145dd565b505050505050565b60606001600083815260200190815260200160002060010180548060200260200160405190810160405280929190818152602001828054801561373b57602002820191906000526020600020905b815481526020019060010190808311613727575b50505050509050919050565b60003373ffffffffffffffffffffffffffffffffffffffff16600080600460003373ffffffffffffffffffffffffffffffffffffffff1673ffffffffffffffffffffffffffffffffffffffff16815260200190815260200160002054815260200190815260200160002060050160009054906101000a900473ffffffffffffffffffffffffffffffffffffffff1673ffffffffffffffffffffffffffffffffffffffff1614905090565b60078b511015613836576040517f08c379a000000000000000000000000000000000000000000000000000000000815260040161382d9061529f565b60405180910390fd5b6000600d60008154613847906159f5565b919050819055905060006040518060a001604052808a81526020018981526020018881526020018781526020018681525090506040518061016001604052808381526020018e81526020018b81526020018281526020018581526020016000815260200160008152602001600067ffffffffffffffff8111156138f3577f4e487b7100000000000000000000000000000000000000000000000000000000600052604160045260246000fd5b6040519080825280602002602001820160405280156139215781602001602082028036833780820191505090505b508152602001600067ffffffffffffffff811115613968577f4e487b7100000000000000000000000000000000000000000000000000000000600052604160045260246000fd5b6040519080825280602002602001820160405280156139965781602001602082028036833780820191505090505b508152602001600067ffffffffffffffff8111156139dd577f4e487b7100000000000000000000000000000000000000000000000000000000600052604160045260246000fd5b604051908082528060200260200182016040528015613a0b5781602001602082028036833780820191505090505b5081526020018481525060016000848152602001908152602001600020600082015181600001556020820151816001019080519060200190613a4e9291906145dd565b506040820151816002019080519060200190613a6b929190614557565b506060820151816003016000820151816000019080519060200190613a91929190614557565b506020820151816001019080519060200190613aae929190614557565b506040820151816002019080519060200190613acb929190614557565b506060820151816003019080519060200190613ae8929190614557565b506080820151816004019080519060200190613b05929190614557565b5050506080820151816008019080519060200190613b24929190614557565b5060a0820151816009015560c082015181600a015560e082015181600b019080519060200190613b559291906145dd565b5061010082015181600c019080519060200190613b739291906145dd565b5061012082015181600d019080519060200190613b919291906145dd565b5061014082015181600e015590505060005b8d51811015613dbe5760008e8281518110613be7577f4e487b7100000000000000000000000000000000000000000000000000000000600052603260045260246000fd5b60200260200101519050600360008083815260200190815260200160002060090160006101000a81548160ff02191690836005811115613c50577f4e487b7100000000000000000000000000000000000000000000000000000000600052602160045260246000fd5b02179055508d811415613cc257600080600083815260200190815260200160002060090160006101000a81548160ff02191690836005811115613cbc577f4e487b7100000000000000000000000000000000000000000000000000000000600052602160045260246000fd5b02179055505b8c811415613d2f57600260008083815260200190815260200160002060090160006101000a81548160ff02191690836005811115613d29577f4e487b7100000000000000000000000000000000000000000000000000000000600052602160045260246000fd5b02179055505b600d546008600080600085815260200190815260200160002060050160009054906101000a900473ffffffffffffffffffffffffffffffffffffffff1673ffffffffffffffffffffffffffffffffffffffff1673ffffffffffffffffffffffffffffffffffffffff16815260200190815260200160002081905550508080613db6906159f5565b915050613ba3565b50600288604051613dcf919061524b565b908152602001604051809103902082908060018154018082558091505060019003906000526020600020016000909190919091505550505050505050505050505050565b6060816000806000838152602001908152602001600020600001541415613e3957600080fd5b600080848152602001908152602001600020600601805480602002602001604051908101604052809291908181526020018280548015613e9857602002820191906000526020600020905b815481526020019060010190808311613e84575b5050505050915050919050565b606060005b600f54811015613f20578260076000838152602001908152602001600020600101541415613f0d57600b60008481526020019081526020016000208190806001815401808255809150506001900390600052602060002001600090919091909150555b8080613f18906159f5565b915050613eaa565b50600b6000838152602001908152602001600020805480602002602001604051908101604052809291908181526020018280548015613f7e57602002820191906000526020600020905b815481526020019060010190808311613f6a575b50505050509050919050565b81600060036000838152602001908152602001600020600001541415613faf57600080fd5b3073ffffffffffffffffffffffffffffffffffffffff166108fc839081150290604051600060405180830381858888f19350505050158015613ff5573d6000803e3d6000fd5b5060016007600086815260200190815260200160002060040160006101000a81548160ff02191690836003811115614056577f4e487b7100000000000000000000000000000000000000000000000000000000600052602160045260246000fd5b021790555081600160006007600088815260200190815260200160002060010154815260200190815260200160002060090160008282546140979190615784565b9250508190555050505050565b60056020528060005260406000206000915090508060000154908060010154908060020154908060030154908060040154908060050154908060060154908060070154905088565b60046020528060005260406000206000915090505481565b600b602052816000526040600020818154811061412057600080fd5b90600052602060002001600091509150505481565b81600080600083815260200190815260200160002060000154141561415957600080fd5b8260066000848152602001908152602001600020600101541461417b57600080fd5b600080600090505b600e548110156141c65784600660008381526020019081526020016000206001015414156141b3578091506141c6565b80806141be906159f5565b915050614183565b5060066000828152602001908152602001600020600080820160009055600182016000905560028201600090556003820160006142039190614676565b60048201600090556005820160006101000a81549060ff0219169055600682016000905560078201600061423791906146b6565b505050505050565b60008060066000848152602001908152602001600020600701905060005b818054905081101561431157600460003373ffffffffffffffffffffffffffffffffffffffff1673ffffffffffffffffffffffffffffffffffffffff168152602001908152602001600020548282815481106142e2577f4e487b7100000000000000000000000000000000000000000000000000000000600052603260045260246000fd5b906000526020600020015414156142fe57600092505050614318565b8080614309906159f5565b91505061425d565b5060019150505b919050565b600080600090505b600184516143339190615865565b81101561439f5782848281518110614374577f4e487b7100000000000000000000000000000000000000000000000000000000600052603260045260246000fd5b6020026020010151141561438c5760019150506143a5565b8080614397906159f5565b915050614325565b50600090505b92915050565b600080600090505b835181101561442057828482815181106143f6577f4e487b7100000000000000000000000000000000000000000000000000000000600052603260045260246000fd5b6020026020010151141561440d5780915050614426565b8080614418906159f5565b9150506143b3565b50600090505b92915050565b60608251821061443b57600080fd5b60008290505b6001845161444f9190615865565b8110156144fb57836001826144649190615784565b8151811061449b577f4e487b7100000000000000000000000000000000000000000000000000000000600052603260045260246000fd5b60200260200101518482815181106144dc577f4e487b7100000000000000000000000000000000000000000000000000000000600052603260045260246000fd5b60200260200101818152505080806144f3906159f5565b915050614441565b50826001845161450b9190615865565b81518110614542577f4e487b7100000000000000000000000000000000000000000000000000000000600052603260045260246000fd5b60200260200101600081525082905092915050565b82805461456390615992565b90600052602060002090601f01602090048101928261458557600085556145cc565b82601f1061459e57805160ff19168380011785556145cc565b828001600101855582156145cc579182015b828111156145cb5782518255916020019190600101906145b0565b5b5090506145d991906146d7565b5090565b828054828255906000526020600020908101928215614619579160200282015b828111156146185782518255916020019190600101906145fd565b5b50905061462691906146d7565b5090565b6040518060c001604052806000815260200160608152602001600073ffffffffffffffffffffffffffffffffffffffff1681526020016060815260200160008152602001606081525090565b50805461468290615992565b6000825580601f1061469457506146b3565b601f0160209004906000526020600020908101906146b291906146d7565b5b50565b50805460008255906000526020600020908101906146d491906146d7565b50565b5b808211156146f05760008160009055506001016146d8565b5090565b6000614707614702846156a5565b615680565b9050808382526020820190508285602086028201111561472657600080fd5b60005b85811015614756578161473c8882614831565b845260208401935060208301925050600181019050614729565b5050509392505050565b600061477361476e846156d1565b615680565b90508281526020810184848401111561478b57600080fd5b614796848285615950565b509392505050565b6000813590506147ad81615c92565b92915050565b600082601f8301126147c457600080fd5b81356147d48482602086016146f4565b91505092915050565b6000813590506147ec81615ca9565b92915050565b60008135905061480181615cb9565b92915050565b600082601f83011261481857600080fd5b8135614828848260208601614760565b91505092915050565b60008135905061484081615cc9565b92915050565b60006020828403121561485857600080fd5b60006148668482850161479e565b91505092915050565b60008060008060008060008060008060006101608c8e03121561489157600080fd5b60008c013567ffffffffffffffff8111156148ab57600080fd5b6148b78e828f016147b3565b9b505060206148c88e828f01614831565b9a505060406148d98e828f01614831565b99505060608c013567ffffffffffffffff8111156148f657600080fd5b6149028e828f01614807565b98505060808c013567ffffffffffffffff81111561491f57600080fd5b61492b8e828f01614807565b97505060a08c013567ffffffffffffffff81111561494857600080fd5b6149548e828f01614807565b96505060c08c013567ffffffffffffffff81111561497157600080fd5b61497d8e828f01614807565b95505060e08c013567ffffffffffffffff81111561499a57600080fd5b6149a68e828f01614807565b9450506101008c013567ffffffffffffffff8111156149c457600080fd5b6149d08e828f01614807565b9350506101208c013567ffffffffffffffff8111156149ee57600080fd5b6149fa8e828f01614807565b925050610140614a0c8e828f01614831565b9150509295989b509295989b9093969950565b600060208284031215614a3157600080fd5b600082013567ffffffffffffffff811115614a4b57600080fd5b614a5784828501614807565b91505092915050565b60008060008060808587031215614a7657600080fd5b600085013567ffffffffffffffff811115614a9057600080fd5b614a9c87828801614807565b9450506020614aad8782880161479e565b935050604085013567ffffffffffffffff811115614aca57600080fd5b614ad687828801614807565b9250506060614ae787828801614831565b91505092959194509250565b6000806000806000806000806000806101408b8d031215614b1357600080fd5b60008b013567ffffffffffffffff811115614b2d57600080fd5b614b398d828e01614807565b9a505060208b013567ffffffffffffffff811115614b5657600080fd5b614b628d828e01614807565b9950506040614b738d828e01614831565b98505060608b013567ffffffffffffffff811115614b9057600080fd5b614b9c8d828e01614807565b9750506080614bad8d828e016147dd565b96505060a08b013567ffffffffffffffff811115614bca57600080fd5b614bd68d828e01614807565b95505060c08b013567ffffffffffffffff811115614bf357600080fd5b614bff8d828e01614807565b94505060e08b013567ffffffffffffffff811115614c1c57600080fd5b614c288d828e01614807565b9350506101008b013567ffffffffffffffff811115614c4657600080fd5b614c528d828e01614807565b9250506101208b013567ffffffffffffffff811115614c7057600080fd5b614c7c8d828e01614807565b9150509295989b9194979a5092959850565b60008060408385031215614ca157600080fd5b600083013567ffffffffffffffff811115614cbb57600080fd5b614cc785828601614807565b9250506020614cd885828601614831565b9150509250929050565b600060208284031215614cf457600080fd5b6000614d0284828501614831565b91505092915050565b60008060408385031215614d1e57600080fd5b6000614d2c85828601614831565b9250506020614d3d858286016147f2565b9150509250929050565b60008060408385031215614d5a57600080fd5b6000614d6885828601614831565b9250506020614d7985828601614831565b9150509250929050565b600080600060608486031215614d9857600080fd5b6000614da686828701614831565b9350506020614db786828701614831565b9250506040614dc886828701614831565b9150509250925092565b600080600080600060a08688031215614dea57600080fd5b6000614df888828901614831565b9550506020614e0988828901614831565b9450506040614e1a88828901614831565b935050606086013567ffffffffffffffff811115614e3757600080fd5b614e4388828901614807565b9250506080614e5488828901614831565b9150509295509295909350565b6000614e6d838361522d565b60208301905092915050565b614e8281615899565b82525050565b614e9181615899565b82525050565b6000614ea282615712565b614eac8185615735565b9350614eb783615702565b8060005b83811015614ee8578151614ecf8882614e61565b9750614eda83615728565b925050600181019050614ebb565b5085935050505092915050565b6000614f0082615712565b614f0a8185615746565b9350614f1583615702565b8060005b83811015614f46578151614f2d8882614e61565b9750614f3883615728565b925050600181019050614f19565b5085935050505092915050565b614f5c816158ab565b82525050565b614f6b8161591a565b82525050565b614f7a8161592c565b82525050565b614f898161593e565b82525050565b6000614f9a8261571d565b614fa48185615757565b9350614fb481856020860161595f565b614fbd81615b29565b840191505092915050565b6000614fd38261571d565b614fdd8185615768565b9350614fed81856020860161595f565b614ff681615b29565b840191505092915050565b600061500c8261571d565b6150168185615779565b935061502681856020860161595f565b80840191505092915050565b600061503f601a83615768565b915061504a82615b3a565b602082019050919050565b6000615062601283615768565b915061506d82615b63565b602082019050919050565b6000615085602583615768565b915061509082615b8c565b604082019050919050565b60006150a8601283615768565b91506150b382615bdb565b602082019050919050565b60006150cb601283615768565b91506150d682615c04565b602082019050919050565b60006150ee601383615768565b91506150f982615c2d565b602082019050919050565b600060c08301600083015161511c600086018261522d565b50602083015184820360208601526151348282614f8f565b91505060408301516151496040860182614e79565b50606083015184820360608601526151618282614f8f565b9150506080830151615176608086018261522d565b5060a083015184820360a086015261518e8282614e97565b9150508091505092915050565b600060a08301600083015184820360008601526151b88282614f8f565b915050602083015184820360208601526151d28282614f8f565b915050604083015184820360408601526151ec8282614f8f565b915050606083015184820360608601526152068282614f8f565b915050608083015184820360808601526152208282614f8f565b9150508091505092915050565b61523681615910565b82525050565b61524581615910565b82525050565b60006152578284615001565b915081905092915050565b6000602082019050818103600083015261527c8184614ef5565b905092915050565b60006020820190506152996000830184614f53565b92915050565b600060208201905081810360008301526152b881615032565b9050919050565b600060208201905081810360008301526152d881615055565b9050919050565b600060208201905081810360008301526152f881615078565b9050919050565b600060208201905081810360008301526153188161509b565b9050919050565b60006020820190508181036000830152615338816150be565b9050919050565b60006020820190508181036000830152615358816150e1565b9050919050565b600060208201905081810360008301526153798184615104565b905092915050565b6000602082019050615396600083018461523c565b92915050565b600060a0820190506153b1600083018861523c565b81810360208301526153c38187614fc8565b90506153d26040830186614e88565b81810360608301526153e48185614fc8565b90506153f3608083018461523c565b9695505050505050565b600061014082019050615413600083018d61523c565b8181036020830152615425818c614fc8565b90508181036040830152615439818b614fc8565b9050615448606083018a61523c565b818103608083015261545a8189614fc8565b905061546960a0830188614e88565b61547660c083018761523c565b61548360e0830186614f80565b615491610100830185614f62565b8181036101208301526154a4818461519b565b90509b9a5050505050505050505050565b600060e0820190506154ca600083018a61523c565b81810360208301526154dc8189614fc8565b905081810360408301526154f0818861519b565b905081810360608301526155048187614fc8565b9050615513608083018661523c565b61552060a083018561523c565b61552d60c083018461523c565b98975050505050505050565b600060e08201905061554e600083018a61523c565b61555b602083018961523c565b615568604083018861523c565b818103606083015261557a8187614fc8565b9050615589608083018661523c565b61559660a0830185614f71565b6155a360c083018461523c565b98975050505050505050565b600060a0820190506155c4600083018861523c565b6155d1602083018761523c565b6155de604083018661523c565b6155eb606083018561523c565b6155f86080830184614f71565b9695505050505050565b600061010082019050615618600083018b61523c565b615625602083018a61523c565b615632604083018961523c565b61563f606083018861523c565b61564c608083018761523c565b61565960a083018661523c565b61566660c083018561523c565b61567360e083018461523c565b9998505050505050505050565b600061568a61569b565b905061569682826159c4565b919050565b6000604051905090565b600067ffffffffffffffff8211156156c0576156bf615afa565b5b602082029050602081019050919050565b600067ffffffffffffffff8211156156ec576156eb615afa565b5b6156f582615b29565b9050602081019050919050565b6000819050602082019050919050565b600081519050919050565b600081519050919050565b6000602082019050919050565b600082825260208201905092915050565b600082825260208201905092915050565b600082825260208201905092915050565b600082825260208201905092915050565b600081905092915050565b600061578f82615910565b915061579a83615910565b9250827fffffffffffffffffffffffffffffffffffffffffffffffffffffffffffffffff038211156157cf576157ce615a3e565b5b828201905092915050565b60006157e582615910565b91506157f083615910565b925082615800576157ff615a6d565b5b828204905092915050565b600061581682615910565b915061582183615910565b9250817fffffffffffffffffffffffffffffffffffffffffffffffffffffffffffffffff048311821515161561585a57615859615a3e565b5b828202905092915050565b600061587082615910565b915061587b83615910565b92508282101561588e5761588d615a3e565b5b828203905092915050565b60006158a4826158f0565b9050919050565b60008115159050919050565b60008190506158c582615c56565b919050565b60008190506158d882615c6a565b919050565b60008190506158eb82615c7e565b919050565b600073ffffffffffffffffffffffffffffffffffffffff82169050919050565b6000819050919050565b6000615925826158b7565b9050919050565b6000615937826158ca565b9050919050565b6000615949826158dd565b9050919050565b82818337600083830152505050565b60005b8381101561597d578082015181840152602081019050615962565b8381111561598c576000848401525b50505050565b600060028204905060018216806159aa57607f821691505b602082108114156159be576159bd615acb565b5b50919050565b6159cd82615b29565b810181811067ffffffffffffffff821117156159ec576159eb615afa565b5b80604052505050565b6000615a0082615910565b91507fffffffffffffffffffffffffffffffffffffffffffffffffffffffffffffffff821415615a3357615a32615a3e565b5b600182019050919050565b7f4e487b7100000000000000000000000000000000000000000000000000000000600052601160045260246000fd5b7f4e487b7100000000000000000000000000000000000000000000000000000000600052601260045260246000fd5b7f4e487b7100000000000000000000000000000000000000000000000000000000600052602160045260246000fd5b7f4e487b7100000000000000000000000000000000000000000000000000000000600052602260045260246000fd5b7f4e487b7100000000000000000000000000000000000000000000000000000000600052604160045260246000fd5b6000601f19601f8301169050919050565b7f41746c656173742037206d656d62657273207265717569726564000000000000600082015250565b7f416c726561647920526567697374657265640000000000000000000000000000600082015250565b7f5573657220697320616c7265616479206e6f7420612070617274206f6620746860008201527f6520534847000000000000000000000000000000000000000000000000000000602082015250565b7f5573657220616c72656164792061646465640000000000000000000000000000600082015250565b7f556e617070726f76656420726571756573740000000000000000000000000000600082015250565b7f556e617574686f72697a65642072657165737400000000000000000000000000600082015250565b60038110615c6757615c66615a9c565b5b50565b60048110615c7b57615c7a615a9c565b5b50565b60068110615c8f57615c8e615a9c565b5b50565b615c9b81615899565b8114615ca657600080fd5b50565b60038110615cb657600080fd5b50565b60068110615cc657600080fd5b50565b615cd281615910565b8114615cdd57600080fd5b5056fea2646970667358221220ded2c7be57a898603dfb886746925f7c34818ad8c4020c171dd3167b55c8efed64736f6c63430008040033",
  "immutableReferences": {},
  "source": "// SPDX-License-Identifier: MIT\npragma solidity ^0.8.1;\nimport \"./lib/Bank.sol\";\nimport \"./lib/SHG.sol\";\nimport \"./lib/User.sol\";\n\ncontract Yogdaan is Bank, SHG, User {\n    address admin;\n\n    constructor() {\n        admin = msg.sender;\n    }\n}\n",
  "sourcePath": "/home/sdas/code/yogdaan-contracts/contracts/yogdaan.sol",
  "compiler": {
    "name": "solc",
    "version": "0.8.4+commit.c7e474f2.Emscripten.clang"
  },
  "schemaVersion": "3.4.9",
  "updatedAt": "2022-08-26T03:01:18.064Z",
  "networkType": "ethereum",
  "devdoc": {
    "kind": "dev",
    "methods": {},
    "version": 1
  },
  "userdoc": {
    "kind": "user",
    "methods": {},
    "version": 1
  }
}