{
  "contractName": "Yogdaan",
  "abi": [
    {
      "inputs": [],
      "stateMutability": "nonpayable",
      "type": "constructor"
    },
    {
      "inputs": [
        {
          "internalType": "string",
          "name": "_name",
          "type": "string"
        },
        {
          "internalType": "address",
          "name": "_walletAddress",
          "type": "address"
        },
        {
          "internalType": "string",
          "name": "_code",
          "type": "string"
        },
        {
          "internalType": "uint256",
          "name": "_intrestRate",
          "type": "uint256"
        }
      ],
      "name": "addBank",
      "outputs": [],
      "stateMutability": "nonpayable",
      "type": "function"
    },
    {
      "inputs": [
        {
          "internalType": "uint256[]",
          "name": "members",
          "type": "uint256[]"
        },
        {
          "internalType": "uint256",
          "name": "president",
          "type": "uint256"
        },
        {
          "internalType": "uint256",
          "name": "treasurer",
          "type": "uint256"
        },
        {
          "internalType": "string",
          "name": "name",
          "type": "string"
        },
        {
          "internalType": "string",
          "name": "_state",
          "type": "string"
        },
        {
          "internalType": "string",
          "name": "_district",
          "type": "string"
        },
        {
          "internalType": "string",
          "name": "_blockName",
          "type": "string"
        },
        {
          "internalType": "string",
          "name": "_panchyatName",
          "type": "string"
        },
        {
          "internalType": "string",
          "name": "_villageName",
          "type": "string"
        },
        {
          "internalType": "string",
          "name": "dateOfFormation",
          "type": "string"
        },
        {
          "internalType": "uint256",
          "name": "_baseIntrest",
          "type": "uint256"
        }
      ],
      "name": "addSHG",
      "outputs": [],
      "stateMutability": "nonpayable",
      "type": "function"
    },
    {
      "inputs": [
        {
          "internalType": "uint256",
          "name": "userid",
          "type": "uint256"
        },
        {
          "internalType": "uint256",
          "name": "shg",
          "type": "uint256"
        }
      ],
      "name": "addSHGMember",
      "outputs": [],
      "stateMutability": "nonpayable",
      "type": "function"
    },
    {
      "inputs": [
        {
          "internalType": "string",
          "name": "name",
          "type": "string"
        },
        {
          "internalType": "string",
          "name": "aadhar",
          "type": "string"
        },
        {
          "internalType": "uint256",
          "name": "mobno",
          "type": "uint256"
        },
        {
          "internalType": "string",
          "name": "fatherName",
          "type": "string"
        },
        {
          "internalType": "enum structs.Gender",
          "name": "gender",
          "type": "uint8"
        },
        {
          "internalType": "string",
          "name": "_state",
          "type": "string"
        },
        {
          "internalType": "string",
          "name": "_district",
          "type": "string"
        },
        {
          "internalType": "string",
          "name": "_blockName",
          "type": "string"
        },
        {
          "internalType": "string",
          "name": "_panchyatName",
          "type": "string"
        },
        {
          "internalType": "string",
          "name": "_villageName",
          "type": "string"
        }
      ],
      "name": "addUser",
      "outputs": [],
      "stateMutability": "nonpayable",
      "type": "function"
    },
    {
      "inputs": [
        {
          "internalType": "address",
          "name": "",
          "type": "address"
        }
      ],
      "name": "addressToBankid",
      "outputs": [
        {
          "internalType": "uint256",
          "name": "",
          "type": "uint256"
        }
      ],
      "stateMutability": "view",
      "type": "function",
      "constant": true
    },
    {
      "inputs": [
        {
          "internalType": "address",
          "name": "",
          "type": "address"
        }
      ],
      "name": "addressToSHGid",
      "outputs": [
        {
          "internalType": "uint256",
          "name": "",
          "type": "uint256"
        }
      ],
      "stateMutability": "view",
      "type": "function",
      "constant": true
    },
    {
      "inputs": [
        {
          "internalType": "address",
          "name": "",
          "type": "address"
        }
      ],
      "name": "addressToUser",
      "outputs": [
        {
          "internalType": "uint256",
          "name": "",
          "type": "uint256"
        }
      ],
      "stateMutability": "view",
      "type": "function",
      "constant": true
    },
    {
      "inputs": [
        {
          "internalType": "uint256",
          "name": "_shgrequestid",
          "type": "uint256"
        },
        {
          "internalType": "uint256",
          "name": "_bankid",
          "type": "uint256"
        }
      ],
      "name": "approveLoan",
      "outputs": [],
      "stateMutability": "nonpayable",
      "type": "function"
    },
    {
      "inputs": [
        {
          "internalType": "uint256",
          "name": "_requestid",
          "type": "uint256"
        },
        {
          "internalType": "uint256",
          "name": "_shgid",
          "type": "uint256"
        }
      ],
      "name": "approveRequest",
      "outputs": [],
      "stateMutability": "nonpayable",
      "type": "function"
    },
    {
      "inputs": [
        {
          "internalType": "uint256",
          "name": "",
          "type": "uint256"
        }
      ],
      "name": "banks",
      "outputs": [
        {
          "internalType": "uint256",
          "name": "id",
          "type": "uint256"
        },
        {
          "internalType": "string",
          "name": "name",
          "type": "string"
        },
        {
          "internalType": "address",
          "name": "walletAddress",
          "type": "address"
        },
        {
          "internalType": "string",
          "name": "code",
          "type": "string"
        },
        {
          "internalType": "uint256",
          "name": "intrestRate",
          "type": "uint256"
        }
      ],
      "stateMutability": "view",
      "type": "function",
      "constant": true
    },
    {
      "inputs": [
        {
          "internalType": "uint256",
          "name": "_userid",
          "type": "uint256"
        },
        {
          "internalType": "uint256",
          "name": "_requestid",
          "type": "uint256"
        }
      ],
      "name": "deleteRequest",
      "outputs": [],
      "stateMutability": "nonpayable",
      "type": "function"
    },
    {
      "inputs": [
        {
          "internalType": "string",
          "name": "",
          "type": "string"
        },
        {
          "internalType": "uint256",
          "name": "",
          "type": "uint256"
        }
      ],
      "name": "districtToSHGs",
      "outputs": [
        {
          "internalType": "uint256",
          "name": "",
          "type": "uint256"
        }
      ],
      "stateMutability": "view",
      "type": "function",
      "constant": true
    },
    {
      "inputs": [
        {
          "internalType": "uint256",
          "name": "userid",
          "type": "uint256"
        }
      ],
      "name": "getAllLoans",
      "outputs": [
        {
          "internalType": "uint256[]",
          "name": "",
          "type": "uint256[]"
        }
      ],
      "stateMutability": "view",
      "type": "function",
      "constant": true
    },
    {
      "inputs": [
        {
          "internalType": "uint256",
          "name": "_shgid",
          "type": "uint256"
        },
        {
          "internalType": "uint256",
          "name": "_loanid",
          "type": "uint256"
        }
      ],
      "name": "getSHGEMI",
      "outputs": [
        {
          "internalType": "uint256",
          "name": "",
          "type": "uint256"
        }
      ],
      "stateMutability": "nonpayable",
      "type": "function"
    },
    {
      "inputs": [
        {
          "internalType": "uint256",
          "name": "shgid",
          "type": "uint256"
        }
      ],
      "name": "getSHGMembers",
      "outputs": [
        {
          "internalType": "uint256[]",
          "name": "",
          "type": "uint256[]"
        }
      ],
      "stateMutability": "view",
      "type": "function",
      "constant": true
    },
    {
      "inputs": [
        {
          "internalType": "uint256",
          "name": "userid",
          "type": "uint256"
        },
        {
          "internalType": "uint256",
          "name": "loanid",
          "type": "uint256"
        }
      ],
      "name": "getUserEMI",
      "outputs": [
        {
          "internalType": "uint256",
          "name": "",
          "type": "uint256"
        }
      ],
      "stateMutability": "nonpayable",
      "type": "function"
    },
    {
      "inputs": [
        {
          "internalType": "uint256",
          "name": "_userid",
          "type": "uint256"
        }
      ],
      "name": "getUserLoanAmount",
      "outputs": [
        {
          "internalType": "uint256",
          "name": "",
          "type": "uint256"
        }
      ],
      "stateMutability": "view",
      "type": "function",
      "constant": true
    },
    {
      "inputs": [
        {
          "internalType": "uint256",
          "name": "_shgrequestid",
          "type": "uint256"
        },
        {
          "internalType": "uint256",
          "name": "_bankid",
          "type": "uint256"
        },
        {
          "internalType": "uint256",
          "name": "_amount",
          "type": "uint256"
        }
      ],
      "name": "grantLoan",
      "outputs": [],
      "stateMutability": "nonpayable",
      "type": "function"
    },
    {
      "inputs": [
        {
          "internalType": "uint256",
          "name": "",
          "type": "uint256"
        }
      ],
      "name": "loans",
      "outputs": [
        {
          "internalType": "uint256",
          "name": "loanId",
          "type": "uint256"
        },
        {
          "internalType": "uint256",
          "name": "lenderId",
          "type": "uint256"
        },
        {
          "internalType": "uint256",
          "name": "amount",
          "type": "uint256"
        },
        {
          "internalType": "uint256",
          "name": "lendeeId",
          "type": "uint256"
        },
        {
          "internalType": "uint256",
          "name": "intrest",
          "type": "uint256"
        },
        {
          "internalType": "uint256",
          "name": "loanTime",
          "type": "uint256"
        },
        {
          "internalType": "uint256",
          "name": "date",
          "type": "uint256"
        },
        {
          "internalType": "uint256",
          "name": "lastEMI",
          "type": "uint256"
        }
      ],
      "stateMutability": "view",
      "type": "function",
      "constant": true
    },
    {
      "inputs": [],
      "name": "login",
      "outputs": [
        {
          "internalType": "bool",
          "name": "",
          "type": "bool"
        }
      ],
      "stateMutability": "view",
      "type": "function",
      "constant": true
    },
    {
      "inputs": [
        {
          "internalType": "uint256",
          "name": "_shgid",
          "type": "uint256"
        },
        {
          "internalType": "uint256",
          "name": "_userid",
          "type": "uint256"
        },
        {
          "internalType": "uint256",
          "name": "_amount",
          "type": "uint256"
        },
        {
          "internalType": "string",
          "name": "_description",
          "type": "string"
        },
        {
          "internalType": "uint256",
          "name": "_loanTime",
          "type": "uint256"
        }
      ],
      "name": "makeRequest",
      "outputs": [],
      "stateMutability": "nonpayable",
      "type": "function"
    },
    {
      "inputs": [
        {
          "internalType": "uint256",
          "name": "_userid",
          "type": "uint256"
        },
        {
          "internalType": "uint256",
          "name": "_loanid",
          "type": "uint256"
        },
        {
          "internalType": "uint256",
          "name": "_amount",
          "type": "uint256"
        }
      ],
      "name": "payEMI",
      "outputs": [],
      "stateMutability": "payable",
      "type": "function",
      "payable": true
    },
    {
      "inputs": [
        {
          "internalType": "uint256",
          "name": "userid",
          "type": "uint256"
        },
        {
          "internalType": "uint256",
          "name": "shgid",
          "type": "uint256"
        }
      ],
      "name": "removeSHGMember",
      "outputs": [],
      "stateMutability": "nonpayable",
      "type": "function"
    },
    {
      "inputs": [
        {
          "internalType": "uint256",
          "name": "_requestid",
          "type": "uint256"
        }
      ],
      "name": "sendGrant",
      "outputs": [],
      "stateMutability": "nonpayable",
      "type": "function"
    },
    {
      "inputs": [
        {
          "internalType": "uint256",
          "name": "_shgid",
          "type": "uint256"
        },
        {
          "internalType": "uint256",
          "name": "_amount",
          "type": "uint256"
        },
        {
          "internalType": "uint256",
          "name": "_loanTime",
          "type": "uint256"
        }
      ],
      "name": "sendRequestToBank",
      "outputs": [],
      "stateMutability": "nonpayable",
      "type": "function"
    },
    {
      "inputs": [
        {
          "internalType": "uint256",
          "name": "_bankid",
          "type": "uint256"
        },
        {
          "internalType": "uint256",
          "name": "_requestid",
          "type": "uint256"
        },
        {
          "internalType": "uint256",
          "name": "_amount",
          "type": "uint256"
        }
      ],
      "name": "shgLoan",
      "outputs": [],
      "stateMutability": "payable",
      "type": "function",
      "payable": true
    },
    {
      "inputs": [
        {
          "internalType": "uint256",
          "name": "_shgid",
          "type": "uint256"
        },
        {
          "internalType": "uint256",
          "name": "_loanid",
          "type": "uint256"
        },
        {
          "internalType": "uint256",
          "name": "_amount",
          "type": "uint256"
        }
      ],
      "name": "shgPayEMI",
      "outputs": [],
      "stateMutability": "nonpayable",
      "type": "function"
    },
    {
      "inputs": [
        {
          "internalType": "uint256",
          "name": "",
          "type": "uint256"
        }
      ],
      "name": "shgRequests",
      "outputs": [
        {
          "internalType": "uint256",
          "name": "requestid",
          "type": "uint256"
        },
        {
          "internalType": "uint256",
          "name": "shgid",
          "type": "uint256"
        },
        {
          "internalType": "uint256",
          "name": "amount",
          "type": "uint256"
        },
        {
          "internalType": "uint256",
          "name": "loanTime",
          "type": "uint256"
        },
        {
          "internalType": "enum structs.RequestStatus",
          "name": "status",
          "type": "uint8"
        }
      ],
      "stateMutability": "view",
      "type": "function",
      "constant": true
    },
    {
      "inputs": [
        {
          "internalType": "uint256",
          "name": "",
          "type": "uint256"
        }
      ],
      "name": "shgs",
      "outputs": [
        {
          "internalType": "uint256",
          "name": "id",
          "type": "uint256"
        },
        {
          "internalType": "string",
          "name": "name",
          "type": "string"
        },
        {
          "components": [
            {
              "internalType": "string",
              "name": "state",
              "type": "string"
            },
            {
              "internalType": "string",
              "name": "district",
              "type": "string"
            },
            {
              "internalType": "string",
              "name": "blockName",
              "type": "string"
            },
            {
              "internalType": "string",
              "name": "panchyatName",
              "type": "string"
            },
            {
              "internalType": "string",
              "name": "villageName",
              "type": "string"
            }
          ],
          "internalType": "struct structs.Location",
          "name": "location",
          "type": "tuple"
        },
        {
          "internalType": "string",
          "name": "dateOfFormation",
          "type": "string"
        },
        {
          "internalType": "uint256",
          "name": "currentBalance",
          "type": "uint256"
        },
        {
          "internalType": "uint256",
          "name": "owedBalance",
          "type": "uint256"
        },
        {
          "internalType": "uint256",
          "name": "baseIntrest",
          "type": "uint256"
        }
      ],
      "stateMutability": "view",
      "type": "function",
      "constant": true
    },
    {
      "inputs": [
        {
          "internalType": "string",
          "name": "district",
          "type": "string"
        }
      ],
      "name": "shgsOfDistrict",
      "outputs": [
        {
          "internalType": "uint256[]",
          "name": "",
          "type": "uint256[]"
        }
      ],
      "stateMutability": "view",
      "type": "function",
      "constant": true
    },
    {
      "inputs": [
        {
          "internalType": "uint256",
          "name": "id",
          "type": "uint256"
        },
        {
          "internalType": "enum structs.UserType",
          "name": "updatedType",
          "type": "uint8"
        }
      ],
      "name": "updateMemberRole",
      "outputs": [],
      "stateMutability": "nonpayable",
      "type": "function"
    },
    {
      "inputs": [
        {
          "internalType": "uint256",
          "name": "",
          "type": "uint256"
        }
      ],
      "name": "userRequests",
      "outputs": [
        {
          "internalType": "uint256",
          "name": "requestId",
          "type": "uint256"
        },
        {
          "internalType": "uint256",
          "name": "userId",
          "type": "uint256"
        },
        {
          "internalType": "uint256",
          "name": "amount",
          "type": "uint256"
        },
        {
          "internalType": "string",
          "name": "description",
          "type": "string"
        },
        {
          "internalType": "uint256",
          "name": "SHGId",
          "type": "uint256"
        },
        {
          "internalType": "enum structs.RequestStatus",
          "name": "status",
          "type": "uint8"
        },
        {
          "internalType": "uint256",
          "name": "loanTime",
          "type": "uint256"
        }
      ],
      "stateMutability": "view",
      "type": "function",
      "constant": true
    },
    {
      "inputs": [
        {
          "internalType": "uint256",
          "name": "",
          "type": "uint256"
        }
      ],
      "name": "users",
      "outputs": [
        {
          "internalType": "uint256",
          "name": "id",
          "type": "uint256"
        },
        {
          "internalType": "string",
          "name": "name",
          "type": "string"
        },
        {
          "internalType": "string",
          "name": "aadhar",
          "type": "string"
        },
        {
          "internalType": "uint256",
          "name": "mobno",
          "type": "uint256"
        },
        {
          "internalType": "string",
          "name": "fatherName",
          "type": "string"
        },
        {
          "internalType": "address",
          "name": "walletAddress",
          "type": "address"
        },
        {
          "internalType": "uint256",
          "name": "shgid",
          "type": "uint256"
        },
        {
          "internalType": "enum structs.UserType",
          "name": "userType",
          "type": "uint8"
        },
        {
          "internalType": "enum structs.Gender",
          "name": "gender",
          "type": "uint8"
        },
        {
          "components": [
            {
              "internalType": "string",
              "name": "state",
              "type": "string"
            },
            {
              "internalType": "string",
              "name": "district",
              "type": "string"
            },
            {
              "internalType": "string",
              "name": "blockName",
              "type": "string"
            },
            {
              "internalType": "string",
              "name": "panchyatName",
              "type": "string"
            },
            {
              "internalType": "string",
              "name": "villageName",
              "type": "string"
            }
          ],
          "internalType": "struct structs.Location",
          "name": "location",
          "type": "tuple"
        }
      ],
      "stateMutability": "view",
      "type": "function",
      "constant": true
    }
  ],
  "bytecode": "0x608060405234801561001057600080fd5b5033601060006101000a81548173ffffffffffffffffffffffffffffffffffffffff021916908373ffffffffffffffffffffffffffffffffffffffff160217905550615434806100616000396000f3fe6080604052600436106101ed5760003560e01c80634f269c921161010d578063a6e90a58116100a0578063cfcb4b2f1161006f578063cfcb4b2f14610777578063db223b4c146107b4578063e1ec3c68146107dd578063edf5388614610821578063f736ae431461085e576101ed565b8063a6e90a58146106bd578063af08a94f146106e6578063b34e97e814610723578063bc1e72ad1461074e576101ed565b80637d550bb3116100dc5780637d550bb3146105eb578063941696561461061457806397e492dd146106575780639bbc9ab114610694576101ed565b80634f269c921461051f57806361c91b7014610548578063769d0e16146105855780637a646492146105c2576101ed565b80632c0a90a9116101855780633ae0058f116101545780633ae0058f1461044c5780633c565757146104895780633cec4272146104c657806342f5f81514610503576101ed565b80632c0a90a91461038b5780632e131046146103b4578063365b98b2146103dd57806339d8bed114610423576101ed565b806314795ce3116101c157806314795ce3146102c2578063249c4bff146102eb578063257a170b1461030757806326271cf214610348576101ed565b806285ae2b146101f2578063021af397146102335780630227f4351461025c578063089511f714610285575b600080fd5b3480156101fe57600080fd5b5061021960048036038101906102149190614537565b610887565b60405161022a959493929190614acb565b60405180910390f35b34801561023f57600080fd5b5061025a600480360381019061025591906145d8565b6109ed565b005b34801561026857600080fd5b50610283600480360381019061027e9190614627565b610bc4565b005b34801561029157600080fd5b506102ac60048036038101906102a79190614537565b610dda565b6040516102b99190614ab0565b60405180910390f35b3480156102ce57600080fd5b506102e960048036038101906102e491906142b5565b610ec1565b005b610305600480360381019061030091906145d8565b6110a1565b005b34801561031357600080fd5b5061032e60048036038101906103299190614537565b6112aa565b60405161033f959493929190614cde565b60405180910390f35b34801561035457600080fd5b5061036f600480360381019061036a9190614537565b6112ed565b6040516103829796959493929190614be4565b60405180910390f35b34801561039757600080fd5b506103b260048036038101906103ad919061459c565b611723565b005b3480156103c057600080fd5b506103db60048036038101906103d69190614348565b611879565b005b3480156103e957600080fd5b5061040460048036038101906103ff9190614537565b611e17565b60405161041a9a99989796959493929190614b2c565b60405180910390f35b34801561042f57600080fd5b5061044a6004803603810190610445919061459c565b612321565b005b34801561045857600080fd5b50610473600480360381019061046e919061409b565b612437565b6040516104809190614ab0565b60405180910390f35b34801561049557600080fd5b506104b060048036038101906104ab919061459c565b61244f565b6040516104bd9190614ab0565b60405180910390f35b3480156104d257600080fd5b506104ed60048036038101906104e891906144e3565b61256c565b6040516104fa9190614ab0565b60405180910390f35b61051d600480360381019061051891906145d8565b6125b3565b005b34801561052b57600080fd5b5061054660048036038101906105419190614560565b612691565b005b34801561055457600080fd5b5061056f600480360381019061056a919061409b565b6126f8565b60405161057c9190614ab0565b60405180910390f35b34801561059157600080fd5b506105ac60048036038101906105a7919061459c565b612710565b6040516105b99190614ab0565b60405180910390f35b3480156105ce57600080fd5b506105e960048036038101906105e4919061459c565b61282e565b005b3480156105f757600080fd5b50610612600480360381019061060d91906145d8565b6128bd565b005b34801561062057600080fd5b5061063b60048036038101906106369190614537565b61299c565b60405161064e9796959493929190614c68565b60405180910390f35b34801561066357600080fd5b5061067e60048036038101906106799190614274565b612a73565b60405161068b91906149b3565b60405180910390f35b3480156106a057600080fd5b506106bb60048036038101906106b69190614537565b612ae9565b005b3480156106c957600080fd5b506106e460048036038101906106df919061459c565b612f91565b005b3480156106f257600080fd5b5061070d60048036038101906107089190614537565b613123565b60405161071a91906149b3565b60405180910390f35b34801561072f57600080fd5b50610738613191565b60405161074591906149d5565b60405180910390f35b34801561075a57600080fd5b50610775600480360381019061077091906140c4565b61323b565b005b34801561078357600080fd5b5061079e60048036038101906107999190614537565b6137ca565b6040516107ab91906149b3565b60405180910390f35b3480156107c057600080fd5b506107db60048036038101906107d691906145d8565b61385c565b005b3480156107e957600080fd5b5061080460048036038101906107ff9190614537565b613976565b604051610818989796959493929190614d31565b60405180910390f35b34801561082d57600080fd5b506108486004803603810190610843919061409b565b6139be565b6040516108559190614ab0565b60405180910390f35b34801561086a57600080fd5b506108856004803603810190610880919061459c565b6139d6565b005b60036020528060005260406000206000915090508060000154908060010180546108b0906150b0565b80601f01602080910402602001604051908101604052809291908181526020018280546108dc906150b0565b80156109295780601f106108fe57610100808354040283529160200191610929565b820191906000526020600020905b81548152906001019060200180831161090c57829003601f168201915b5050505050908060020160009054906101000a900473ffffffffffffffffffffffffffffffffffffffff1690806003018054610964906150b0565b80601f0160208091040260200160405190810160405280929190818152602001828054610990906150b0565b80156109dd5780601f106109b2576101008083540402835291602001916109dd565b820191906000526020600020905b8154815290600101906020018083116109c057829003601f168201915b5050505050908060040154905085565b82600060016000838152602001908152602001600020600001541415610a1257600080fd5b83600080600460003373ffffffffffffffffffffffffffffffffffffffff1673ffffffffffffffffffffffffffffffffffffffff1681526020019081526020016000205481526020019081526020016000206008015414610a7257600080fd5b6000600d6000815480929190610a8790615113565b9190505590506040518060a00160405280828152602001868152602001858152602001848152602001600380811115610ae9577f4e487b7100000000000000000000000000000000000000000000000000000000600052602160045260246000fd5b815250600760008381526020019081526020016000206000820151816000015560208201518160010155604082015181600201556060820151816003015560808201518160040160006101000a81548160ff02191690836003811115610b78577f4e487b7100000000000000000000000000000000000000000000000000000000600052602160045260246000fd5b021790555090505060016000868152602001908152602001600020600c018190806001815401808255809150506001900390600052602060002001600090919091909150555050505050565b6000600c60008154610bd590615113565b9190508190559050604051806101000160405280828152602001868152602001858152602001848152602001878152602001600380811115610c40577f4e487b7100000000000000000000000000000000000000000000000000000000600052602160045260246000fd5b8152602001838152602001600067ffffffffffffffff811115610c8c577f4e487b7100000000000000000000000000000000000000000000000000000000600052604160045260246000fd5b604051908082528060200260200182016040528015610cba5781602001602082028036833780820191505090505b50815250600660008381526020019081526020016000206000820151816000015560208201518160010155604082015181600201556060820151816003019080519060200190610d0b929190613df8565b506080820151816004015560a08201518160050160006101000a81548160ff02191690836003811115610d67577f4e487b7100000000000000000000000000000000000000000000000000000000600052602160045260246000fd5b021790555060c0820151816006015560e0820151816007019080519060200190610d92929190613e7e565b50905050600080868152602001908152602001600020600701819080600181540180825580915050600190039060005260206000200160009091909190915055505050505050565b600080600090506000806000858152602001908152602001600020600601805480602002602001604051908101604052809291908181526020018280548015610e4257602002820191906000526020600020905b815481526020019060010190808311610e2e575b5050505050905060005b8151811015610eb657818181518110610e8e577f4e487b7100000000000000000000000000000000000000000000000000000000600052603260045260246000fd5b602002602001015183610ea19190614ea2565b92508080610eae90615113565b915050610e4c565b508192505050919050565b6000600e60008154610ed290615113565b91905081905590506040518060c001604052808281526020018681526020018573ffffffffffffffffffffffffffffffffffffffff168152602001848152602001838152602001600067ffffffffffffffff811115610f5a577f4e487b7100000000000000000000000000000000000000000000000000000000600052604160045260246000fd5b604051908082528060200260200182016040528015610f885781602001602082028036833780820191505090505b5081525060036000838152602001908152602001600020600082015181600001556020820151816001019080519060200190610fc5929190613df8565b5060408201518160020160006101000a81548173ffffffffffffffffffffffffffffffffffffffff021916908373ffffffffffffffffffffffffffffffffffffffff1602179055506060820151816003019080519060200190611029929190613df8565b506080820151816004015560a0820151816005019080519060200190611050929190613e7e565b50905050600e54600960008673ffffffffffffffffffffffffffffffffffffffff1673ffffffffffffffffffffffffffffffffffffffff168152602001908152602001600020819055505050505050565b826000600360008381526020019081526020016000206000015414156110c657600080fd5b6000604051806101000160405280600f600081546110e390615113565b9190508190558152602001600760008781526020019081526020016000206001015481526020018481526020018681526020016003600088815260200190815260200160002060040154815260200160076000878152602001908152602001600020600301548152602001428152602001600081525090506001600060076000878152602001908152602001600020600101548152602001908152602001600020600c01600f5490806001815401808255809150506001900390600052602060002001600090919091909150553073ffffffffffffffffffffffffffffffffffffffff166108fc849081150290604051600060405180830381858888f193505050501580156111f6573d6000803e3d6000fd5b5082600160006007600088815260200190815260200160002060010154815260200190815260200160002060090160008282546112339190614ea2565b925050819055508060056000600f548152602001908152602001600020600082015181600001556020820151816001015560408201518160020155606082015181600301556080820151816004015560a0820151816005015560c0820151816006015560e082015181600701559050505050505050565b60076020528060005260406000206000915090508060000154908060010154908060020154908060030154908060040160009054906101000a900460ff16905085565b6001602052806000526040600020600091509050806000015490806002018054611316906150b0565b80601f0160208091040260200160405190810160405280929190818152602001828054611342906150b0565b801561138f5780601f106113645761010080835404028352916020019161138f565b820191906000526020600020905b81548152906001019060200180831161137257829003601f168201915b505050505090806003016040518060a00160405290816000820180546113b4906150b0565b80601f01602080910402602001604051908101604052809291908181526020018280546113e0906150b0565b801561142d5780601f106114025761010080835404028352916020019161142d565b820191906000526020600020905b81548152906001019060200180831161141057829003601f168201915b50505050508152602001600182018054611446906150b0565b80601f0160208091040260200160405190810160405280929190818152602001828054611472906150b0565b80156114bf5780601f10611494576101008083540402835291602001916114bf565b820191906000526020600020905b8154815290600101906020018083116114a257829003601f168201915b505050505081526020016002820180546114d8906150b0565b80601f0160208091040260200160405190810160405280929190818152602001828054611504906150b0565b80156115515780601f1061152657610100808354040283529160200191611551565b820191906000526020600020905b81548152906001019060200180831161153457829003601f168201915b5050505050815260200160038201805461156a906150b0565b80601f0160208091040260200160405190810160405280929190818152602001828054611596906150b0565b80156115e35780601f106115b8576101008083540402835291602001916115e3565b820191906000526020600020905b8154815290600101906020018083116115c657829003601f168201915b505050505081526020016004820180546115fc906150b0565b80601f0160208091040260200160405190810160405280929190818152602001828054611628906150b0565b80156116755780601f1061164a57610100808354040283529160200191611675565b820191906000526020600020905b81548152906001019060200180831161165857829003601f168201915b5050505050815250509080600801805461168e906150b0565b80601f01602080910402602001604051908101604052809291908181526020018280546116ba906150b0565b80156117075780601f106116dc57610100808354040283529160200191611707565b820191906000526020600020905b8154815290600101906020018083116116ea57829003601f168201915b50505050509080600901549080600a01549080600d0154905087565b8060006001600083815260200190815260200160002060000154141561174857600080fd5b60006006600085815260200190815260200160002090508281600401541461176f57600080fd5b61177884613ae0565b61178157600080fd5b80600701600460003373ffffffffffffffffffffffffffffffffffffffff1673ffffffffffffffffffffffffffffffffffffffff168152602001908152602001600020549080600181540180825580915050600190039060005260206000200160009091909190915055600260016000858152602001908152602001600020600101805490506118119190614ef8565b816007018054905011156118735760008160050160006101000a81548160ff0219169083600381111561186d577f4e487b7100000000000000000000000000000000000000000000000000000000600052602160045260246000fd5b02179055505b50505050565b3373ffffffffffffffffffffffffffffffffffffffff16600080600460003373ffffffffffffffffffffffffffffffffffffffff1673ffffffffffffffffffffffffffffffffffffffff16815260200190815260200160002054815260200190815260200160002060050160009054906101000a900473ffffffffffffffffffffffffffffffffffffffff1673ffffffffffffffffffffffffffffffffffffffff16141561195c576040517f08c379a000000000000000000000000000000000000000000000000000000000815260040161195390614a10565b60405180910390fd5b6000600a6000815461196d90615113565b919050819055905080600460003373ffffffffffffffffffffffffffffffffffffffff1673ffffffffffffffffffffffffffffffffffffffff1681526020019081526020016000208190555060006040518060a00160405280888152602001878152602001868152602001858152602001848152509050604051806101800160405280600a6000815480929190611a0390615113565b9190505581526020018d81526020018c81526020018b81526020018a81526020013373ffffffffffffffffffffffffffffffffffffffff168152602001600067ffffffffffffffff811115611a81577f4e487b7100000000000000000000000000000000000000000000000000000000600052604160045260246000fd5b604051908082528060200260200182016040528015611aaf5781602001602082028036833780820191505090505b508152602001600067ffffffffffffffff811115611af6577f4e487b7100000000000000000000000000000000000000000000000000000000600052604160045260246000fd5b604051908082528060200260200182016040528015611b245781602001602082028036833780820191505090505b5081526020016000815260200160046005811115611b6b577f4e487b7100000000000000000000000000000000000000000000000000000000600052602160045260246000fd5b8152602001896002811115611ba9577f4e487b7100000000000000000000000000000000000000000000000000000000600052602160045260246000fd5b815260200182815250600080848152602001908152602001600020600082015181600001556020820151816001019080519060200190611bea929190613df8565b506040820151816002019080519060200190611c07929190613df8565b50606082015181600301556080820151816004019080519060200190611c2e929190613df8565b5060a08201518160050160006101000a81548173ffffffffffffffffffffffffffffffffffffffff021916908373ffffffffffffffffffffffffffffffffffffffff16021790555060c0820151816006019080519060200190611c92929190613e7e565b5060e0820151816007019080519060200190611caf929190613e7e565b5061010082015181600801556101208201518160090160006101000a81548160ff02191690836005811115611d0d577f4e487b7100000000000000000000000000000000000000000000000000000000600052602160045260246000fd5b02179055506101408201518160090160016101000a81548160ff02191690836002811115611d64577f4e487b7100000000000000000000000000000000000000000000000000000000600052602160045260246000fd5b021790555061016082015181600a016000820151816000019080519060200190611d8f929190613df8565b506020820151816001019080519060200190611dac929190613df8565b506040820151816002019080519060200190611dc9929190613df8565b506060820151816003019080519060200190611de6929190613df8565b506080820151816004019080519060200190611e03929190613df8565b505050905050505050505050505050505050565b6000602052806000526040600020600091509050806000015490806001018054611e40906150b0565b80601f0160208091040260200160405190810160405280929190818152602001828054611e6c906150b0565b8015611eb95780601f10611e8e57610100808354040283529160200191611eb9565b820191906000526020600020905b815481529060010190602001808311611e9c57829003601f168201915b505050505090806002018054611ece906150b0565b80601f0160208091040260200160405190810160405280929190818152602001828054611efa906150b0565b8015611f475780601f10611f1c57610100808354040283529160200191611f47565b820191906000526020600020905b815481529060010190602001808311611f2a57829003601f168201915b505050505090806003015490806004018054611f62906150b0565b80601f0160208091040260200160405190810160405280929190818152602001828054611f8e906150b0565b8015611fdb5780601f10611fb057610100808354040283529160200191611fdb565b820191906000526020600020905b815481529060010190602001808311611fbe57829003601f168201915b5050505050908060050160009054906101000a900473ffffffffffffffffffffffffffffffffffffffff16908060080154908060090160009054906101000a900460ff16908060090160019054906101000a900460ff169080600a016040518060a0016040529081600082018054612052906150b0565b80601f016020809104026020016040519081016040528092919081815260200182805461207e906150b0565b80156120cb5780601f106120a0576101008083540402835291602001916120cb565b820191906000526020600020905b8154815290600101906020018083116120ae57829003601f168201915b505050505081526020016001820180546120e4906150b0565b80601f0160208091040260200160405190810160405280929190818152602001828054612110906150b0565b801561215d5780601f106121325761010080835404028352916020019161215d565b820191906000526020600020905b81548152906001019060200180831161214057829003601f168201915b50505050508152602001600282018054612176906150b0565b80601f01602080910402602001604051908101604052809291908181526020018280546121a2906150b0565b80156121ef5780601f106121c4576101008083540402835291602001916121ef565b820191906000526020600020905b8154815290600101906020018083116121d257829003601f168201915b50505050508152602001600382018054612208906150b0565b80601f0160208091040260200160405190810160405280929190818152602001828054612234906150b0565b80156122815780601f1061225657610100808354040283529160200191612281565b820191906000526020600020905b81548152906001019060200180831161226457829003601f168201915b5050505050815260200160048201805461229a906150b0565b80601f01602080910402602001604051908101604052809291908181526020018280546122c6906150b0565b80156123135780601f106122e857610100808354040283529160200191612313565b820191906000526020600020905b8154815290600101906020018083116122f657829003601f168201915b50505050508152505090508a565b806000808481526020019081526020016000206008015414612378576040517f08c379a000000000000000000000000000000000000000000000000000000000815260040161236f90614a50565b60405180910390fd5b8060008084815260200190815260200160002060080181905550600360008084815260200190815260200160002060090160006101000a81548160ff021916908360058111156123f1577f4e487b7100000000000000000000000000000000000000000000000000000000600052602160045260246000fd5b0217905550600160008281526020019081526020016000206001018290806001815401808255809150506001900390600052602060002001600090919091909150555050565b60086020528060005260406000206000915090505481565b600082600080600083815260200190815260200160002060000154141561247557600080fd5b60006005600085815260200190815260200160002090506000601e603c8060188560070154426124a59190614f83565b6124af9190614ef8565b6124b99190614f29565b6124c39190614f29565b6124cd9190614f29565b9050600081116124dc57600080fd5b60008260020154905060008360040154905060008460050154905060008382600c6125079190614f29565b6125119190614f83565b600c6064856125209190614ef8565b61252a9190614f29565b60016125369190614ea2565b856125419190614f29565b1890508086600201546125549190614f83565b86600201819055508097505050505050505092915050565b600282805160208101820180518482526020830160208501208183528095505050505050818154811061259e57600080fd5b90600052602060002001600091509150505481565b8260008060008381526020019081526020016000206000015414156125d757600080fd5b60006125e3858561244f565b90508281146125f157600080fd5b60006005600086815260200190815260200160002090503073ffffffffffffffffffffffffffffffffffffffff166108fc859081150290604051600060405180830381858888f1935050505015801561264e573d6000803e3d6000fd5b5083600160008360030154815260200190815260200160002060090160008282546126799190614ea2565b92505081905550428160070181905550505050505050565b8060008084815260200190815260200160002060090160006101000a81548160ff021916908360058111156126ef577f4e487b7100000000000000000000000000000000000000000000000000000000600052602160045260246000fd5b02179055505050565b60096020528060005260406000206000915090505481565b60008260006001600083815260200190815260200160002060000154141561273757600080fd5b60006005600085815260200190815260200160002090506000601e603c8060188560070154426127679190614f83565b6127719190614ef8565b61277b9190614f29565b6127859190614f29565b61278f9190614f29565b90506000811161279e57600080fd5b60008260020154905060008360040154905060008460050154905060008382600c6127c99190614f29565b6127d39190614f83565b600c6064856127e29190614ef8565b6127ec9190614f29565b60016127f89190614ea2565b856128039190614f29565b1890508086600201546128169190614f83565b86600201819055508097505050505050505092915050565b8060006003600083815260200190815260200160002060000154141561285357600080fd5b60006007600085815260200190815260200160002060040160006101000a81548160ff021916908360038111156128b3577f4e487b7100000000000000000000000000000000000000000000000000000000600052602160045260246000fd5b0217905550505050565b826000600160008381526020019081526020016000206000015414156128e257600080fd5b60006128ee8585612710565b90508281146128fc57600080fd5b60006005600086815260200190815260200160002090503073ffffffffffffffffffffffffffffffffffffffff166108fc859081150290604051600060405180830381858888f19350505050158015612959573d6000803e3d6000fd5b5083600160008360030154815260200190815260200160002060090160008282546129849190614ea2565b92505081905550428160070181905550505050505050565b60066020528060005260406000206000915090508060000154908060010154908060020154908060030180546129d1906150b0565b80601f01602080910402602001604051908101604052809291908181526020018280546129fd906150b0565b8015612a4a5780601f10612a1f57610100808354040283529160200191612a4a565b820191906000526020600020905b815481529060010190602001808311612a2d57829003601f168201915b5050505050908060040154908060050160009054906101000a900460ff16908060060154905087565b6060600282604051612a85919061499c565b9081526020016040518091039020805480602002602001604051908101604052809291908181526020018280548015612add57602002820191906000526020600020905b815481526020019060010190808311612ac9575b50505050509050919050565b60026005811115612b23577f4e487b7100000000000000000000000000000000000000000000000000000000600052602160045260246000fd5b600080600460003373ffffffffffffffffffffffffffffffffffffffff1673ffffffffffffffffffffffffffffffffffffffff16815260200190815260200160002054815260200190815260200160002060090160009054906101000a900460ff166005811115612bbd577f4e487b7100000000000000000000000000000000000000000000000000000000600052602160045260246000fd5b14612bfd576040517f08c379a0000000000000000000000000000000000000000000000000000000008152600401612bf490614a90565b60405180910390fd5b60006003811115612c37577f4e487b7100000000000000000000000000000000000000000000000000000000600052602160045260246000fd5b6006600083815260200190815260200160002060050160009054906101000a900460ff166003811115612c93577f4e487b7100000000000000000000000000000000000000000000000000000000600052602160045260246000fd5b14612cd3576040517f08c379a0000000000000000000000000000000000000000000000000000000008152600401612cca90614a70565b60405180910390fd5b600060066000838152602001908152602001600020905060018160050160006101000a81548160ff02191690836003811115612d38577f4e487b7100000000000000000000000000000000000000000000000000000000600052602160045260246000fd5b02179055506000604051806101000160405280600f60008154612d5a90615113565b91905081905581526020018360040154815260200183600201548152602001836001015481526020016001600085600401548152602001908152602001600020600d0154815260200183600601548152602001428152602001600081525090508060056000600f548152602001908152602001600020600082015181600001556020820151816001015560408201518160020155606082015181600301556080820151816004015560a0820151816005015560c0820151816006015560e082015181600701559050506001600083600401548152602001908152602001600020600b01600f54908060018154018082558091505060019003906000526020600020016000909190919091505560008083600101548152602001908152602001600020600601600f54908060018154018082558091505060019003906000526020600020016000909190919091505581600201546001600084600401548152602001908152602001600020600901541015612ed357600080fd5b6000808360010154815260200190815260200160002060050160009054906101000a900473ffffffffffffffffffffffffffffffffffffffff1673ffffffffffffffffffffffffffffffffffffffff166108fc83600201549081150290604051600060405180830381858888f19350505050158015612f56573d6000803e3d6000fd5b50816002015460016000846004015481526020019081526020016000206009016000828254612f859190614f83565b92505081905550505050565b600060016000838152602001908152602001600020905061300481600101805480602002602001604051908101604052809291908181526020018280548015612ff957602002820191906000526020600020905b815481526020019060010190808311612fe5575b505050505083613bbe565b613043576040517f08c379a000000000000000000000000000000000000000000000000000000000815260040161303a90614a30565b60405180910390fd5b60006130a18260010180548060200260200160405190810160405280929190818152602001828054801561309657602002820191906000526020600020905b815481526020019060010190808311613082575b505050505085613c4c565b90506000613101836001018054806020026020016040519081016040528092919081815260200182805480156130f657602002820191906000526020600020905b8154815260200190600101908083116130e2575b505050505083613ccd565b90508083600101908051906020019061311b929190613e7e565b505050505050565b60606001600083815260200190815260200160002060010180548060200260200160405190810160405280929190818152602001828054801561318557602002820191906000526020600020905b815481526020019060010190808311613171575b50505050509050919050565b60003373ffffffffffffffffffffffffffffffffffffffff16600080600460003373ffffffffffffffffffffffffffffffffffffffff1673ffffffffffffffffffffffffffffffffffffffff16815260200190815260200160002054815260200190815260200160002060050160009054906101000a900473ffffffffffffffffffffffffffffffffffffffff1673ffffffffffffffffffffffffffffffffffffffff1614905090565b60078b511015613280576040517f08c379a0000000000000000000000000000000000000000000000000000000008152600401613277906149f0565b60405180910390fd5b6000600b6000815461329190615113565b919050819055905060006040518060a001604052808a81526020018981526020018881526020018781526020018681525090506040518061014001604052808381526020018e81526020018b81526020018281526020018581526020016000815260200160008152602001600067ffffffffffffffff81111561333d577f4e487b7100000000000000000000000000000000000000000000000000000000600052604160045260246000fd5b60405190808252806020026020018201604052801561336b5781602001602082028036833780820191505090505b508152602001600067ffffffffffffffff8111156133b2577f4e487b7100000000000000000000000000000000000000000000000000000000600052604160045260246000fd5b6040519080825280602002602001820160405280156133e05781602001602082028036833780820191505090505b5081526020018481525060016000848152602001908152602001600020600082015181600001556020820151816001019080519060200190613423929190613e7e565b506040820151816002019080519060200190613440929190613df8565b506060820151816003016000820151816000019080519060200190613466929190613df8565b506020820151816001019080519060200190613483929190613df8565b5060408201518160020190805190602001906134a0929190613df8565b5060608201518160030190805190602001906134bd929190613df8565b5060808201518160040190805190602001906134da929190613df8565b50505060808201518160080190805190602001906134f9929190613df8565b5060a0820151816009015560c082015181600a015560e082015181600b01908051906020019061352a929190613e7e565b5061010082015181600c019080519060200190613548929190613e7e565b5061012082015181600d015590505060005b8d518110156137755760008e828151811061359e577f4e487b7100000000000000000000000000000000000000000000000000000000600052603260045260246000fd5b60200260200101519050600360008083815260200190815260200160002060090160006101000a81548160ff02191690836005811115613607577f4e487b7100000000000000000000000000000000000000000000000000000000600052602160045260246000fd5b02179055508d81141561367957600080600083815260200190815260200160002060090160006101000a81548160ff02191690836005811115613673577f4e487b7100000000000000000000000000000000000000000000000000000000600052602160045260246000fd5b02179055505b8c8114156136e657600260008083815260200190815260200160002060090160006101000a81548160ff021916908360058111156136e0577f4e487b7100000000000000000000000000000000000000000000000000000000600052602160045260246000fd5b02179055505b600b546008600080600085815260200190815260200160002060050160009054906101000a900473ffffffffffffffffffffffffffffffffffffffff1673ffffffffffffffffffffffffffffffffffffffff1673ffffffffffffffffffffffffffffffffffffffff1681526020019081526020016000208190555050808061376d90615113565b91505061355a565b50600288604051613786919061499c565b908152602001604051809103902082908060018154018082558091505060019003906000526020600020016000909190919091505550505050505050505050505050565b60608160008060008381526020019081526020016000206000015414156137f057600080fd5b60008084815260200190815260200160002060060180548060200260200160405190810160405280929190818152602001828054801561384f57602002820191906000526020600020905b81548152602001906001019080831161383b575b5050505050915050919050565b8160006003600083815260200190815260200160002060000154141561388157600080fd5b3073ffffffffffffffffffffffffffffffffffffffff166108fc839081150290604051600060405180830381858888f193505050501580156138c7573d6000803e3d6000fd5b5060016007600086815260200190815260200160002060040160006101000a81548160ff02191690836003811115613928577f4e487b7100000000000000000000000000000000000000000000000000000000600052602160045260246000fd5b021790555081600160006007600088815260200190815260200160002060010154815260200190815260200160002060090160008282546139699190614ea2565b9250508190555050505050565b60056020528060005260406000206000915090508060000154908060010154908060020154908060030154908060040154908060050154908060060154908060070154905088565b60046020528060005260406000206000915090505481565b8160008060008381526020019081526020016000206000015414156139fa57600080fd5b82600660008481526020019081526020016000206001015414613a1c57600080fd5b600080600090505b600c54811015613a67578460066000838152602001908152602001600020600101541415613a5457809150613a67565b8080613a5f90615113565b915050613a24565b506006600082815260200190815260200160002060008082016000905560018201600090556002820160009055600382016000613aa49190613ecb565b60048201600090556005820160006101000a81549060ff02191690556006820160009055600782016000613ad89190613f0b565b505050505050565b60008060066000848152602001908152602001600020600701905060005b8180549050811015613bb257600460003373ffffffffffffffffffffffffffffffffffffffff1673ffffffffffffffffffffffffffffffffffffffff16815260200190815260200160002054828281548110613b83577f4e487b7100000000000000000000000000000000000000000000000000000000600052603260045260246000fd5b90600052602060002001541415613b9f57600092505050613bb9565b8080613baa90615113565b915050613afe565b5060019150505b919050565b600080600090505b60018451613bd49190614f83565b811015613c405782848281518110613c15577f4e487b7100000000000000000000000000000000000000000000000000000000600052603260045260246000fd5b60200260200101511415613c2d576001915050613c46565b8080613c3890615113565b915050613bc6565b50600090505b92915050565b600080600090505b8351811015613cc15782848281518110613c97577f4e487b7100000000000000000000000000000000000000000000000000000000600052603260045260246000fd5b60200260200101511415613cae5780915050613cc7565b8080613cb990615113565b915050613c54565b50600090505b92915050565b606082518210613cdc57600080fd5b60008290505b60018451613cf09190614f83565b811015613d9c5783600182613d059190614ea2565b81518110613d3c577f4e487b7100000000000000000000000000000000000000000000000000000000600052603260045260246000fd5b6020026020010151848281518110613d7d577f4e487b7100000000000000000000000000000000000000000000000000000000600052603260045260246000fd5b6020026020010181815250508080613d9490615113565b915050613ce2565b508260018451613dac9190614f83565b81518110613de3577f4e487b7100000000000000000000000000000000000000000000000000000000600052603260045260246000fd5b60200260200101600081525082905092915050565b828054613e04906150b0565b90600052602060002090601f016020900481019282613e265760008555613e6d565b82601f10613e3f57805160ff1916838001178555613e6d565b82800160010185558215613e6d579182015b82811115613e6c578251825591602001919060010190613e51565b5b509050613e7a9190613f2c565b5090565b828054828255906000526020600020908101928215613eba579160200282015b82811115613eb9578251825591602001919060010190613e9e565b5b509050613ec79190613f2c565b5090565b508054613ed7906150b0565b6000825580601f10613ee95750613f08565b601f016020900490600052602060002090810190613f079190613f2c565b5b50565b5080546000825590600052602060002090810190613f299190613f2c565b50565b5b80821115613f45576000816000905550600101613f2d565b5090565b6000613f5c613f5784614dd4565b614daf565b90508083825260208201905082856020860282011115613f7b57600080fd5b60005b85811015613fab5781613f918882614086565b845260208401935060208301925050600181019050613f7e565b5050509392505050565b6000613fc8613fc384614e00565b614daf565b905082815260208101848484011115613fe057600080fd5b613feb84828561506e565b509392505050565b600081359050614002816153b0565b92915050565b600082601f83011261401957600080fd5b8135614029848260208601613f49565b91505092915050565b600081359050614041816153c7565b92915050565b600081359050614056816153d7565b92915050565b600082601f83011261406d57600080fd5b813561407d848260208601613fb5565b91505092915050565b600081359050614095816153e7565b92915050565b6000602082840312156140ad57600080fd5b60006140bb84828501613ff3565b91505092915050565b60008060008060008060008060008060006101608c8e0312156140e657600080fd5b60008c013567ffffffffffffffff81111561410057600080fd5b61410c8e828f01614008565b9b5050602061411d8e828f01614086565b9a5050604061412e8e828f01614086565b99505060608c013567ffffffffffffffff81111561414b57600080fd5b6141578e828f0161405c565b98505060808c013567ffffffffffffffff81111561417457600080fd5b6141808e828f0161405c565b97505060a08c013567ffffffffffffffff81111561419d57600080fd5b6141a98e828f0161405c565b96505060c08c013567ffffffffffffffff8111156141c657600080fd5b6141d28e828f0161405c565b95505060e08c013567ffffffffffffffff8111156141ef57600080fd5b6141fb8e828f0161405c565b9450506101008c013567ffffffffffffffff81111561421957600080fd5b6142258e828f0161405c565b9350506101208c013567ffffffffffffffff81111561424357600080fd5b61424f8e828f0161405c565b9250506101406142618e828f01614086565b9150509295989b509295989b9093969950565b60006020828403121561428657600080fd5b600082013567ffffffffffffffff8111156142a057600080fd5b6142ac8482850161405c565b91505092915050565b600080600080608085870312156142cb57600080fd5b600085013567ffffffffffffffff8111156142e557600080fd5b6142f18782880161405c565b945050602061430287828801613ff3565b935050604085013567ffffffffffffffff81111561431f57600080fd5b61432b8782880161405c565b925050606061433c87828801614086565b91505092959194509250565b6000806000806000806000806000806101408b8d03121561436857600080fd5b60008b013567ffffffffffffffff81111561438257600080fd5b61438e8d828e0161405c565b9a505060208b013567ffffffffffffffff8111156143ab57600080fd5b6143b78d828e0161405c565b99505060406143c88d828e01614086565b98505060608b013567ffffffffffffffff8111156143e557600080fd5b6143f18d828e0161405c565b97505060806144028d828e01614032565b96505060a08b013567ffffffffffffffff81111561441f57600080fd5b61442b8d828e0161405c565b95505060c08b013567ffffffffffffffff81111561444857600080fd5b6144548d828e0161405c565b94505060e08b013567ffffffffffffffff81111561447157600080fd5b61447d8d828e0161405c565b9350506101008b013567ffffffffffffffff81111561449b57600080fd5b6144a78d828e0161405c565b9250506101208b013567ffffffffffffffff8111156144c557600080fd5b6144d18d828e0161405c565b9150509295989b9194979a5092959850565b600080604083850312156144f657600080fd5b600083013567ffffffffffffffff81111561451057600080fd5b61451c8582860161405c565b925050602061452d85828601614086565b9150509250929050565b60006020828403121561454957600080fd5b600061455784828501614086565b91505092915050565b6000806040838503121561457357600080fd5b600061458185828601614086565b925050602061459285828601614047565b9150509250929050565b600080604083850312156145af57600080fd5b60006145bd85828601614086565b92505060206145ce85828601614086565b9150509250929050565b6000806000606084860312156145ed57600080fd5b60006145fb86828701614086565b935050602061460c86828701614086565b925050604061461d86828701614086565b9150509250925092565b600080600080600060a0868803121561463f57600080fd5b600061464d88828901614086565b955050602061465e88828901614086565b945050604061466f88828901614086565b935050606086013567ffffffffffffffff81111561468c57600080fd5b6146988882890161405c565b92505060806146a988828901614086565b9150509295509295909350565b60006146c2838361497e565b60208301905092915050565b6146d781614fb7565b82525050565b60006146e882614e41565b6146f28185614e64565b93506146fd83614e31565b8060005b8381101561472e57815161471588826146b6565b975061472083614e57565b925050600181019050614701565b5085935050505092915050565b61474481614fc9565b82525050565b61475381615038565b82525050565b6147628161504a565b82525050565b6147718161505c565b82525050565b600061478282614e4c565b61478c8185614e75565b935061479c81856020860161507d565b6147a581615247565b840191505092915050565b60006147bb82614e4c565b6147c58185614e86565b93506147d581856020860161507d565b6147de81615247565b840191505092915050565b60006147f482614e4c565b6147fe8185614e97565b935061480e81856020860161507d565b80840191505092915050565b6000614827601a83614e86565b915061483282615258565b602082019050919050565b600061484a601283614e86565b915061485582615281565b602082019050919050565b600061486d602583614e86565b9150614878826152aa565b604082019050919050565b6000614890601283614e86565b915061489b826152f9565b602082019050919050565b60006148b3601283614e86565b91506148be82615322565b602082019050919050565b60006148d6601383614e86565b91506148e18261534b565b602082019050919050565b600060a08301600083015184820360008601526149098282614777565b915050602083015184820360208601526149238282614777565b9150506040830151848203604086015261493d8282614777565b915050606083015184820360608601526149578282614777565b915050608083015184820360808601526149718282614777565b9150508091505092915050565b6149878161502e565b82525050565b6149968161502e565b82525050565b60006149a882846147e9565b915081905092915050565b600060208201905081810360008301526149cd81846146dd565b905092915050565b60006020820190506149ea600083018461473b565b92915050565b60006020820190508181036000830152614a098161481a565b9050919050565b60006020820190508181036000830152614a298161483d565b9050919050565b60006020820190508181036000830152614a4981614860565b9050919050565b60006020820190508181036000830152614a6981614883565b9050919050565b60006020820190508181036000830152614a89816148a6565b9050919050565b60006020820190508181036000830152614aa9816148c9565b9050919050565b6000602082019050614ac5600083018461498d565b92915050565b600060a082019050614ae0600083018861498d565b8181036020830152614af281876147b0565b9050614b0160408301866146ce565b8181036060830152614b1381856147b0565b9050614b22608083018461498d565b9695505050505050565b600061014082019050614b42600083018d61498d565b8181036020830152614b54818c6147b0565b90508181036040830152614b68818b6147b0565b9050614b77606083018a61498d565b8181036080830152614b8981896147b0565b9050614b9860a08301886146ce565b614ba560c083018761498d565b614bb260e0830186614768565b614bc061010083018561474a565b818103610120830152614bd381846148ec565b90509b9a5050505050505050505050565b600060e082019050614bf9600083018a61498d565b8181036020830152614c0b81896147b0565b90508181036040830152614c1f81886148ec565b90508181036060830152614c3381876147b0565b9050614c42608083018661498d565b614c4f60a083018561498d565b614c5c60c083018461498d565b98975050505050505050565b600060e082019050614c7d600083018a61498d565b614c8a602083018961498d565b614c97604083018861498d565b8181036060830152614ca981876147b0565b9050614cb8608083018661498d565b614cc560a0830185614759565b614cd260c083018461498d565b98975050505050505050565b600060a082019050614cf3600083018861498d565b614d00602083018761498d565b614d0d604083018661498d565b614d1a606083018561498d565b614d276080830184614759565b9695505050505050565b600061010082019050614d47600083018b61498d565b614d54602083018a61498d565b614d61604083018961498d565b614d6e606083018861498d565b614d7b608083018761498d565b614d8860a083018661498d565b614d9560c083018561498d565b614da260e083018461498d565b9998505050505050505050565b6000614db9614dca565b9050614dc582826150e2565b919050565b6000604051905090565b600067ffffffffffffffff821115614def57614dee615218565b5b602082029050602081019050919050565b600067ffffffffffffffff821115614e1b57614e1a615218565b5b614e2482615247565b9050602081019050919050565b6000819050602082019050919050565b600081519050919050565b600081519050919050565b6000602082019050919050565b600082825260208201905092915050565b600082825260208201905092915050565b600082825260208201905092915050565b600081905092915050565b6000614ead8261502e565b9150614eb88361502e565b9250827fffffffffffffffffffffffffffffffffffffffffffffffffffffffffffffffff03821115614eed57614eec61515c565b5b828201905092915050565b6000614f038261502e565b9150614f0e8361502e565b925082614f1e57614f1d61518b565b5b828204905092915050565b6000614f348261502e565b9150614f3f8361502e565b9250817fffffffffffffffffffffffffffffffffffffffffffffffffffffffffffffffff0483118215151615614f7857614f7761515c565b5b828202905092915050565b6000614f8e8261502e565b9150614f998361502e565b925082821015614fac57614fab61515c565b5b828203905092915050565b6000614fc28261500e565b9050919050565b60008115159050919050565b6000819050614fe382615374565b919050565b6000819050614ff682615388565b919050565b60008190506150098261539c565b919050565b600073ffffffffffffffffffffffffffffffffffffffff82169050919050565b6000819050919050565b600061504382614fd5565b9050919050565b600061505582614fe8565b9050919050565b600061506782614ffb565b9050919050565b82818337600083830152505050565b60005b8381101561509b578082015181840152602081019050615080565b838111156150aa576000848401525b50505050565b600060028204905060018216806150c857607f821691505b602082108114156150dc576150db6151e9565b5b50919050565b6150eb82615247565b810181811067ffffffffffffffff8211171561510a57615109615218565b5b80604052505050565b600061511e8261502e565b91507fffffffffffffffffffffffffffffffffffffffffffffffffffffffffffffffff8214156151515761515061515c565b5b600182019050919050565b7f4e487b7100000000000000000000000000000000000000000000000000000000600052601160045260246000fd5b7f4e487b7100000000000000000000000000000000000000000000000000000000600052601260045260246000fd5b7f4e487b7100000000000000000000000000000000000000000000000000000000600052602160045260246000fd5b7f4e487b7100000000000000000000000000000000000000000000000000000000600052602260045260246000fd5b7f4e487b7100000000000000000000000000000000000000000000000000000000600052604160045260246000fd5b6000601f19601f8301169050919050565b7f41746c656173742037206d656d62657273207265717569726564000000000000600082015250565b7f416c726561647920526567697374657265640000000000000000000000000000600082015250565b7f5573657220697320616c7265616479206e6f7420612070617274206f6620746860008201527f6520534847000000000000000000000000000000000000000000000000000000602082015250565b7f5573657220616c72656164792061646465640000000000000000000000000000600082015250565b7f556e617070726f76656420726571756573740000000000000000000000000000600082015250565b7f556e617574686f72697a65642072657165737400000000000000000000000000600082015250565b60038110615385576153846151ba565b5b50565b60048110615399576153986151ba565b5b50565b600681106153ad576153ac6151ba565b5b50565b6153b981614fb7565b81146153c457600080fd5b50565b600381106153d457600080fd5b50565b600681106153e457600080fd5b50565b6153f08161502e565b81146153fb57600080fd5b5056fea26469706673582212201c8bd7b6b05741c40f3a50b93559eb80bb0ab4352e668feacc7bd7d75d3dc44464736f6c63430008040033",
  "immutableReferences": {},
  "source": "// SPDX-License-Identifier: MIT\npragma solidity ^0.8.1;\nimport \"./lib/Bank.sol\";\nimport \"./lib/SHG.sol\";\nimport \"./lib/User.sol\";\n\ncontract Yogdaan is Bank, SHG, User {\n    address admin;\n\n    constructor() {\n        admin = msg.sender;\n    }\n}\n",
  "sourcePath": "/home/sdas/code/yogdaan-contracts/contracts/yogdaan.sol",
  "compiler": {
    "name": "solc",
    "version": "0.8.4+commit.c7e474f2.Emscripten.clang"
  },
  "schemaVersion": "3.4.9",
  "updatedAt": "2022-08-25T19:03:27.100Z",
  "networkType": "ethereum",
  "devdoc": {
    "kind": "dev",
    "methods": {},
    "version": 1
  },
  "userdoc": {
    "kind": "user",
    "methods": {},
    "version": 1
  }
}