{
  "contractName": "Yogdaan",
  "abi": [
    {
      "inputs": [],
      "stateMutability": "nonpayable",
      "type": "constructor"
    },
    {
      "inputs": [
        {
          "internalType": "string",
          "name": "_name",
          "type": "string"
        },
        {
          "internalType": "address",
          "name": "_walletAddress",
          "type": "address"
        },
        {
          "internalType": "string",
          "name": "_code",
          "type": "string"
        },
        {
          "internalType": "uint256",
          "name": "_intrestRate",
          "type": "uint256"
        }
      ],
      "name": "addBank",
      "outputs": [],
      "stateMutability": "nonpayable",
      "type": "function"
    },
    {
      "inputs": [
        {
          "internalType": "uint256",
          "name": "_amount",
          "type": "uint256"
        },
        {
          "internalType": "uint256",
          "name": "_shgid",
          "type": "uint256"
        }
      ],
      "name": "addMoney",
      "outputs": [],
      "stateMutability": "payable",
      "type": "function",
      "payable": true
    },
    {
      "inputs": [
        {
          "internalType": "uint256[]",
          "name": "members",
          "type": "uint256[]"
        },
        {
          "internalType": "uint256",
          "name": "president",
          "type": "uint256"
        },
        {
          "internalType": "uint256",
          "name": "treasurer",
          "type": "uint256"
        },
        {
          "internalType": "string",
          "name": "name",
          "type": "string"
        },
        {
          "internalType": "string",
          "name": "_state",
          "type": "string"
        },
        {
          "internalType": "string",
          "name": "_district",
          "type": "string"
        },
        {
          "internalType": "string",
          "name": "_blockName",
          "type": "string"
        },
        {
          "internalType": "string",
          "name": "_panchyatName",
          "type": "string"
        },
        {
          "internalType": "string",
          "name": "_villageName",
          "type": "string"
        },
        {
          "internalType": "string",
          "name": "dateOfFormation",
          "type": "string"
        },
        {
          "internalType": "uint256",
          "name": "_baseIntrest",
          "type": "uint256"
        }
      ],
      "name": "addSHG",
      "outputs": [],
      "stateMutability": "nonpayable",
      "type": "function"
    },
    {
      "inputs": [
        {
          "internalType": "uint256",
          "name": "userid",
          "type": "uint256"
        },
        {
          "internalType": "uint256",
          "name": "shg",
          "type": "uint256"
        }
      ],
      "name": "addSHGMember",
      "outputs": [],
      "stateMutability": "nonpayable",
      "type": "function"
    },
    {
      "inputs": [
        {
          "internalType": "string",
          "name": "name",
          "type": "string"
        },
        {
          "internalType": "string",
          "name": "aadhar",
          "type": "string"
        },
        {
          "internalType": "uint256",
          "name": "mobno",
          "type": "uint256"
        },
        {
          "internalType": "string",
          "name": "fatherName",
          "type": "string"
        },
        {
          "internalType": "enum structs.Gender",
          "name": "gender",
          "type": "uint8"
        },
        {
          "internalType": "string",
          "name": "_state",
          "type": "string"
        },
        {
          "internalType": "string",
          "name": "_district",
          "type": "string"
        },
        {
          "internalType": "string",
          "name": "_blockName",
          "type": "string"
        },
        {
          "internalType": "string",
          "name": "_panchyatName",
          "type": "string"
        },
        {
          "internalType": "string",
          "name": "_villageName",
          "type": "string"
        }
      ],
      "name": "addUser",
      "outputs": [],
      "stateMutability": "nonpayable",
      "type": "function"
    },
    {
      "inputs": [
        {
          "internalType": "address",
          "name": "",
          "type": "address"
        }
      ],
      "name": "addressToBankid",
      "outputs": [
        {
          "internalType": "uint256",
          "name": "",
          "type": "uint256"
        }
      ],
      "stateMutability": "view",
      "type": "function",
      "constant": true
    },
    {
      "inputs": [
        {
          "internalType": "address",
          "name": "",
          "type": "address"
        }
      ],
      "name": "addressToSHGid",
      "outputs": [
        {
          "internalType": "uint256",
          "name": "",
          "type": "uint256"
        }
      ],
      "stateMutability": "view",
      "type": "function",
      "constant": true
    },
    {
      "inputs": [
        {
          "internalType": "address",
          "name": "",
          "type": "address"
        }
      ],
      "name": "addressToUser",
      "outputs": [
        {
          "internalType": "uint256",
          "name": "",
          "type": "uint256"
        }
      ],
      "stateMutability": "view",
      "type": "function",
      "constant": true
    },
    {
      "inputs": [
        {
          "internalType": "uint256",
          "name": "_shgrequestid",
          "type": "uint256"
        },
        {
          "internalType": "uint256",
          "name": "_bankid",
          "type": "uint256"
        }
      ],
      "name": "approveLoan",
      "outputs": [],
      "stateMutability": "nonpayable",
      "type": "function"
    },
    {
      "inputs": [
        {
          "internalType": "uint256",
          "name": "_requestid",
          "type": "uint256"
        },
        {
          "internalType": "uint256",
          "name": "_shgid",
          "type": "uint256"
        }
      ],
      "name": "approveRequest",
      "outputs": [],
      "stateMutability": "nonpayable",
      "type": "function"
    },
    {
      "inputs": [
        {
          "internalType": "uint256",
          "name": "",
          "type": "uint256"
        }
      ],
      "name": "banks",
      "outputs": [
        {
          "internalType": "uint256",
          "name": "id",
          "type": "uint256"
        },
        {
          "internalType": "string",
          "name": "name",
          "type": "string"
        },
        {
          "internalType": "address",
          "name": "walletAddress",
          "type": "address"
        },
        {
          "internalType": "string",
          "name": "code",
          "type": "string"
        },
        {
          "internalType": "uint256",
          "name": "intrestRate",
          "type": "uint256"
        }
      ],
      "stateMutability": "view",
      "type": "function",
      "constant": true
    },
    {
      "inputs": [
        {
          "internalType": "uint256",
          "name": "_userid",
          "type": "uint256"
        },
        {
          "internalType": "uint256",
          "name": "_requestid",
          "type": "uint256"
        }
      ],
      "name": "deleteRequest",
      "outputs": [],
      "stateMutability": "nonpayable",
      "type": "function"
    },
    {
      "inputs": [
        {
          "internalType": "string",
          "name": "",
          "type": "string"
        },
        {
          "internalType": "uint256",
          "name": "",
          "type": "uint256"
        }
      ],
      "name": "districtToSHGs",
      "outputs": [
        {
          "internalType": "uint256",
          "name": "",
          "type": "uint256"
        }
      ],
      "stateMutability": "view",
      "type": "function",
      "constant": true
    },
    {
      "inputs": [
        {
          "internalType": "uint256",
          "name": "bankid",
          "type": "uint256"
        }
      ],
      "name": "getAllBanks",
      "outputs": [
        {
          "components": [
            {
              "internalType": "uint256",
              "name": "id",
              "type": "uint256"
            },
            {
              "internalType": "string",
              "name": "name",
              "type": "string"
            },
            {
              "internalType": "address",
              "name": "walletAddress",
              "type": "address"
            },
            {
              "internalType": "string",
              "name": "code",
              "type": "string"
            },
            {
              "internalType": "uint256",
              "name": "intrestRate",
              "type": "uint256"
            },
            {
              "internalType": "uint256[]",
              "name": "requests",
              "type": "uint256[]"
            }
          ],
          "internalType": "struct structs.Bank",
          "name": "",
          "type": "tuple"
        }
      ],
      "stateMutability": "view",
      "type": "function",
      "constant": true
    },
    {
      "inputs": [
        {
          "internalType": "uint256",
          "name": "userid",
          "type": "uint256"
        }
      ],
      "name": "getAllLoans",
      "outputs": [
        {
          "internalType": "uint256[]",
          "name": "",
          "type": "uint256[]"
        }
      ],
      "stateMutability": "view",
      "type": "function",
      "constant": true
    },
    {
      "inputs": [],
      "name": "getNumUsers",
      "outputs": [
        {
          "internalType": "uint256",
          "name": "",
          "type": "uint256"
        }
      ],
      "stateMutability": "view",
      "type": "function",
      "constant": true
    },
    {
      "inputs": [
        {
          "internalType": "uint256",
          "name": "_shgid",
          "type": "uint256"
        },
        {
          "internalType": "uint256",
          "name": "_loanid",
          "type": "uint256"
        }
      ],
      "name": "getSHGEMI",
      "outputs": [
        {
          "internalType": "uint256",
          "name": "",
          "type": "uint256"
        }
      ],
      "stateMutability": "nonpayable",
      "type": "function"
    },
    {
      "inputs": [
        {
          "internalType": "uint256",
          "name": "shgid",
          "type": "uint256"
        }
      ],
      "name": "getSHGMembers",
      "outputs": [
        {
          "internalType": "uint256[]",
          "name": "",
          "type": "uint256[]"
        }
      ],
      "stateMutability": "view",
      "type": "function",
      "constant": true
    },
    {
      "inputs": [
        {
          "internalType": "uint256",
          "name": "_shgid",
          "type": "uint256"
        }
      ],
      "name": "getSHGRequests",
      "outputs": [
        {
          "internalType": "uint256[]",
          "name": "",
          "type": "uint256[]"
        }
      ],
      "stateMutability": "nonpayable",
      "type": "function"
    },
    {
      "inputs": [],
      "name": "getTotalBanks",
      "outputs": [
        {
          "internalType": "uint256",
          "name": "",
          "type": "uint256"
        }
      ],
      "stateMutability": "view",
      "type": "function",
      "constant": true
    },
    {
      "inputs": [
        {
          "internalType": "uint256",
          "name": "userid",
          "type": "uint256"
        },
        {
          "internalType": "uint256",
          "name": "loanid",
          "type": "uint256"
        }
      ],
      "name": "getUserEMI",
      "outputs": [
        {
          "internalType": "uint256",
          "name": "",
          "type": "uint256"
        }
      ],
      "stateMutability": "nonpayable",
      "type": "function"
    },
    {
      "inputs": [
        {
          "internalType": "uint256",
          "name": "_userid",
          "type": "uint256"
        }
      ],
      "name": "getUserLoanAmount",
      "outputs": [
        {
          "internalType": "uint256",
          "name": "",
          "type": "uint256"
        }
      ],
      "stateMutability": "view",
      "type": "function",
      "constant": true
    },
    {
      "inputs": [
        {
          "internalType": "uint256",
          "name": "_userid",
          "type": "uint256"
        }
      ],
      "name": "getUserRequest",
      "outputs": [
        {
          "internalType": "uint256[]",
          "name": "",
          "type": "uint256[]"
        }
      ],
      "stateMutability": "view",
      "type": "function",
      "constant": true
    },
    {
      "inputs": [
        {
          "internalType": "uint256",
          "name": "_shgrequestid",
          "type": "uint256"
        },
        {
          "internalType": "uint256",
          "name": "_bankid",
          "type": "uint256"
        },
        {
          "internalType": "uint256",
          "name": "_amount",
          "type": "uint256"
        }
      ],
      "name": "grantLoan",
      "outputs": [],
      "stateMutability": "nonpayable",
      "type": "function"
    },
    {
      "inputs": [
        {
          "internalType": "uint256",
          "name": "",
          "type": "uint256"
        }
      ],
      "name": "loans",
      "outputs": [
        {
          "internalType": "uint256",
          "name": "loanId",
          "type": "uint256"
        },
        {
          "internalType": "uint256",
          "name": "lenderId",
          "type": "uint256"
        },
        {
          "internalType": "uint256",
          "name": "amount",
          "type": "uint256"
        },
        {
          "internalType": "uint256",
          "name": "lendeeId",
          "type": "uint256"
        },
        {
          "internalType": "uint256",
          "name": "intrest",
          "type": "uint256"
        },
        {
          "internalType": "uint256",
          "name": "loanTime",
          "type": "uint256"
        },
        {
          "internalType": "uint256",
          "name": "date",
          "type": "uint256"
        },
        {
          "internalType": "uint256",
          "name": "lastEMI",
          "type": "uint256"
        }
      ],
      "stateMutability": "view",
      "type": "function",
      "constant": true
    },
    {
      "inputs": [],
      "name": "login",
      "outputs": [
        {
          "internalType": "bool",
          "name": "",
          "type": "bool"
        }
      ],
      "stateMutability": "view",
      "type": "function",
      "constant": true
    },
    {
      "inputs": [
        {
          "internalType": "uint256",
          "name": "_shgid",
          "type": "uint256"
        },
        {
          "internalType": "uint256",
          "name": "_userid",
          "type": "uint256"
        },
        {
          "internalType": "uint256",
          "name": "_amount",
          "type": "uint256"
        },
        {
          "internalType": "string",
          "name": "_description",
          "type": "string"
        },
        {
          "internalType": "uint256",
          "name": "_loanTime",
          "type": "uint256"
        }
      ],
      "name": "makeRequest",
      "outputs": [],
      "stateMutability": "nonpayable",
      "type": "function"
    },
    {
      "inputs": [
        {
          "internalType": "uint256",
          "name": "_userid",
          "type": "uint256"
        },
        {
          "internalType": "uint256",
          "name": "_loanid",
          "type": "uint256"
        },
        {
          "internalType": "uint256",
          "name": "_amount",
          "type": "uint256"
        }
      ],
      "name": "payEMI",
      "outputs": [],
      "stateMutability": "payable",
      "type": "function",
      "payable": true
    },
    {
      "inputs": [
        {
          "internalType": "uint256",
          "name": "userid",
          "type": "uint256"
        },
        {
          "internalType": "uint256",
          "name": "shgid",
          "type": "uint256"
        }
      ],
      "name": "removeSHGMember",
      "outputs": [],
      "stateMutability": "nonpayable",
      "type": "function"
    },
    {
      "inputs": [
        {
          "internalType": "uint256",
          "name": "_requestid",
          "type": "uint256"
        }
      ],
      "name": "sendGrant",
      "outputs": [],
      "stateMutability": "nonpayable",
      "type": "function"
    },
    {
      "inputs": [
        {
          "internalType": "uint256",
          "name": "_shgid",
          "type": "uint256"
        },
        {
          "internalType": "uint256",
          "name": "_amount",
          "type": "uint256"
        },
        {
          "internalType": "uint256",
          "name": "_loanTime",
          "type": "uint256"
        }
      ],
      "name": "sendRequestToBank",
      "outputs": [],
      "stateMutability": "nonpayable",
      "type": "function"
    },
    {
      "inputs": [
        {
          "internalType": "uint256",
          "name": "_bankid",
          "type": "uint256"
        },
        {
          "internalType": "uint256",
          "name": "_requestid",
          "type": "uint256"
        },
        {
          "internalType": "uint256",
          "name": "_amount",
          "type": "uint256"
        }
      ],
      "name": "shgLoan",
      "outputs": [],
      "stateMutability": "payable",
      "type": "function",
      "payable": true
    },
    {
      "inputs": [
        {
          "internalType": "uint256",
          "name": "_shgid",
          "type": "uint256"
        },
        {
          "internalType": "uint256",
          "name": "_loanid",
          "type": "uint256"
        },
        {
          "internalType": "uint256",
          "name": "_amount",
          "type": "uint256"
        }
      ],
      "name": "shgPayEMI",
      "outputs": [],
      "stateMutability": "nonpayable",
      "type": "function"
    },
    {
      "inputs": [
        {
          "internalType": "uint256",
          "name": "",
          "type": "uint256"
        }
      ],
      "name": "shgRequests",
      "outputs": [
        {
          "internalType": "uint256",
          "name": "requestid",
          "type": "uint256"
        },
        {
          "internalType": "uint256",
          "name": "shgid",
          "type": "uint256"
        },
        {
          "internalType": "uint256",
          "name": "amount",
          "type": "uint256"
        },
        {
          "internalType": "uint256",
          "name": "loanTime",
          "type": "uint256"
        },
        {
          "internalType": "enum structs.RequestStatus",
          "name": "status",
          "type": "uint8"
        }
      ],
      "stateMutability": "view",
      "type": "function",
      "constant": true
    },
    {
      "inputs": [
        {
          "internalType": "uint256",
          "name": "",
          "type": "uint256"
        },
        {
          "internalType": "uint256",
          "name": "",
          "type": "uint256"
        }
      ],
      "name": "shgToRequests",
      "outputs": [
        {
          "internalType": "uint256",
          "name": "",
          "type": "uint256"
        }
      ],
      "stateMutability": "view",
      "type": "function",
      "constant": true
    },
    {
      "inputs": [
        {
          "internalType": "uint256",
          "name": "",
          "type": "uint256"
        }
      ],
      "name": "shgs",
      "outputs": [
        {
          "internalType": "uint256",
          "name": "id",
          "type": "uint256"
        },
        {
          "internalType": "string",
          "name": "name",
          "type": "string"
        },
        {
          "components": [
            {
              "internalType": "string",
              "name": "state",
              "type": "string"
            },
            {
              "internalType": "string",
              "name": "district",
              "type": "string"
            },
            {
              "internalType": "string",
              "name": "blockName",
              "type": "string"
            },
            {
              "internalType": "string",
              "name": "panchyatName",
              "type": "string"
            },
            {
              "internalType": "string",
              "name": "villageName",
              "type": "string"
            }
          ],
          "internalType": "struct structs.Location",
          "name": "location",
          "type": "tuple"
        },
        {
          "internalType": "string",
          "name": "dateOfFormation",
          "type": "string"
        },
        {
          "internalType": "uint256",
          "name": "currentBalance",
          "type": "uint256"
        },
        {
          "internalType": "uint256",
          "name": "owedBalance",
          "type": "uint256"
        },
        {
          "internalType": "uint256",
          "name": "baseIntrest",
          "type": "uint256"
        }
      ],
      "stateMutability": "view",
      "type": "function",
      "constant": true
    },
    {
      "inputs": [
        {
          "internalType": "string",
          "name": "district",
          "type": "string"
        }
      ],
      "name": "shgsOfDistrict",
      "outputs": [
        {
          "internalType": "uint256[]",
          "name": "",
          "type": "uint256[]"
        }
      ],
      "stateMutability": "view",
      "type": "function",
      "constant": true
    },
    {
      "inputs": [],
      "name": "totalNumSHGs",
      "outputs": [
        {
          "internalType": "uint256",
          "name": "",
          "type": "uint256"
        }
      ],
      "stateMutability": "view",
      "type": "function",
      "constant": true
    },
    {
      "inputs": [
        {
          "internalType": "uint256",
          "name": "id",
          "type": "uint256"
        },
        {
          "internalType": "enum structs.UserType",
          "name": "updatedType",
          "type": "uint8"
        }
      ],
      "name": "updateMemberRole",
      "outputs": [],
      "stateMutability": "nonpayable",
      "type": "function"
    },
    {
      "inputs": [
        {
          "internalType": "uint256",
          "name": "",
          "type": "uint256"
        }
      ],
      "name": "userRequests",
      "outputs": [
        {
          "internalType": "uint256",
          "name": "requestId",
          "type": "uint256"
        },
        {
          "internalType": "uint256",
          "name": "userId",
          "type": "uint256"
        },
        {
          "internalType": "uint256",
          "name": "amount",
          "type": "uint256"
        },
        {
          "internalType": "string",
          "name": "description",
          "type": "string"
        },
        {
          "internalType": "uint256",
          "name": "SHGId",
          "type": "uint256"
        },
        {
          "internalType": "enum structs.RequestStatus",
          "name": "status",
          "type": "uint8"
        },
        {
          "internalType": "uint256",
          "name": "loanTime",
          "type": "uint256"
        }
      ],
      "stateMutability": "view",
      "type": "function",
      "constant": true
    },
    {
      "inputs": [
        {
          "internalType": "uint256",
          "name": "_shgid",
          "type": "uint256"
        }
      ],
      "name": "userRequestsOfSHG",
      "outputs": [
        {
          "internalType": "uint256[]",
          "name": "",
          "type": "uint256[]"
        }
      ],
      "stateMutability": "view",
      "type": "function",
      "constant": true
    },
    {
      "inputs": [
        {
          "internalType": "uint256",
          "name": "",
          "type": "uint256"
        },
        {
          "internalType": "uint256",
          "name": "",
          "type": "uint256"
        }
      ],
      "name": "userToRequests",
      "outputs": [
        {
          "internalType": "uint256",
          "name": "",
          "type": "uint256"
        }
      ],
      "stateMutability": "view",
      "type": "function",
      "constant": true
    },
    {
      "inputs": [
        {
          "internalType": "uint256",
          "name": "",
          "type": "uint256"
        }
      ],
      "name": "users",
      "outputs": [
        {
          "internalType": "uint256",
          "name": "id",
          "type": "uint256"
        },
        {
          "internalType": "string",
          "name": "name",
          "type": "string"
        },
        {
          "internalType": "string",
          "name": "aadhar",
          "type": "string"
        },
        {
          "internalType": "uint256",
          "name": "mobno",
          "type": "uint256"
        },
        {
          "internalType": "string",
          "name": "fatherName",
          "type": "string"
        },
        {
          "internalType": "address",
          "name": "walletAddress",
          "type": "address"
        },
        {
          "internalType": "uint256",
          "name": "shgid",
          "type": "uint256"
        },
        {
          "internalType": "enum structs.UserType",
          "name": "userType",
          "type": "uint8"
        },
        {
          "internalType": "enum structs.Gender",
          "name": "gender",
          "type": "uint8"
        },
        {
          "components": [
            {
              "internalType": "string",
              "name": "state",
              "type": "string"
            },
            {
              "internalType": "string",
              "name": "district",
              "type": "string"
            },
            {
              "internalType": "string",
              "name": "blockName",
              "type": "string"
            },
            {
              "internalType": "string",
              "name": "panchyatName",
              "type": "string"
            },
            {
              "internalType": "string",
              "name": "villageName",
              "type": "string"
            }
          ],
          "internalType": "struct structs.Location",
          "name": "location",
          "type": "tuple"
        }
      ],
      "stateMutability": "view",
      "type": "function",
      "constant": true
    }
  ],
  "bytecode": "0x608060405234801561001057600080fd5b5033601260006101000a81548173ffffffffffffffffffffffffffffffffffffffff021916908373ffffffffffffffffffffffffffffffffffffffff160217905550615cf380620000626000396000f3fe60806040526004361061025b5760003560e01c80634f269c9211610144578063af08a94f116100b6578063d3f86fb81161007a578063d3f86fb8146109b3578063db223b4c146109f0578063e1ec3c6814610a19578063edf5388614610a5d578063f61074ff14610a9a578063f736ae4314610ad75761025b565b8063af08a94f146108c9578063b34e97e814610906578063bc1e72ad14610931578063bd95972c1461095a578063cfcb4b2f146109765761025b565b80637a646492116101085780637a646492146107a55780637d550bb3146107ce57806394169656146107f757806397e492dd1461083a5780639bbc9ab114610877578063a6e90a58146108a05761025b565b80634f269c92146106ac5780635df3fc81146106d557806361c91b701461070057806365f88c0d1461073d578063769d0e16146107685761025b565b806326271cf2116101dd57806339d8bed1116101a157806339d8bed1146105735780633ae0058f1461059c5780633c565757146105d95780633cec42721461061657806342f5f815146106535780634d82d8e81461066f5761025b565b806326271cf21461045b5780632c0a90a91461049e5780632e131046146104c7578063365b98b2146104f0578063368c2c53146105365761025b565b806311c988151161022457806311c988151461036d57806314795ce3146103985780631d3ff78a146103c1578063249c4bff146103fe578063257a170b1461041a5761025b565b806285ae2b14610260578063021af397146102a15780630227f435146102ca578063089511f7146102f35780630c1c788314610330575b600080fd5b34801561026c57600080fd5b5061028760048036038101906102829190614c2d565b610b00565b60405161029895949392919061532a565b60405180910390f35b3480156102ad57600080fd5b506102c860048036038101906102c39190614cce565b610c66565b005b3480156102d657600080fd5b506102f160048036038101906102ec9190614d1d565b610db7565b005b3480156102ff57600080fd5b5061031a60048036038101906103159190614c2d565b61100a565b604051610327919061530f565b60405180910390f35b34801561033c57600080fd5b5061035760048036038101906103529190614c92565b6110f1565b604051610364919061530f565b60405180910390f35b34801561037957600080fd5b50610382611122565b60405161038f919061530f565b60405180910390f35b3480156103a457600080fd5b506103bf60048036038101906103ba91906149ab565b61112c565b005b3480156103cd57600080fd5b506103e860048036038101906103e39190614c2d565b61130c565b6040516103f591906151d0565b60405180910390f35b61041860048036038101906104139190614cce565b611379565b005b34801561042657600080fd5b50610441600480360381019061043c9190614c2d565b611582565b60405161045295949392919061553d565b60405180910390f35b34801561046757600080fd5b50610482600480360381019061047d9190614c2d565b6115c5565b6040516104959796959493929190615443565b60405180910390f35b3480156104aa57600080fd5b506104c560048036038101906104c09190614c92565b6119fb565b005b3480156104d357600080fd5b506104ee60048036038101906104e99190614a3e565b611b0a565b005b3480156104fc57600080fd5b5061051760048036038101906105129190614c2d565b6120a8565b60405161052d9a9998979695949392919061538b565b60405180910390f35b34801561054257600080fd5b5061055d60048036038101906105589190614c2d565b6125b2565b60405161056a91906151d0565b60405180910390f35b34801561057f57600080fd5b5061059a60048036038101906105959190614c92565b612620565b005b3480156105a857600080fd5b506105c360048036038101906105be9190614791565b612736565b6040516105d0919061530f565b60405180910390f35b3480156105e557600080fd5b5061060060048036038101906105fb9190614c92565b61274e565b60405161060d919061530f565b60405180910390f35b34801561062257600080fd5b5061063d60048036038101906106389190614bd9565b612860565b60405161064a919061530f565b60405180910390f35b61066d60048036038101906106689190614cce565b6128a7565b005b34801561067b57600080fd5b5061069660048036038101906106919190614c2d565b612985565b6040516106a391906152ed565b60405180910390f35b3480156106b857600080fd5b506106d360048036038101906106ce9190614c56565b612b98565b005b3480156106e157600080fd5b506106ea612bff565b6040516106f7919061530f565b60405180910390f35b34801561070c57600080fd5b5061072760048036038101906107229190614791565b612c09565b604051610734919061530f565b60405180910390f35b34801561074957600080fd5b50610752612c21565b60405161075f919061530f565b60405180910390f35b34801561077457600080fd5b5061078f600480360381019061078a9190614c92565b612c2b565b60405161079c919061530f565b60405180910390f35b3480156107b157600080fd5b506107cc60048036038101906107c79190614c92565b612d3e565b005b3480156107da57600080fd5b506107f560048036038101906107f09190614cce565b612dcd565b005b34801561080357600080fd5b5061081e60048036038101906108199190614c2d565b612eac565b60405161083197969594939291906154c7565b60405180910390f35b34801561084657600080fd5b50610861600480360381019061085c919061496a565b612f83565b60405161086e91906151d0565b60405180910390f35b34801561088357600080fd5b5061089e60048036038101906108999190614c2d565b612ff9565b005b3480156108ac57600080fd5b506108c760048036038101906108c29190614c92565b6134a1565b005b3480156108d557600080fd5b506108f060048036038101906108eb9190614c2d565b613633565b6040516108fd91906151d0565b60405180910390f35b34801561091257600080fd5b5061091b6136a1565b60405161092891906151f2565b60405180910390f35b34801561093d57600080fd5b50610958600480360381019061095391906147ba565b61374b565b005b610974600480360381019061096f9190614c92565b613d6d565b005b34801561098257600080fd5b5061099d60048036038101906109989190614c2d565b613e3c565b6040516109aa91906151d0565b60405180910390f35b3480156109bf57600080fd5b506109da60048036038101906109d59190614c2d565b613ece565b6040516109e791906151d0565b60405180910390f35b3480156109fc57600080fd5b50610a176004803603810190610a129190614cce565b613fb3565b005b348015610a2557600080fd5b50610a406004803603810190610a3b9190614c2d565b6140cd565b604051610a54989796959493929190615590565b60405180910390f35b348015610a6957600080fd5b50610a846004803603810190610a7f9190614791565b614115565b604051610a91919061530f565b60405180910390f35b348015610aa657600080fd5b50610ac16004803603810190610abc9190614c92565b61412d565b604051610ace919061530f565b60405180910390f35b348015610ae357600080fd5b50610afe6004803603810190610af99190614c92565b61415e565b005b6003602052806000526040600020600091509050806000015490806001018054610b2990615920565b80601f0160208091040260200160405190810160405280929190818152602001828054610b5590615920565b8015610ba25780601f10610b7757610100808354040283529160200191610ba2565b820191906000526020600020905b815481529060010190602001808311610b8557829003601f168201915b5050505050908060020160009054906101000a900473ffffffffffffffffffffffffffffffffffffffff1690806003018054610bdd90615920565b80601f0160208091040260200160405190810160405280929190818152602001828054610c0990615920565b8015610c565780601f10610c2b57610100808354040283529160200191610c56565b820191906000526020600020905b815481529060010190602001808311610c3957829003601f168201915b5050505050908060040154905085565b6000600f6000815480929190610c7b90615983565b9190505590506040518060a00160405280828152602001858152602001848152602001838152602001600380811115610cdd577f4e487b7100000000000000000000000000000000000000000000000000000000600052602160045260246000fd5b815250600760008381526020019081526020016000206000820151816000015560208201518160010155604082015181600201556060820151816003015560808201518160040160006101000a81548160ff02191690836003811115610d6c577f4e487b7100000000000000000000000000000000000000000000000000000000600052602160045260246000fd5b021790555090505060016000858152602001908152602001600020600c0181908060018154018082558091505060019003906000526020600020016000909190919091505550505050565b6000600e60008154610dc890615983565b9190508190559050604051806101000160405280828152602001868152602001858152602001848152602001878152602001600380811115610e33577f4e487b7100000000000000000000000000000000000000000000000000000000600052602160045260246000fd5b8152602001838152602001600067ffffffffffffffff811115610e7f577f4e487b7100000000000000000000000000000000000000000000000000000000600052604160045260246000fd5b604051908082528060200260200182016040528015610ead5781602001602082028036833780820191505090505b50815250600660008381526020019081526020016000206000820151816000015560208201518160010155604082015181600201556060820151816003019080519060200190610efe9291906144a2565b506080820151816004015560a08201518160050160006101000a81548160ff02191690836003811115610f5a577f4e487b7100000000000000000000000000000000000000000000000000000000600052602160045260246000fd5b021790555060c0820151816006015560e0820151816007019080519060200190610f85929190614528565b5090505060008086815260200190815260200160002060070181908060018154018082558091505060019003906000526020600020016000909190919091505560016000878152602001908152602001600020600d01819080600181540180825580915050600190039060005260206000200160009091909190915055505050505050565b60008060009050600080600085815260200190815260200160002060060180548060200260200160405190810160405280929190818152602001828054801561107257602002820191906000526020600020905b81548152602001906001019080831161105e575b5050505050905060005b81518110156110e6578181815181106110be577f4e487b7100000000000000000000000000000000000000000000000000000000600052603260045260246000fd5b6020026020010151836110d19190615712565b925080806110de90615983565b91505061107c565b508192505050919050565b600a602052816000526040600020818154811061110d57600080fd5b90600052602060002001600091509150505481565b6000601054905090565b600060106000815461113d90615983565b91905081905590506040518060c001604052808281526020018681526020018573ffffffffffffffffffffffffffffffffffffffff168152602001848152602001838152602001600067ffffffffffffffff8111156111c5577f4e487b7100000000000000000000000000000000000000000000000000000000600052604160045260246000fd5b6040519080825280602002602001820160405280156111f35781602001602082028036833780820191505090505b50815250600360008381526020019081526020016000206000820151816000015560208201518160010190805190602001906112309291906144a2565b5060408201518160020160006101000a81548173ffffffffffffffffffffffffffffffffffffffff021916908373ffffffffffffffffffffffffffffffffffffffff16021790555060608201518160030190805190602001906112949291906144a2565b506080820151816004015560a08201518160050190805190602001906112bb929190614528565b50905050601054600960008673ffffffffffffffffffffffffffffffffffffffff1673ffffffffffffffffffffffffffffffffffffffff168152602001908152602001600020819055505050505050565b606060008083815260200190815260200160002060070180548060200260200160405190810160405280929190818152602001828054801561136d57602002820191906000526020600020905b815481526020019060010190808311611359575b50505050509050919050565b8260006003600083815260200190815260200160002060000154141561139e57600080fd5b60006040518061010001604052806011600081546113bb90615983565b9190508190558152602001600760008781526020019081526020016000206001015481526020018481526020018681526020016003600088815260200190815260200160002060040154815260200160076000878152602001908152602001600020600301548152602001428152602001600081525090506001600060076000878152602001908152602001600020600101548152602001908152602001600020600c0160115490806001815401808255809150506001900390600052602060002001600090919091909150553073ffffffffffffffffffffffffffffffffffffffff166108fc849081150290604051600060405180830381858888f193505050501580156114ce573d6000803e3d6000fd5b50826001600060076000888152602001908152602001600020600101548152602001908152602001600020600901600082825461150b9190615712565b9250508190555080600560006011548152602001908152602001600020600082015181600001556020820151816001015560408201518160020155606082015181600301556080820151816004015560a0820151816005015560c0820151816006015560e082015181600701559050505050505050565b60076020528060005260406000206000915090508060000154908060010154908060020154908060030154908060040160009054906101000a900460ff16905085565b60016020528060005260406000206000915090508060000154908060020180546115ee90615920565b80601f016020809104026020016040519081016040528092919081815260200182805461161a90615920565b80156116675780601f1061163c57610100808354040283529160200191611667565b820191906000526020600020905b81548152906001019060200180831161164a57829003601f168201915b505050505090806003016040518060a001604052908160008201805461168c90615920565b80601f01602080910402602001604051908101604052809291908181526020018280546116b890615920565b80156117055780601f106116da57610100808354040283529160200191611705565b820191906000526020600020905b8154815290600101906020018083116116e857829003601f168201915b5050505050815260200160018201805461171e90615920565b80601f016020809104026020016040519081016040528092919081815260200182805461174a90615920565b80156117975780601f1061176c57610100808354040283529160200191611797565b820191906000526020600020905b81548152906001019060200180831161177a57829003601f168201915b505050505081526020016002820180546117b090615920565b80601f01602080910402602001604051908101604052809291908181526020018280546117dc90615920565b80156118295780601f106117fe57610100808354040283529160200191611829565b820191906000526020600020905b81548152906001019060200180831161180c57829003601f168201915b5050505050815260200160038201805461184290615920565b80601f016020809104026020016040519081016040528092919081815260200182805461186e90615920565b80156118bb5780601f10611890576101008083540402835291602001916118bb565b820191906000526020600020905b81548152906001019060200180831161189e57829003601f168201915b505050505081526020016004820180546118d490615920565b80601f016020809104026020016040519081016040528092919081815260200182805461190090615920565b801561194d5780601f106119225761010080835404028352916020019161194d565b820191906000526020600020905b81548152906001019060200180831161193057829003601f168201915b5050505050815250509080600801805461196690615920565b80601f016020809104026020016040519081016040528092919081815260200182805461199290615920565b80156119df5780601f106119b4576101008083540402835291602001916119df565b820191906000526020600020905b8154815290600101906020018083116119c257829003601f168201915b50505050509080600901549080600a01549080600e0154905087565b80600060016000838152602001908152602001600020600001541415611a2057600080fd5b600060066000858152602001908152602001600020905082816004015414611a4757600080fd5b80600701600460003373ffffffffffffffffffffffffffffffffffffffff1673ffffffffffffffffffffffffffffffffffffffff16815260200190815260200160002054908060018154018082558091505060019003906000526020600020016000909190919091505560008160050160006101000a81548160ff02191690836003811115611aff577f4e487b7100000000000000000000000000000000000000000000000000000000600052602160045260246000fd5b021790555050505050565b3373ffffffffffffffffffffffffffffffffffffffff16600080600460003373ffffffffffffffffffffffffffffffffffffffff1673ffffffffffffffffffffffffffffffffffffffff16815260200190815260200160002054815260200190815260200160002060050160009054906101000a900473ffffffffffffffffffffffffffffffffffffffff1673ffffffffffffffffffffffffffffffffffffffff161415611bed576040517f08c379a0000000000000000000000000000000000000000000000000000000008152600401611be49061524d565b60405180910390fd5b6000600c60008154611bfe90615983565b919050819055905080600460003373ffffffffffffffffffffffffffffffffffffffff1673ffffffffffffffffffffffffffffffffffffffff1681526020019081526020016000208190555060006040518060a00160405280888152602001878152602001868152602001858152602001848152509050604051806101800160405280600c6000815480929190611c9490615983565b9190505581526020018d81526020018c81526020018b81526020018a81526020013373ffffffffffffffffffffffffffffffffffffffff168152602001600067ffffffffffffffff811115611d12577f4e487b7100000000000000000000000000000000000000000000000000000000600052604160045260246000fd5b604051908082528060200260200182016040528015611d405781602001602082028036833780820191505090505b508152602001600067ffffffffffffffff811115611d87577f4e487b7100000000000000000000000000000000000000000000000000000000600052604160045260246000fd5b604051908082528060200260200182016040528015611db55781602001602082028036833780820191505090505b5081526020016000815260200160046005811115611dfc577f4e487b7100000000000000000000000000000000000000000000000000000000600052602160045260246000fd5b8152602001896002811115611e3a577f4e487b7100000000000000000000000000000000000000000000000000000000600052602160045260246000fd5b815260200182815250600080848152602001908152602001600020600082015181600001556020820151816001019080519060200190611e7b9291906144a2565b506040820151816002019080519060200190611e989291906144a2565b50606082015181600301556080820151816004019080519060200190611ebf9291906144a2565b5060a08201518160050160006101000a81548173ffffffffffffffffffffffffffffffffffffffff021916908373ffffffffffffffffffffffffffffffffffffffff16021790555060c0820151816006019080519060200190611f23929190614528565b5060e0820151816007019080519060200190611f40929190614528565b5061010082015181600801556101208201518160090160006101000a81548160ff02191690836005811115611f9e577f4e487b7100000000000000000000000000000000000000000000000000000000600052602160045260246000fd5b02179055506101408201518160090160016101000a81548160ff02191690836002811115611ff5577f4e487b7100000000000000000000000000000000000000000000000000000000600052602160045260246000fd5b021790555061016082015181600a0160008201518160000190805190602001906120209291906144a2565b50602082015181600101908051906020019061203d9291906144a2565b50604082015181600201908051906020019061205a9291906144a2565b5060608201518160030190805190602001906120779291906144a2565b5060808201518160040190805190602001906120949291906144a2565b505050905050505050505050505050505050565b60006020528060005260406000206000915090508060000154908060010180546120d190615920565b80601f01602080910402602001604051908101604052809291908181526020018280546120fd90615920565b801561214a5780601f1061211f5761010080835404028352916020019161214a565b820191906000526020600020905b81548152906001019060200180831161212d57829003601f168201915b50505050509080600201805461215f90615920565b80601f016020809104026020016040519081016040528092919081815260200182805461218b90615920565b80156121d85780601f106121ad576101008083540402835291602001916121d8565b820191906000526020600020905b8154815290600101906020018083116121bb57829003601f168201915b5050505050908060030154908060040180546121f390615920565b80601f016020809104026020016040519081016040528092919081815260200182805461221f90615920565b801561226c5780601f106122415761010080835404028352916020019161226c565b820191906000526020600020905b81548152906001019060200180831161224f57829003601f168201915b5050505050908060050160009054906101000a900473ffffffffffffffffffffffffffffffffffffffff16908060080154908060090160009054906101000a900460ff16908060090160019054906101000a900460ff169080600a016040518060a00160405290816000820180546122e390615920565b80601f016020809104026020016040519081016040528092919081815260200182805461230f90615920565b801561235c5780601f106123315761010080835404028352916020019161235c565b820191906000526020600020905b81548152906001019060200180831161233f57829003601f168201915b5050505050815260200160018201805461237590615920565b80601f01602080910402602001604051908101604052809291908181526020018280546123a190615920565b80156123ee5780601f106123c3576101008083540402835291602001916123ee565b820191906000526020600020905b8154815290600101906020018083116123d157829003601f168201915b5050505050815260200160028201805461240790615920565b80601f016020809104026020016040519081016040528092919081815260200182805461243390615920565b80156124805780601f1061245557610100808354040283529160200191612480565b820191906000526020600020905b81548152906001019060200180831161246357829003601f168201915b5050505050815260200160038201805461249990615920565b80601f01602080910402602001604051908101604052809291908181526020018280546124c590615920565b80156125125780601f106124e757610100808354040283529160200191612512565b820191906000526020600020905b8154815290600101906020018083116124f557829003601f168201915b5050505050815260200160048201805461252b90615920565b80601f016020809104026020016040519081016040528092919081815260200182805461255790615920565b80156125a45780601f10612579576101008083540402835291602001916125a4565b820191906000526020600020905b81548152906001019060200180831161258757829003601f168201915b50505050508152505090508a565b606060016000838152602001908152602001600020600d0180548060200260200160405190810160405280929190818152602001828054801561261457602002820191906000526020600020905b815481526020019060010190808311612600575b50505050509050919050565b806000808481526020019081526020016000206008015414612677576040517f08c379a000000000000000000000000000000000000000000000000000000000815260040161266e9061528d565b60405180910390fd5b8060008084815260200190815260200160002060080181905550600360008084815260200190815260200160002060090160006101000a81548160ff021916908360058111156126f0577f4e487b7100000000000000000000000000000000000000000000000000000000600052602160045260246000fd5b0217905550600160008281526020019081526020016000206001018290806001815401808255809150506001900390600052602060002001600090919091909150555050565b60086020528060005260406000206000915090505481565b600082600080600083815260200190815260200160002060000154141561277457600080fd5b60006005600085815260200190815260200160002090506000601e603c8060188560070154426127a491906157f3565b6127ae9190615768565b6127b89190615799565b6127c29190615799565b6127cc9190615799565b9050600081116127db57600080fd5b600082600201549050600083600401549050600084600501549050600081600c6128059190615799565b600c6064856128149190615768565b61281e9190615799565b600161282a9190615712565b856128359190615799565b18905080866002015461284891906157f3565b86600201819055508097505050505050505092915050565b600282805160208101820180518482526020830160208501208183528095505050505050818154811061289257600080fd5b90600052602060002001600091509150505481565b8260008060008381526020019081526020016000206000015414156128cb57600080fd5b60006128d7858561274e565b90508281146128e557600080fd5b60006005600086815260200190815260200160002090503073ffffffffffffffffffffffffffffffffffffffff166108fc859081150290604051600060405180830381858888f19350505050158015612942573d6000803e3d6000fd5b50836001600083600301548152602001908152602001600020600901600082825461296d9190615712565b92505081905550428160070181905550505050505050565b61298d614575565b600360008381526020019081526020016000206040518060c0016040529081600082015481526020016001820180546129c590615920565b80601f01602080910402602001604051908101604052809291908181526020018280546129f190615920565b8015612a3e5780601f10612a1357610100808354040283529160200191612a3e565b820191906000526020600020905b815481529060010190602001808311612a2157829003601f168201915b505050505081526020016002820160009054906101000a900473ffffffffffffffffffffffffffffffffffffffff1673ffffffffffffffffffffffffffffffffffffffff1673ffffffffffffffffffffffffffffffffffffffff168152602001600382018054612aad90615920565b80601f0160208091040260200160405190810160405280929190818152602001828054612ad990615920565b8015612b265780601f10612afb57610100808354040283529160200191612b26565b820191906000526020600020905b815481529060010190602001808311612b0957829003601f168201915b505050505081526020016004820154815260200160058201805480602002602001604051908101604052809291908181526020018280548015612b8857602002820191906000526020600020905b815481526020019060010190808311612b74575b5050505050815250509050919050565b8060008084815260200190815260200160002060090160006101000a81548160ff02191690836005811115612bf6577f4e487b7100000000000000000000000000000000000000000000000000000000600052602160045260246000fd5b02179055505050565b6000600d54905090565b60096020528060005260406000206000915090505481565b6000600c54905090565b600082600060016000838152602001908152602001600020600001541415612c5257600080fd5b60006005600085815260200190815260200160002090506000601e603c806018856007015442612c8291906157f3565b612c8c9190615768565b612c969190615799565b612ca09190615799565b612caa9190615799565b905060008111612cb957600080fd5b600082600201549050600083600401549050600084600501549050600081600c612ce39190615799565b600c606485612cf29190615768565b612cfc9190615799565b6001612d089190615712565b85612d139190615799565b189050808660020154612d2691906157f3565b86600201819055508097505050505050505092915050565b80600060036000838152602001908152602001600020600001541415612d6357600080fd5b60006007600085815260200190815260200160002060040160006101000a81548160ff02191690836003811115612dc3577f4e487b7100000000000000000000000000000000000000000000000000000000600052602160045260246000fd5b0217905550505050565b82600060016000838152602001908152602001600020600001541415612df257600080fd5b6000612dfe8585612c2b565b9050828114612e0c57600080fd5b60006005600086815260200190815260200160002090503073ffffffffffffffffffffffffffffffffffffffff166108fc859081150290604051600060405180830381858888f19350505050158015612e69573d6000803e3d6000fd5b508360016000836003015481526020019081526020016000206009016000828254612e949190615712565b92505081905550428160070181905550505050505050565b6006602052806000526040600020600091509050806000015490806001015490806002015490806003018054612ee190615920565b80601f0160208091040260200160405190810160405280929190818152602001828054612f0d90615920565b8015612f5a5780601f10612f2f57610100808354040283529160200191612f5a565b820191906000526020600020905b815481529060010190602001808311612f3d57829003601f168201915b5050505050908060040154908060050160009054906101000a900460ff16908060060154905087565b6060600282604051612f9591906151b9565b9081526020016040518091039020805480602002602001604051908101604052809291908181526020018280548015612fed57602002820191906000526020600020905b815481526020019060010190808311612fd9575b50505050509050919050565b60026005811115613033577f4e487b7100000000000000000000000000000000000000000000000000000000600052602160045260246000fd5b600080600460003373ffffffffffffffffffffffffffffffffffffffff1673ffffffffffffffffffffffffffffffffffffffff16815260200190815260200160002054815260200190815260200160002060090160009054906101000a900460ff1660058111156130cd577f4e487b7100000000000000000000000000000000000000000000000000000000600052602160045260246000fd5b1461310d576040517f08c379a0000000000000000000000000000000000000000000000000000000008152600401613104906152cd565b60405180910390fd5b60006003811115613147577f4e487b7100000000000000000000000000000000000000000000000000000000600052602160045260246000fd5b6006600083815260200190815260200160002060050160009054906101000a900460ff1660038111156131a3577f4e487b7100000000000000000000000000000000000000000000000000000000600052602160045260246000fd5b146131e3576040517f08c379a00000000000000000000000000000000000000000000000000000000081526004016131da906152ad565b60405180910390fd5b600060066000838152602001908152602001600020905060018160050160006101000a81548160ff02191690836003811115613248577f4e487b7100000000000000000000000000000000000000000000000000000000600052602160045260246000fd5b0217905550600060405180610100016040528060116000815461326a90615983565b91905081905581526020018360040154815260200183600201548152602001836001015481526020016001600085600401548152602001908152602001600020600e01548152602001836006015481526020014281526020016000815250905080600560006011548152602001908152602001600020600082015181600001556020820151816001015560408201518160020155606082015181600301556080820151816004015560a0820151816005015560c0820151816006015560e082015181600701559050506001600083600401548152602001908152602001600020600b016011549080600181540180825580915050600190039060005260206000200160009091909190915055600080836001015481526020019081526020016000206006016011549080600181540180825580915050600190039060005260206000200160009091909190915055816002015460016000846004015481526020019081526020016000206009015410156133e357600080fd5b6000808360010154815260200190815260200160002060050160009054906101000a900473ffffffffffffffffffffffffffffffffffffffff1673ffffffffffffffffffffffffffffffffffffffff166108fc83600201549081150290604051600060405180830381858888f19350505050158015613466573d6000803e3d6000fd5b5081600201546001600084600401548152602001908152602001600020600901600082825461349591906157f3565b92505081905550505050565b60006001600083815260200190815260200160002090506135148160010180548060200260200160405190810160405280929190818152602001828054801561350957602002820191906000526020600020905b8154815260200190600101908083116134f5575b505050505083614268565b613553576040517f08c379a000000000000000000000000000000000000000000000000000000000815260040161354a9061526d565b60405180910390fd5b60006135b1826001018054806020026020016040519081016040528092919081815260200182805480156135a657602002820191906000526020600020905b815481526020019060010190808311613592575b5050505050856142f6565b905060006136118360010180548060200260200160405190810160405280929190818152602001828054801561360657602002820191906000526020600020905b8154815260200190600101908083116135f2575b505050505083614377565b90508083600101908051906020019061362b929190614528565b505050505050565b60606001600083815260200190815260200160002060010180548060200260200160405190810160405280929190818152602001828054801561369557602002820191906000526020600020905b815481526020019060010190808311613681575b50505050509050919050565b60003373ffffffffffffffffffffffffffffffffffffffff16600080600460003373ffffffffffffffffffffffffffffffffffffffff1673ffffffffffffffffffffffffffffffffffffffff16815260200190815260200160002054815260200190815260200160002060050160009054906101000a900473ffffffffffffffffffffffffffffffffffffffff1673ffffffffffffffffffffffffffffffffffffffff1614905090565b60078b511015613790576040517f08c379a00000000000000000000000000000000000000000000000000000000081526004016137879061522d565b60405180910390fd5b6000600d600081546137a190615983565b919050819055905060006040518060a001604052808a81526020018981526020018881526020018781526020018681525090506040518061016001604052808381526020018e81526020018b81526020018281526020018581526020016000815260200160008152602001600067ffffffffffffffff81111561384d577f4e487b7100000000000000000000000000000000000000000000000000000000600052604160045260246000fd5b60405190808252806020026020018201604052801561387b5781602001602082028036833780820191505090505b508152602001600067ffffffffffffffff8111156138c2577f4e487b7100000000000000000000000000000000000000000000000000000000600052604160045260246000fd5b6040519080825280602002602001820160405280156138f05781602001602082028036833780820191505090505b508152602001600067ffffffffffffffff811115613937577f4e487b7100000000000000000000000000000000000000000000000000000000600052604160045260246000fd5b6040519080825280602002602001820160405280156139655781602001602082028036833780820191505090505b50815260200184815250600160008481526020019081526020016000206000820151816000015560208201518160010190805190602001906139a8929190614528565b5060408201518160020190805190602001906139c59291906144a2565b5060608201518160030160008201518160000190805190602001906139eb9291906144a2565b506020820151816001019080519060200190613a089291906144a2565b506040820151816002019080519060200190613a259291906144a2565b506060820151816003019080519060200190613a429291906144a2565b506080820151816004019080519060200190613a5f9291906144a2565b5050506080820151816008019080519060200190613a7e9291906144a2565b5060a0820151816009015560c082015181600a015560e082015181600b019080519060200190613aaf929190614528565b5061010082015181600c019080519060200190613acd929190614528565b5061012082015181600d019080519060200190613aeb929190614528565b5061014082015181600e015590505060005b8d51811015613d185760008e8281518110613b41577f4e487b7100000000000000000000000000000000000000000000000000000000600052603260045260246000fd5b60200260200101519050600360008083815260200190815260200160002060090160006101000a81548160ff02191690836005811115613baa577f4e487b7100000000000000000000000000000000000000000000000000000000600052602160045260246000fd5b02179055508d811415613c1c57600080600083815260200190815260200160002060090160006101000a81548160ff02191690836005811115613c16577f4e487b7100000000000000000000000000000000000000000000000000000000600052602160045260246000fd5b02179055505b8c811415613c8957600260008083815260200190815260200160002060090160006101000a81548160ff02191690836005811115613c83577f4e487b7100000000000000000000000000000000000000000000000000000000600052602160045260246000fd5b02179055505b600d546008600080600085815260200190815260200160002060050160009054906101000a900473ffffffffffffffffffffffffffffffffffffffff1673ffffffffffffffffffffffffffffffffffffffff1673ffffffffffffffffffffffffffffffffffffffff16815260200190815260200160002081905550508080613d1090615983565b915050613afd565b50600288604051613d2991906151b9565b908152602001604051809103902082908060018154018082558091505060019003906000526020600020016000909190919091505550505050505050505050505050565b81341015613db0576040517f08c379a0000000000000000000000000000000000000000000000000000000008152600401613da79061520d565b60405180910390fd5b81341115613e0b573373ffffffffffffffffffffffffffffffffffffffff166108fc8334613dde91906157f3565b9081150290604051600060405180830381858888f19350505050158015613e09573d6000803e3d6000fd5b505b81600160008381526020019081526020016000206009016000828254613e319190615712565b925050819055505050565b6060816000806000838152602001908152602001600020600001541415613e6257600080fd5b600080848152602001908152602001600020600601805480602002602001604051908101604052809291908181526020018280548015613ec157602002820191906000526020600020905b815481526020019060010190808311613ead575b5050505050915050919050565b606060005b600f54811015613f49578260076000838152602001908152602001600020600101541415613f3657600b60008481526020019081526020016000208190806001815401808255809150506001900390600052602060002001600090919091909150555b8080613f4190615983565b915050613ed3565b50600b6000838152602001908152602001600020805480602002602001604051908101604052809291908181526020018280548015613fa757602002820191906000526020600020905b815481526020019060010190808311613f93575b50505050509050919050565b81600060036000838152602001908152602001600020600001541415613fd857600080fd5b3073ffffffffffffffffffffffffffffffffffffffff166108fc839081150290604051600060405180830381858888f1935050505015801561401e573d6000803e3d6000fd5b5060016007600086815260200190815260200160002060040160006101000a81548160ff0219169083600381111561407f577f4e487b7100000000000000000000000000000000000000000000000000000000600052602160045260246000fd5b021790555081600160006007600088815260200190815260200160002060010154815260200190815260200160002060090160008282546140c09190615712565b9250508190555050505050565b60056020528060005260406000206000915090508060000154908060010154908060020154908060030154908060040154908060050154908060060154908060070154905088565b60046020528060005260406000206000915090505481565b600b602052816000526040600020818154811061414957600080fd5b90600052602060002001600091509150505481565b81600080600083815260200190815260200160002060000154141561418257600080fd5b826006600084815260200190815260200160002060010154146141a457600080fd5b600080600090505b600e548110156141ef5784600660008381526020019081526020016000206001015414156141dc578091506141ef565b80806141e790615983565b9150506141ac565b50600660008281526020019081526020016000206000808201600090556001820160009055600282016000905560038201600061422c91906145c1565b60048201600090556005820160006101000a81549060ff021916905560068201600090556007820160006142609190614601565b505050505050565b600080600090505b6001845161427e91906157f3565b8110156142ea57828482815181106142bf577f4e487b7100000000000000000000000000000000000000000000000000000000600052603260045260246000fd5b602002602001015114156142d75760019150506142f0565b80806142e290615983565b915050614270565b50600090505b92915050565b600080600090505b835181101561436b5782848281518110614341577f4e487b7100000000000000000000000000000000000000000000000000000000600052603260045260246000fd5b602002602001015114156143585780915050614371565b808061436390615983565b9150506142fe565b50600090505b92915050565b60608251821061438657600080fd5b60008290505b6001845161439a91906157f3565b81101561444657836001826143af9190615712565b815181106143e6577f4e487b7100000000000000000000000000000000000000000000000000000000600052603260045260246000fd5b6020026020010151848281518110614427577f4e487b7100000000000000000000000000000000000000000000000000000000600052603260045260246000fd5b602002602001018181525050808061443e90615983565b91505061438c565b50826001845161445691906157f3565b8151811061448d577f4e487b7100000000000000000000000000000000000000000000000000000000600052603260045260246000fd5b60200260200101600081525082905092915050565b8280546144ae90615920565b90600052602060002090601f0160209004810192826144d05760008555614517565b82601f106144e957805160ff1916838001178555614517565b82800160010185558215614517579182015b828111156145165782518255916020019190600101906144fb565b5b5090506145249190614622565b5090565b828054828255906000526020600020908101928215614564579160200282015b82811115614563578251825591602001919060010190614548565b5b5090506145719190614622565b5090565b6040518060c001604052806000815260200160608152602001600073ffffffffffffffffffffffffffffffffffffffff1681526020016060815260200160008152602001606081525090565b5080546145cd90615920565b6000825580601f106145df57506145fe565b601f0160209004906000526020600020908101906145fd9190614622565b5b50565b508054600082559060005260206000209081019061461f9190614622565b50565b5b8082111561463b576000816000905550600101614623565b5090565b600061465261464d84615633565b61560e565b9050808382526020820190508285602086028201111561467157600080fd5b60005b858110156146a15781614687888261477c565b845260208401935060208301925050600181019050614674565b5050509392505050565b60006146be6146b98461565f565b61560e565b9050828152602081018484840111156146d657600080fd5b6146e18482856158de565b509392505050565b6000813590506146f881615c6f565b92915050565b600082601f83011261470f57600080fd5b813561471f84826020860161463f565b91505092915050565b60008135905061473781615c86565b92915050565b60008135905061474c81615c96565b92915050565b600082601f83011261476357600080fd5b81356147738482602086016146ab565b91505092915050565b60008135905061478b81615ca6565b92915050565b6000602082840312156147a357600080fd5b60006147b1848285016146e9565b91505092915050565b60008060008060008060008060008060006101608c8e0312156147dc57600080fd5b60008c013567ffffffffffffffff8111156147f657600080fd5b6148028e828f016146fe565b9b505060206148138e828f0161477c565b9a505060406148248e828f0161477c565b99505060608c013567ffffffffffffffff81111561484157600080fd5b61484d8e828f01614752565b98505060808c013567ffffffffffffffff81111561486a57600080fd5b6148768e828f01614752565b97505060a08c013567ffffffffffffffff81111561489357600080fd5b61489f8e828f01614752565b96505060c08c013567ffffffffffffffff8111156148bc57600080fd5b6148c88e828f01614752565b95505060e08c013567ffffffffffffffff8111156148e557600080fd5b6148f18e828f01614752565b9450506101008c013567ffffffffffffffff81111561490f57600080fd5b61491b8e828f01614752565b9350506101208c013567ffffffffffffffff81111561493957600080fd5b6149458e828f01614752565b9250506101406149578e828f0161477c565b9150509295989b509295989b9093969950565b60006020828403121561497c57600080fd5b600082013567ffffffffffffffff81111561499657600080fd5b6149a284828501614752565b91505092915050565b600080600080608085870312156149c157600080fd5b600085013567ffffffffffffffff8111156149db57600080fd5b6149e787828801614752565b94505060206149f8878288016146e9565b935050604085013567ffffffffffffffff811115614a1557600080fd5b614a2187828801614752565b9250506060614a328782880161477c565b91505092959194509250565b6000806000806000806000806000806101408b8d031215614a5e57600080fd5b60008b013567ffffffffffffffff811115614a7857600080fd5b614a848d828e01614752565b9a505060208b013567ffffffffffffffff811115614aa157600080fd5b614aad8d828e01614752565b9950506040614abe8d828e0161477c565b98505060608b013567ffffffffffffffff811115614adb57600080fd5b614ae78d828e01614752565b9750506080614af88d828e01614728565b96505060a08b013567ffffffffffffffff811115614b1557600080fd5b614b218d828e01614752565b95505060c08b013567ffffffffffffffff811115614b3e57600080fd5b614b4a8d828e01614752565b94505060e08b013567ffffffffffffffff811115614b6757600080fd5b614b738d828e01614752565b9350506101008b013567ffffffffffffffff811115614b9157600080fd5b614b9d8d828e01614752565b9250506101208b013567ffffffffffffffff811115614bbb57600080fd5b614bc78d828e01614752565b9150509295989b9194979a5092959850565b60008060408385031215614bec57600080fd5b600083013567ffffffffffffffff811115614c0657600080fd5b614c1285828601614752565b9250506020614c238582860161477c565b9150509250929050565b600060208284031215614c3f57600080fd5b6000614c4d8482850161477c565b91505092915050565b60008060408385031215614c6957600080fd5b6000614c778582860161477c565b9250506020614c888582860161473d565b9150509250929050565b60008060408385031215614ca557600080fd5b6000614cb38582860161477c565b9250506020614cc48582860161477c565b9150509250929050565b600080600060608486031215614ce357600080fd5b6000614cf18682870161477c565b9350506020614d028682870161477c565b9250506040614d138682870161477c565b9150509250925092565b600080600080600060a08688031215614d3557600080fd5b6000614d438882890161477c565b9550506020614d548882890161477c565b9450506040614d658882890161477c565b935050606086013567ffffffffffffffff811115614d8257600080fd5b614d8e88828901614752565b9250506080614d9f8882890161477c565b9150509295509295909350565b6000614db8838361519b565b60208301905092915050565b614dcd81615827565b82525050565b614ddc81615827565b82525050565b6000614ded826156a0565b614df781856156c3565b9350614e0283615690565b8060005b83811015614e33578151614e1a8882614dac565b9750614e25836156b6565b925050600181019050614e06565b5085935050505092915050565b6000614e4b826156a0565b614e5581856156d4565b9350614e6083615690565b8060005b83811015614e91578151614e788882614dac565b9750614e83836156b6565b925050600181019050614e64565b5085935050505092915050565b614ea781615839565b82525050565b614eb6816158a8565b82525050565b614ec5816158ba565b82525050565b614ed4816158cc565b82525050565b6000614ee5826156ab565b614eef81856156e5565b9350614eff8185602086016158ed565b614f0881615ab7565b840191505092915050565b6000614f1e826156ab565b614f2881856156f6565b9350614f388185602086016158ed565b614f4181615ab7565b840191505092915050565b6000614f57826156ab565b614f618185615707565b9350614f718185602086016158ed565b80840191505092915050565b6000614f8a6023836156f6565b9150614f9582615ac8565b604082019050919050565b6000614fad601a836156f6565b9150614fb882615b17565b602082019050919050565b6000614fd06012836156f6565b9150614fdb82615b40565b602082019050919050565b6000614ff36025836156f6565b9150614ffe82615b69565b604082019050919050565b60006150166012836156f6565b915061502182615bb8565b602082019050919050565b60006150396012836156f6565b915061504482615be1565b602082019050919050565b600061505c6013836156f6565b915061506782615c0a565b602082019050919050565b600060c08301600083015161508a600086018261519b565b50602083015184820360208601526150a28282614eda565b91505060408301516150b76040860182614dc4565b50606083015184820360608601526150cf8282614eda565b91505060808301516150e4608086018261519b565b5060a083015184820360a08601526150fc8282614de2565b9150508091505092915050565b600060a08301600083015184820360008601526151268282614eda565b915050602083015184820360208601526151408282614eda565b9150506040830151848203604086015261515a8282614eda565b915050606083015184820360608601526151748282614eda565b9150506080830151848203608086015261518e8282614eda565b9150508091505092915050565b6151a48161589e565b82525050565b6151b38161589e565b82525050565b60006151c58284614f4c565b915081905092915050565b600060208201905081810360008301526151ea8184614e40565b905092915050565b60006020820190506152076000830184614e9e565b92915050565b6000602082019050818103600083015261522681614f7d565b9050919050565b6000602082019050818103600083015261524681614fa0565b9050919050565b6000602082019050818103600083015261526681614fc3565b9050919050565b6000602082019050818103600083015261528681614fe6565b9050919050565b600060208201905081810360008301526152a681615009565b9050919050565b600060208201905081810360008301526152c68161502c565b9050919050565b600060208201905081810360008301526152e68161504f565b9050919050565b600060208201905081810360008301526153078184615072565b905092915050565b600060208201905061532460008301846151aa565b92915050565b600060a08201905061533f60008301886151aa565b81810360208301526153518187614f13565b90506153606040830186614dd3565b81810360608301526153728185614f13565b905061538160808301846151aa565b9695505050505050565b6000610140820190506153a1600083018d6151aa565b81810360208301526153b3818c614f13565b905081810360408301526153c7818b614f13565b90506153d6606083018a6151aa565b81810360808301526153e88189614f13565b90506153f760a0830188614dd3565b61540460c08301876151aa565b61541160e0830186614ecb565b61541f610100830185614ead565b8181036101208301526154328184615109565b90509b9a5050505050505050505050565b600060e082019050615458600083018a6151aa565b818103602083015261546a8189614f13565b9050818103604083015261547e8188615109565b905081810360608301526154928187614f13565b90506154a160808301866151aa565b6154ae60a08301856151aa565b6154bb60c08301846151aa565b98975050505050505050565b600060e0820190506154dc600083018a6151aa565b6154e960208301896151aa565b6154f660408301886151aa565b81810360608301526155088187614f13565b905061551760808301866151aa565b61552460a0830185614ebc565b61553160c08301846151aa565b98975050505050505050565b600060a08201905061555260008301886151aa565b61555f60208301876151aa565b61556c60408301866151aa565b61557960608301856151aa565b6155866080830184614ebc565b9695505050505050565b6000610100820190506155a6600083018b6151aa565b6155b3602083018a6151aa565b6155c060408301896151aa565b6155cd60608301886151aa565b6155da60808301876151aa565b6155e760a08301866151aa565b6155f460c08301856151aa565b61560160e08301846151aa565b9998505050505050505050565b6000615618615629565b90506156248282615952565b919050565b6000604051905090565b600067ffffffffffffffff82111561564e5761564d615a88565b5b602082029050602081019050919050565b600067ffffffffffffffff82111561567a57615679615a88565b5b61568382615ab7565b9050602081019050919050565b6000819050602082019050919050565b600081519050919050565b600081519050919050565b6000602082019050919050565b600082825260208201905092915050565b600082825260208201905092915050565b600082825260208201905092915050565b600082825260208201905092915050565b600081905092915050565b600061571d8261589e565b91506157288361589e565b9250827fffffffffffffffffffffffffffffffffffffffffffffffffffffffffffffffff0382111561575d5761575c6159cc565b5b828201905092915050565b60006157738261589e565b915061577e8361589e565b92508261578e5761578d6159fb565b5b828204905092915050565b60006157a48261589e565b91506157af8361589e565b9250817fffffffffffffffffffffffffffffffffffffffffffffffffffffffffffffffff04831182151516156157e8576157e76159cc565b5b828202905092915050565b60006157fe8261589e565b91506158098361589e565b92508282101561581c5761581b6159cc565b5b828203905092915050565b60006158328261587e565b9050919050565b60008115159050919050565b600081905061585382615c33565b919050565b600081905061586682615c47565b919050565b600081905061587982615c5b565b919050565b600073ffffffffffffffffffffffffffffffffffffffff82169050919050565b6000819050919050565b60006158b382615845565b9050919050565b60006158c582615858565b9050919050565b60006158d78261586b565b9050919050565b82818337600083830152505050565b60005b8381101561590b5780820151818401526020810190506158f0565b8381111561591a576000848401525b50505050565b6000600282049050600182168061593857607f821691505b6020821081141561594c5761594b615a59565b5b50919050565b61595b82615ab7565b810181811067ffffffffffffffff8211171561597a57615979615a88565b5b80604052505050565b600061598e8261589e565b91507fffffffffffffffffffffffffffffffffffffffffffffffffffffffffffffffff8214156159c1576159c06159cc565b5b600182019050919050565b7f4e487b7100000000000000000000000000000000000000000000000000000000600052601160045260246000fd5b7f4e487b7100000000000000000000000000000000000000000000000000000000600052601260045260246000fd5b7f4e487b7100000000000000000000000000000000000000000000000000000000600052602160045260246000fd5b7f4e487b7100000000000000000000000000000000000000000000000000000000600052602260045260246000fd5b7f4e487b7100000000000000000000000000000000000000000000000000000000600052604160045260246000fd5b6000601f19601f8301169050919050565b7f6465706f736974656420616d6f756e74206e6f74206d61746368696e6720696e60008201527f7075740000000000000000000000000000000000000000000000000000000000602082015250565b7f41746c656173742037206d656d62657273207265717569726564000000000000600082015250565b7f416c726561647920526567697374657265640000000000000000000000000000600082015250565b7f5573657220697320616c7265616479206e6f7420612070617274206f6620746860008201527f6520534847000000000000000000000000000000000000000000000000000000602082015250565b7f5573657220616c72656164792061646465640000000000000000000000000000600082015250565b7f556e617070726f76656420726571756573740000000000000000000000000000600082015250565b7f556e617574686f72697a65642072657165737400000000000000000000000000600082015250565b60038110615c4457615c43615a2a565b5b50565b60048110615c5857615c57615a2a565b5b50565b60068110615c6c57615c6b615a2a565b5b50565b615c7881615827565b8114615c8357600080fd5b50565b60038110615c9357600080fd5b50565b60068110615ca357600080fd5b50565b615caf8161589e565b8114615cba57600080fd5b5056fea264697066735822122024bd7a1a92e7b18ae84ffa54c27a797c27cc3d61107c2eb51f26efcad2df0f8464736f6c63430008040033",
  "immutableReferences": {},
  "source": "// SPDX-License-Identifier: MIT\npragma solidity ^0.8.1;\nimport \"./lib/Bank.sol\";\nimport \"./lib/SHG.sol\";\nimport \"./lib/User.sol\";\n\ncontract Yogdaan is Bank, SHG, User {\n    address admin;\n\n    constructor() {\n        admin = msg.sender;\n    }\n}\n",
  "sourcePath": "/home/sdas/code/yogdaan-contracts/contracts/yogdaan.sol",
  "compiler": {
    "name": "solc",
    "version": "0.8.4+commit.c7e474f2.Emscripten.clang"
  },
  "schemaVersion": "3.4.9",
  "updatedAt": "2022-08-26T11:25:16.984Z",
  "networkType": "ethereum",
  "devdoc": {
    "kind": "dev",
    "methods": {},
    "version": 1
  },
  "userdoc": {
    "kind": "user",
    "methods": {},
    "version": 1
  }
}