{
  "contractName": "Yogdaan",
  "abi": [
    {
      "inputs": [],
      "stateMutability": "nonpayable",
      "type": "constructor"
    },
    {
      "inputs": [
        {
          "internalType": "string",
          "name": "_name",
          "type": "string"
        },
        {
          "internalType": "address",
          "name": "_walletAddress",
          "type": "address"
        },
        {
          "internalType": "string",
          "name": "_code",
          "type": "string"
        },
        {
          "internalType": "uint256",
          "name": "_intrestRate",
          "type": "uint256"
        }
      ],
      "name": "addBank",
      "outputs": [],
      "stateMutability": "nonpayable",
      "type": "function"
    },
    {
      "inputs": [
        {
          "internalType": "uint256[]",
          "name": "members",
          "type": "uint256[]"
        },
        {
          "internalType": "uint256",
          "name": "president",
          "type": "uint256"
        },
        {
          "internalType": "uint256",
          "name": "treasurer",
          "type": "uint256"
        },
        {
          "internalType": "string",
          "name": "name",
          "type": "string"
        },
        {
          "internalType": "string",
          "name": "_state",
          "type": "string"
        },
        {
          "internalType": "string",
          "name": "_district",
          "type": "string"
        },
        {
          "internalType": "string",
          "name": "_blockName",
          "type": "string"
        },
        {
          "internalType": "string",
          "name": "_panchyatName",
          "type": "string"
        },
        {
          "internalType": "string",
          "name": "_villageName",
          "type": "string"
        },
        {
          "internalType": "string",
          "name": "dateOfFormation",
          "type": "string"
        },
        {
          "internalType": "uint256",
          "name": "_baseIntrest",
          "type": "uint256"
        }
      ],
      "name": "addSHG",
      "outputs": [],
      "stateMutability": "nonpayable",
      "type": "function"
    },
    {
      "inputs": [
        {
          "internalType": "uint256",
          "name": "userid",
          "type": "uint256"
        },
        {
          "internalType": "uint256",
          "name": "shg",
          "type": "uint256"
        }
      ],
      "name": "addSHGMember",
      "outputs": [],
      "stateMutability": "nonpayable",
      "type": "function"
    },
    {
      "inputs": [
        {
          "internalType": "string",
          "name": "name",
          "type": "string"
        },
        {
          "internalType": "string",
          "name": "aadhar",
          "type": "string"
        },
        {
          "internalType": "uint256",
          "name": "mobno",
          "type": "uint256"
        },
        {
          "internalType": "string",
          "name": "fatherName",
          "type": "string"
        },
        {
          "internalType": "enum structs.Gender",
          "name": "gender",
          "type": "uint8"
        },
        {
          "internalType": "string",
          "name": "_state",
          "type": "string"
        },
        {
          "internalType": "string",
          "name": "_district",
          "type": "string"
        },
        {
          "internalType": "string",
          "name": "_blockName",
          "type": "string"
        },
        {
          "internalType": "string",
          "name": "_panchyatName",
          "type": "string"
        },
        {
          "internalType": "string",
          "name": "_villageName",
          "type": "string"
        }
      ],
      "name": "addUser",
      "outputs": [],
      "stateMutability": "nonpayable",
      "type": "function"
    },
    {
      "inputs": [
        {
          "internalType": "address",
          "name": "",
          "type": "address"
        }
      ],
      "name": "addressToBankid",
      "outputs": [
        {
          "internalType": "uint256",
          "name": "",
          "type": "uint256"
        }
      ],
      "stateMutability": "view",
      "type": "function",
      "constant": true
    },
    {
      "inputs": [
        {
          "internalType": "address",
          "name": "",
          "type": "address"
        }
      ],
      "name": "addressToSHGid",
      "outputs": [
        {
          "internalType": "uint256",
          "name": "",
          "type": "uint256"
        }
      ],
      "stateMutability": "view",
      "type": "function",
      "constant": true
    },
    {
      "inputs": [
        {
          "internalType": "address",
          "name": "",
          "type": "address"
        }
      ],
      "name": "addressToUser",
      "outputs": [
        {
          "internalType": "uint256",
          "name": "",
          "type": "uint256"
        }
      ],
      "stateMutability": "view",
      "type": "function",
      "constant": true
    },
    {
      "inputs": [
        {
          "internalType": "uint256",
          "name": "_shgrequestid",
          "type": "uint256"
        },
        {
          "internalType": "uint256",
          "name": "_bankid",
          "type": "uint256"
        }
      ],
      "name": "approveLoan",
      "outputs": [],
      "stateMutability": "nonpayable",
      "type": "function"
    },
    {
      "inputs": [
        {
          "internalType": "uint256",
          "name": "_requestid",
          "type": "uint256"
        },
        {
          "internalType": "uint256",
          "name": "_shgid",
          "type": "uint256"
        }
      ],
      "name": "approveRequest",
      "outputs": [],
      "stateMutability": "nonpayable",
      "type": "function"
    },
    {
      "inputs": [
        {
          "internalType": "uint256",
          "name": "",
          "type": "uint256"
        }
      ],
      "name": "banks",
      "outputs": [
        {
          "internalType": "uint256",
          "name": "id",
          "type": "uint256"
        },
        {
          "internalType": "string",
          "name": "name",
          "type": "string"
        },
        {
          "internalType": "address",
          "name": "walletAddress",
          "type": "address"
        },
        {
          "internalType": "string",
          "name": "code",
          "type": "string"
        },
        {
          "internalType": "uint256",
          "name": "intrestRate",
          "type": "uint256"
        }
      ],
      "stateMutability": "view",
      "type": "function",
      "constant": true
    },
    {
      "inputs": [
        {
          "internalType": "uint256",
          "name": "_userid",
          "type": "uint256"
        },
        {
          "internalType": "uint256",
          "name": "_requestid",
          "type": "uint256"
        }
      ],
      "name": "deleteRequest",
      "outputs": [],
      "stateMutability": "nonpayable",
      "type": "function"
    },
    {
      "inputs": [
        {
          "internalType": "string",
          "name": "",
          "type": "string"
        },
        {
          "internalType": "uint256",
          "name": "",
          "type": "uint256"
        }
      ],
      "name": "districtToSHGs",
      "outputs": [
        {
          "internalType": "uint256",
          "name": "",
          "type": "uint256"
        }
      ],
      "stateMutability": "view",
      "type": "function",
      "constant": true
    },
    {
      "inputs": [
        {
          "internalType": "uint256",
          "name": "bankid",
          "type": "uint256"
        }
      ],
      "name": "getAllBanks",
      "outputs": [
        {
          "components": [
            {
              "internalType": "uint256",
              "name": "id",
              "type": "uint256"
            },
            {
              "internalType": "string",
              "name": "name",
              "type": "string"
            },
            {
              "internalType": "address",
              "name": "walletAddress",
              "type": "address"
            },
            {
              "internalType": "string",
              "name": "code",
              "type": "string"
            },
            {
              "internalType": "uint256",
              "name": "intrestRate",
              "type": "uint256"
            },
            {
              "internalType": "uint256[]",
              "name": "requests",
              "type": "uint256[]"
            }
          ],
          "internalType": "struct structs.Bank",
          "name": "",
          "type": "tuple"
        }
      ],
      "stateMutability": "view",
      "type": "function",
      "constant": true
    },
    {
      "inputs": [
        {
          "internalType": "uint256",
          "name": "userid",
          "type": "uint256"
        }
      ],
      "name": "getAllLoans",
      "outputs": [
        {
          "internalType": "uint256[]",
          "name": "",
          "type": "uint256[]"
        }
      ],
      "stateMutability": "view",
      "type": "function",
      "constant": true
    },
    {
      "inputs": [],
      "name": "getNumUsers",
      "outputs": [
        {
          "internalType": "uint256",
          "name": "",
          "type": "uint256"
        }
      ],
      "stateMutability": "view",
      "type": "function",
      "constant": true
    },
    {
      "inputs": [
        {
          "internalType": "uint256",
          "name": "_shgid",
          "type": "uint256"
        },
        {
          "internalType": "uint256",
          "name": "_loanid",
          "type": "uint256"
        }
      ],
      "name": "getSHGEMI",
      "outputs": [
        {
          "internalType": "uint256",
          "name": "",
          "type": "uint256"
        }
      ],
      "stateMutability": "nonpayable",
      "type": "function"
    },
    {
      "inputs": [
        {
          "internalType": "uint256",
          "name": "shgid",
          "type": "uint256"
        }
      ],
      "name": "getSHGMembers",
      "outputs": [
        {
          "internalType": "uint256[]",
          "name": "",
          "type": "uint256[]"
        }
      ],
      "stateMutability": "view",
      "type": "function",
      "constant": true
    },
    {
      "inputs": [
        {
          "internalType": "uint256",
          "name": "_shgid",
          "type": "uint256"
        }
      ],
      "name": "getSHGRequests",
      "outputs": [
        {
          "internalType": "uint256[]",
          "name": "",
          "type": "uint256[]"
        }
      ],
      "stateMutability": "nonpayable",
      "type": "function"
    },
    {
      "inputs": [],
      "name": "getTotalBanks",
      "outputs": [
        {
          "internalType": "uint256",
          "name": "",
          "type": "uint256"
        }
      ],
      "stateMutability": "view",
      "type": "function",
      "constant": true
    },
    {
      "inputs": [
        {
          "internalType": "uint256",
          "name": "userid",
          "type": "uint256"
        },
        {
          "internalType": "uint256",
          "name": "loanid",
          "type": "uint256"
        }
      ],
      "name": "getUserEMI",
      "outputs": [
        {
          "internalType": "uint256",
          "name": "",
          "type": "uint256"
        }
      ],
      "stateMutability": "nonpayable",
      "type": "function"
    },
    {
      "inputs": [
        {
          "internalType": "uint256",
          "name": "_userid",
          "type": "uint256"
        }
      ],
      "name": "getUserLoanAmount",
      "outputs": [
        {
          "internalType": "uint256",
          "name": "",
          "type": "uint256"
        }
      ],
      "stateMutability": "view",
      "type": "function",
      "constant": true
    },
    {
      "inputs": [
        {
          "internalType": "uint256",
          "name": "_userid",
          "type": "uint256"
        }
      ],
      "name": "getUserRequest",
      "outputs": [
        {
          "internalType": "uint256[]",
          "name": "",
          "type": "uint256[]"
        }
      ],
      "stateMutability": "nonpayable",
      "type": "function"
    },
    {
      "inputs": [
        {
          "internalType": "uint256",
          "name": "_shgrequestid",
          "type": "uint256"
        },
        {
          "internalType": "uint256",
          "name": "_bankid",
          "type": "uint256"
        },
        {
          "internalType": "uint256",
          "name": "_amount",
          "type": "uint256"
        }
      ],
      "name": "grantLoan",
      "outputs": [],
      "stateMutability": "nonpayable",
      "type": "function"
    },
    {
      "inputs": [
        {
          "internalType": "uint256",
          "name": "",
          "type": "uint256"
        }
      ],
      "name": "loans",
      "outputs": [
        {
          "internalType": "uint256",
          "name": "loanId",
          "type": "uint256"
        },
        {
          "internalType": "uint256",
          "name": "lenderId",
          "type": "uint256"
        },
        {
          "internalType": "uint256",
          "name": "amount",
          "type": "uint256"
        },
        {
          "internalType": "uint256",
          "name": "lendeeId",
          "type": "uint256"
        },
        {
          "internalType": "uint256",
          "name": "intrest",
          "type": "uint256"
        },
        {
          "internalType": "uint256",
          "name": "loanTime",
          "type": "uint256"
        },
        {
          "internalType": "uint256",
          "name": "date",
          "type": "uint256"
        },
        {
          "internalType": "uint256",
          "name": "lastEMI",
          "type": "uint256"
        }
      ],
      "stateMutability": "view",
      "type": "function",
      "constant": true
    },
    {
      "inputs": [],
      "name": "login",
      "outputs": [
        {
          "internalType": "bool",
          "name": "",
          "type": "bool"
        }
      ],
      "stateMutability": "view",
      "type": "function",
      "constant": true
    },
    {
      "inputs": [
        {
          "internalType": "uint256",
          "name": "_shgid",
          "type": "uint256"
        },
        {
          "internalType": "uint256",
          "name": "_userid",
          "type": "uint256"
        },
        {
          "internalType": "uint256",
          "name": "_amount",
          "type": "uint256"
        },
        {
          "internalType": "string",
          "name": "_description",
          "type": "string"
        },
        {
          "internalType": "uint256",
          "name": "_loanTime",
          "type": "uint256"
        }
      ],
      "name": "makeRequest",
      "outputs": [],
      "stateMutability": "nonpayable",
      "type": "function"
    },
    {
      "inputs": [
        {
          "internalType": "uint256",
          "name": "_userid",
          "type": "uint256"
        },
        {
          "internalType": "uint256",
          "name": "_loanid",
          "type": "uint256"
        },
        {
          "internalType": "uint256",
          "name": "_amount",
          "type": "uint256"
        }
      ],
      "name": "payEMI",
      "outputs": [],
      "stateMutability": "payable",
      "type": "function",
      "payable": true
    },
    {
      "inputs": [
        {
          "internalType": "uint256",
          "name": "userid",
          "type": "uint256"
        },
        {
          "internalType": "uint256",
          "name": "shgid",
          "type": "uint256"
        }
      ],
      "name": "removeSHGMember",
      "outputs": [],
      "stateMutability": "nonpayable",
      "type": "function"
    },
    {
      "inputs": [
        {
          "internalType": "uint256",
          "name": "_requestid",
          "type": "uint256"
        }
      ],
      "name": "sendGrant",
      "outputs": [],
      "stateMutability": "nonpayable",
      "type": "function"
    },
    {
      "inputs": [
        {
          "internalType": "uint256",
          "name": "_shgid",
          "type": "uint256"
        },
        {
          "internalType": "uint256",
          "name": "_amount",
          "type": "uint256"
        },
        {
          "internalType": "uint256",
          "name": "_loanTime",
          "type": "uint256"
        }
      ],
      "name": "sendRequestToBank",
      "outputs": [],
      "stateMutability": "nonpayable",
      "type": "function"
    },
    {
      "inputs": [
        {
          "internalType": "uint256",
          "name": "_bankid",
          "type": "uint256"
        },
        {
          "internalType": "uint256",
          "name": "_requestid",
          "type": "uint256"
        },
        {
          "internalType": "uint256",
          "name": "_amount",
          "type": "uint256"
        }
      ],
      "name": "shgLoan",
      "outputs": [],
      "stateMutability": "payable",
      "type": "function",
      "payable": true
    },
    {
      "inputs": [
        {
          "internalType": "uint256",
          "name": "_shgid",
          "type": "uint256"
        },
        {
          "internalType": "uint256",
          "name": "_loanid",
          "type": "uint256"
        },
        {
          "internalType": "uint256",
          "name": "_amount",
          "type": "uint256"
        }
      ],
      "name": "shgPayEMI",
      "outputs": [],
      "stateMutability": "nonpayable",
      "type": "function"
    },
    {
      "inputs": [
        {
          "internalType": "uint256",
          "name": "",
          "type": "uint256"
        }
      ],
      "name": "shgRequests",
      "outputs": [
        {
          "internalType": "uint256",
          "name": "requestid",
          "type": "uint256"
        },
        {
          "internalType": "uint256",
          "name": "shgid",
          "type": "uint256"
        },
        {
          "internalType": "uint256",
          "name": "amount",
          "type": "uint256"
        },
        {
          "internalType": "uint256",
          "name": "loanTime",
          "type": "uint256"
        },
        {
          "internalType": "enum structs.RequestStatus",
          "name": "status",
          "type": "uint8"
        }
      ],
      "stateMutability": "view",
      "type": "function",
      "constant": true
    },
    {
      "inputs": [
        {
          "internalType": "uint256",
          "name": "",
          "type": "uint256"
        },
        {
          "internalType": "uint256",
          "name": "",
          "type": "uint256"
        }
      ],
      "name": "shgToRequests",
      "outputs": [
        {
          "internalType": "uint256",
          "name": "",
          "type": "uint256"
        }
      ],
      "stateMutability": "view",
      "type": "function",
      "constant": true
    },
    {
      "inputs": [
        {
          "internalType": "uint256",
          "name": "",
          "type": "uint256"
        }
      ],
      "name": "shgs",
      "outputs": [
        {
          "internalType": "uint256",
          "name": "id",
          "type": "uint256"
        },
        {
          "internalType": "string",
          "name": "name",
          "type": "string"
        },
        {
          "components": [
            {
              "internalType": "string",
              "name": "state",
              "type": "string"
            },
            {
              "internalType": "string",
              "name": "district",
              "type": "string"
            },
            {
              "internalType": "string",
              "name": "blockName",
              "type": "string"
            },
            {
              "internalType": "string",
              "name": "panchyatName",
              "type": "string"
            },
            {
              "internalType": "string",
              "name": "villageName",
              "type": "string"
            }
          ],
          "internalType": "struct structs.Location",
          "name": "location",
          "type": "tuple"
        },
        {
          "internalType": "string",
          "name": "dateOfFormation",
          "type": "string"
        },
        {
          "internalType": "uint256",
          "name": "currentBalance",
          "type": "uint256"
        },
        {
          "internalType": "uint256",
          "name": "owedBalance",
          "type": "uint256"
        },
        {
          "internalType": "uint256",
          "name": "baseIntrest",
          "type": "uint256"
        }
      ],
      "stateMutability": "view",
      "type": "function",
      "constant": true
    },
    {
      "inputs": [
        {
          "internalType": "string",
          "name": "district",
          "type": "string"
        }
      ],
      "name": "shgsOfDistrict",
      "outputs": [
        {
          "internalType": "uint256[]",
          "name": "",
          "type": "uint256[]"
        }
      ],
      "stateMutability": "view",
      "type": "function",
      "constant": true
    },
    {
      "inputs": [],
      "name": "totalNumSHGs",
      "outputs": [
        {
          "internalType": "uint256",
          "name": "",
          "type": "uint256"
        }
      ],
      "stateMutability": "view",
      "type": "function",
      "constant": true
    },
    {
      "inputs": [
        {
          "internalType": "uint256",
          "name": "id",
          "type": "uint256"
        },
        {
          "internalType": "enum structs.UserType",
          "name": "updatedType",
          "type": "uint8"
        }
      ],
      "name": "updateMemberRole",
      "outputs": [],
      "stateMutability": "nonpayable",
      "type": "function"
    },
    {
      "inputs": [
        {
          "internalType": "uint256",
          "name": "",
          "type": "uint256"
        }
      ],
      "name": "userRequests",
      "outputs": [
        {
          "internalType": "uint256",
          "name": "requestId",
          "type": "uint256"
        },
        {
          "internalType": "uint256",
          "name": "userId",
          "type": "uint256"
        },
        {
          "internalType": "uint256",
          "name": "amount",
          "type": "uint256"
        },
        {
          "internalType": "string",
          "name": "description",
          "type": "string"
        },
        {
          "internalType": "uint256",
          "name": "SHGId",
          "type": "uint256"
        },
        {
          "internalType": "enum structs.RequestStatus",
          "name": "status",
          "type": "uint8"
        },
        {
          "internalType": "uint256",
          "name": "loanTime",
          "type": "uint256"
        }
      ],
      "stateMutability": "view",
      "type": "function",
      "constant": true
    },
    {
      "inputs": [
        {
          "internalType": "uint256",
          "name": "",
          "type": "uint256"
        },
        {
          "internalType": "uint256",
          "name": "",
          "type": "uint256"
        }
      ],
      "name": "userToRequests",
      "outputs": [
        {
          "internalType": "uint256",
          "name": "",
          "type": "uint256"
        }
      ],
      "stateMutability": "view",
      "type": "function",
      "constant": true
    },
    {
      "inputs": [
        {
          "internalType": "uint256",
          "name": "",
          "type": "uint256"
        }
      ],
      "name": "users",
      "outputs": [
        {
          "internalType": "uint256",
          "name": "id",
          "type": "uint256"
        },
        {
          "internalType": "string",
          "name": "name",
          "type": "string"
        },
        {
          "internalType": "string",
          "name": "aadhar",
          "type": "string"
        },
        {
          "internalType": "uint256",
          "name": "mobno",
          "type": "uint256"
        },
        {
          "internalType": "string",
          "name": "fatherName",
          "type": "string"
        },
        {
          "internalType": "address",
          "name": "walletAddress",
          "type": "address"
        },
        {
          "internalType": "uint256",
          "name": "shgid",
          "type": "uint256"
        },
        {
          "internalType": "enum structs.UserType",
          "name": "userType",
          "type": "uint8"
        },
        {
          "internalType": "enum structs.Gender",
          "name": "gender",
          "type": "uint8"
        },
        {
          "components": [
            {
              "internalType": "string",
              "name": "state",
              "type": "string"
            },
            {
              "internalType": "string",
              "name": "district",
              "type": "string"
            },
            {
              "internalType": "string",
              "name": "blockName",
              "type": "string"
            },
            {
              "internalType": "string",
              "name": "panchyatName",
              "type": "string"
            },
            {
              "internalType": "string",
              "name": "villageName",
              "type": "string"
            }
          ],
          "internalType": "struct structs.Location",
          "name": "location",
          "type": "tuple"
        }
      ],
      "stateMutability": "view",
      "type": "function",
      "constant": true
    }
  ],
  "bytecode": "0x608060405234801561001057600080fd5b5033601260006101000a81548173ffffffffffffffffffffffffffffffffffffffff021916908373ffffffffffffffffffffffffffffffffffffffff160217905550615c0880620000626000396000f3fe6080604052600436106102455760003560e01c80634f269c9211610139578063a6e90a58116100b6578063d3f86fb81161007a578063d3f86fb814610944578063db223b4c14610981578063e1ec3c68146109aa578063edf53886146109ee578063f61074ff14610a2b578063f736ae4314610a6857610245565b8063a6e90a581461084d578063af08a94f14610876578063b34e97e8146108b3578063bc1e72ad146108de578063cfcb4b2f1461090757610245565b80637a646492116100fd5780637a646492146107525780637d550bb31461077b57806394169656146107a457806397e492dd146107e75780639bbc9ab11461082457610245565b80634f269c92146106595780635df3fc811461068257806361c91b70146106ad57806365f88c0d146106ea578063769d0e161461071557610245565b806326271cf2116101c75780633ae0058f1161018b5780633ae0058f146105495780633c565757146105865780633cec4272146105c357806342f5f815146106005780634d82d8e81461061c57610245565b806326271cf2146104455780632c0a90a9146104885780632e131046146104b1578063365b98b2146104da57806339d8bed11461052057610245565b806311c988151161020e57806311c988151461035757806314795ce3146103825780631d3ff78a146103ab578063249c4bff146103e8578063257a170b1461040457610245565b806285ae2b1461024a578063021af3971461028b5780630227f435146102b4578063089511f7146102dd5780630c1c78831461031a575b600080fd5b34801561025657600080fd5b50610271600480360381019061026c9190614bd4565b610a91565b60405161028295949392919061528e565b60405180910390f35b34801561029757600080fd5b506102b260048036038101906102ad9190614c75565b610bf7565b005b3480156102c057600080fd5b506102db60048036038101906102d69190614cc4565b610dce565b005b3480156102e957600080fd5b5061030460048036038101906102ff9190614bd4565b610fe4565b6040516103119190615273565b60405180910390f35b34801561032657600080fd5b50610341600480360381019061033c9190614c39565b6110cb565b60405161034e9190615273565b60405180910390f35b34801561036357600080fd5b5061036c6110fc565b6040516103799190615273565b60405180910390f35b34801561038e57600080fd5b506103a960048036038101906103a49190614952565b611106565b005b3480156103b757600080fd5b506103d260048036038101906103cd9190614bd4565b6112e6565b6040516103df9190615154565b60405180910390f35b61040260048036038101906103fd9190614c75565b6113cb565b005b34801561041057600080fd5b5061042b60048036038101906104269190614bd4565b6115d4565b60405161043c9594939291906154a1565b60405180910390f35b34801561045157600080fd5b5061046c60048036038101906104679190614bd4565b611617565b60405161047f97969594939291906153a7565b60405180910390f35b34801561049457600080fd5b506104af60048036038101906104aa9190614c39565b611a4d565b005b3480156104bd57600080fd5b506104d860048036038101906104d391906149e5565b611ba3565b005b3480156104e657600080fd5b5061050160048036038101906104fc9190614bd4565b612141565b6040516105179a999897969594939291906152ef565b60405180910390f35b34801561052c57600080fd5b5061054760048036038101906105429190614c39565b61264b565b005b34801561055557600080fd5b50610570600480360381019061056b9190614738565b612761565b60405161057d9190615273565b60405180910390f35b34801561059257600080fd5b506105ad60048036038101906105a89190614c39565b612779565b6040516105ba9190615273565b60405180910390f35b3480156105cf57600080fd5b506105ea60048036038101906105e59190614b80565b61288b565b6040516105f79190615273565b60405180910390f35b61061a60048036038101906106159190614c75565b6128d2565b005b34801561062857600080fd5b50610643600480360381019061063e9190614bd4565b6129b0565b6040516106509190615251565b60405180910390f35b34801561066557600080fd5b50610680600480360381019061067b9190614bfd565b612bc3565b005b34801561068e57600080fd5b50610697612c2a565b6040516106a49190615273565b60405180910390f35b3480156106b957600080fd5b506106d460048036038101906106cf9190614738565b612c34565b6040516106e19190615273565b60405180910390f35b3480156106f657600080fd5b506106ff612c4c565b60405161070c9190615273565b60405180910390f35b34801561072157600080fd5b5061073c60048036038101906107379190614c39565b612c56565b6040516107499190615273565b60405180910390f35b34801561075e57600080fd5b5061077960048036038101906107749190614c39565b612d69565b005b34801561078757600080fd5b506107a2600480360381019061079d9190614c75565b612df8565b005b3480156107b057600080fd5b506107cb60048036038101906107c69190614bd4565b612ed7565b6040516107de979695949392919061542b565b60405180910390f35b3480156107f357600080fd5b5061080e60048036038101906108099190614911565b612fae565b60405161081b9190615154565b60405180910390f35b34801561083057600080fd5b5061084b60048036038101906108469190614bd4565b613024565b005b34801561085957600080fd5b50610874600480360381019061086f9190614c39565b6134cc565b005b34801561088257600080fd5b5061089d60048036038101906108989190614bd4565b61365e565b6040516108aa9190615154565b60405180910390f35b3480156108bf57600080fd5b506108c86136cc565b6040516108d59190615176565b60405180910390f35b3480156108ea57600080fd5b5061090560048036038101906109009190614761565b613776565b005b34801561091357600080fd5b5061092e60048036038101906109299190614bd4565b613d05565b60405161093b9190615154565b60405180910390f35b34801561095057600080fd5b5061096b60048036038101906109669190614bd4565b613d97565b6040516109789190615154565b60405180910390f35b34801561098d57600080fd5b506109a860048036038101906109a39190614c75565b613e7c565b005b3480156109b657600080fd5b506109d160048036038101906109cc9190614bd4565b613f96565b6040516109e59897969594939291906154f4565b60405180910390f35b3480156109fa57600080fd5b50610a156004803603810190610a109190614738565b613fde565b604051610a229190615273565b60405180910390f35b348015610a3757600080fd5b50610a526004803603810190610a4d9190614c39565b613ff6565b604051610a5f9190615273565b60405180910390f35b348015610a7457600080fd5b50610a8f6004803603810190610a8a9190614c39565b614027565b005b6003602052806000526040600020600091509050806000015490806001018054610aba90615884565b80601f0160208091040260200160405190810160405280929190818152602001828054610ae690615884565b8015610b335780601f10610b0857610100808354040283529160200191610b33565b820191906000526020600020905b815481529060010190602001808311610b1657829003601f168201915b5050505050908060020160009054906101000a900473ffffffffffffffffffffffffffffffffffffffff1690806003018054610b6e90615884565b80601f0160208091040260200160405190810160405280929190818152602001828054610b9a90615884565b8015610be75780601f10610bbc57610100808354040283529160200191610be7565b820191906000526020600020905b815481529060010190602001808311610bca57829003601f168201915b5050505050908060040154905085565b82600060016000838152602001908152602001600020600001541415610c1c57600080fd5b83600080600460003373ffffffffffffffffffffffffffffffffffffffff1673ffffffffffffffffffffffffffffffffffffffff1681526020019081526020016000205481526020019081526020016000206008015414610c7c57600080fd5b6000600f6000815480929190610c91906158e7565b9190505590506040518060a00160405280828152602001868152602001858152602001848152602001600380811115610cf3577f4e487b7100000000000000000000000000000000000000000000000000000000600052602160045260246000fd5b815250600760008381526020019081526020016000206000820151816000015560208201518160010155604082015181600201556060820151816003015560808201518160040160006101000a81548160ff02191690836003811115610d82577f4e487b7100000000000000000000000000000000000000000000000000000000600052602160045260246000fd5b021790555090505060016000868152602001908152602001600020600c018190806001815401808255809150506001900390600052602060002001600090919091909150555050505050565b6000600e60008154610ddf906158e7565b9190508190559050604051806101000160405280828152602001868152602001858152602001848152602001878152602001600380811115610e4a577f4e487b7100000000000000000000000000000000000000000000000000000000600052602160045260246000fd5b8152602001838152602001600067ffffffffffffffff811115610e96577f4e487b7100000000000000000000000000000000000000000000000000000000600052604160045260246000fd5b604051908082528060200260200182016040528015610ec45781602001602082028036833780820191505090505b50815250600660008381526020019081526020016000206000820151816000015560208201518160010155604082015181600201556060820151816003019080519060200190610f15929190614449565b506080820151816004015560a08201518160050160006101000a81548160ff02191690836003811115610f71577f4e487b7100000000000000000000000000000000000000000000000000000000600052602160045260246000fd5b021790555060c0820151816006015560e0820151816007019080519060200190610f9c9291906144cf565b50905050600080868152602001908152602001600020600701819080600181540180825580915050600190039060005260206000200160009091909190915055505050505050565b60008060009050600080600085815260200190815260200160002060060180548060200260200160405190810160405280929190818152602001828054801561104c57602002820191906000526020600020905b815481526020019060010190808311611038575b5050505050905060005b81518110156110c057818181518110611098577f4e487b7100000000000000000000000000000000000000000000000000000000600052603260045260246000fd5b6020026020010151836110ab9190615676565b925080806110b8906158e7565b915050611056565b508192505050919050565b600a60205281600052604060002081815481106110e757600080fd5b90600052602060002001600091509150505481565b6000601054905090565b6000601060008154611117906158e7565b91905081905590506040518060c001604052808281526020018681526020018573ffffffffffffffffffffffffffffffffffffffff168152602001848152602001838152602001600067ffffffffffffffff81111561119f577f4e487b7100000000000000000000000000000000000000000000000000000000600052604160045260246000fd5b6040519080825280602002602001820160405280156111cd5781602001602082028036833780820191505090505b508152506003600083815260200190815260200160002060008201518160000155602082015181600101908051906020019061120a929190614449565b5060408201518160020160006101000a81548173ffffffffffffffffffffffffffffffffffffffff021916908373ffffffffffffffffffffffffffffffffffffffff160217905550606082015181600301908051906020019061126e929190614449565b506080820151816004015560a08201518160050190805190602001906112959291906144cf565b50905050601054600960008673ffffffffffffffffffffffffffffffffffffffff1673ffffffffffffffffffffffffffffffffffffffff168152602001908152602001600020819055505050505050565b606060005b600e5481101561136157826006600083815260200190815260200160002060010154141561134e57600a60008481526020019081526020016000208190806001815401808255809150506001900390600052602060002001600090919091909150555b8080611359906158e7565b9150506112eb565b50600a60008381526020019081526020016000208054806020026020016040519081016040528092919081815260200182805480156113bf57602002820191906000526020600020905b8154815260200190600101908083116113ab575b50505050509050919050565b826000600360008381526020019081526020016000206000015414156113f057600080fd5b600060405180610100016040528060116000815461140d906158e7565b9190508190558152602001600760008781526020019081526020016000206001015481526020018481526020018681526020016003600088815260200190815260200160002060040154815260200160076000878152602001908152602001600020600301548152602001428152602001600081525090506001600060076000878152602001908152602001600020600101548152602001908152602001600020600c0160115490806001815401808255809150506001900390600052602060002001600090919091909150553073ffffffffffffffffffffffffffffffffffffffff166108fc849081150290604051600060405180830381858888f19350505050158015611520573d6000803e3d6000fd5b50826001600060076000888152602001908152602001600020600101548152602001908152602001600020600901600082825461155d9190615676565b9250508190555080600560006011548152602001908152602001600020600082015181600001556020820151816001015560408201518160020155606082015181600301556080820151816004015560a0820151816005015560c0820151816006015560e082015181600701559050505050505050565b60076020528060005260406000206000915090508060000154908060010154908060020154908060030154908060040160009054906101000a900460ff16905085565b600160205280600052604060002060009150905080600001549080600201805461164090615884565b80601f016020809104026020016040519081016040528092919081815260200182805461166c90615884565b80156116b95780601f1061168e576101008083540402835291602001916116b9565b820191906000526020600020905b81548152906001019060200180831161169c57829003601f168201915b505050505090806003016040518060a00160405290816000820180546116de90615884565b80601f016020809104026020016040519081016040528092919081815260200182805461170a90615884565b80156117575780601f1061172c57610100808354040283529160200191611757565b820191906000526020600020905b81548152906001019060200180831161173a57829003601f168201915b5050505050815260200160018201805461177090615884565b80601f016020809104026020016040519081016040528092919081815260200182805461179c90615884565b80156117e95780601f106117be576101008083540402835291602001916117e9565b820191906000526020600020905b8154815290600101906020018083116117cc57829003601f168201915b5050505050815260200160028201805461180290615884565b80601f016020809104026020016040519081016040528092919081815260200182805461182e90615884565b801561187b5780601f106118505761010080835404028352916020019161187b565b820191906000526020600020905b81548152906001019060200180831161185e57829003601f168201915b5050505050815260200160038201805461189490615884565b80601f01602080910402602001604051908101604052809291908181526020018280546118c090615884565b801561190d5780601f106118e25761010080835404028352916020019161190d565b820191906000526020600020905b8154815290600101906020018083116118f057829003601f168201915b5050505050815260200160048201805461192690615884565b80601f016020809104026020016040519081016040528092919081815260200182805461195290615884565b801561199f5780601f106119745761010080835404028352916020019161199f565b820191906000526020600020905b81548152906001019060200180831161198257829003601f168201915b505050505081525050908060080180546119b890615884565b80601f01602080910402602001604051908101604052809291908181526020018280546119e490615884565b8015611a315780601f10611a0657610100808354040283529160200191611a31565b820191906000526020600020905b815481529060010190602001808311611a1457829003601f168201915b50505050509080600901549080600a01549080600d0154905087565b80600060016000838152602001908152602001600020600001541415611a7257600080fd5b600060066000858152602001908152602001600020905082816004015414611a9957600080fd5b611aa284614131565b611aab57600080fd5b80600701600460003373ffffffffffffffffffffffffffffffffffffffff1673ffffffffffffffffffffffffffffffffffffffff16815260200190815260200160002054908060018154018082558091505060019003906000526020600020016000909190919091505560026001600085815260200190815260200160002060010180549050611b3b91906156cc565b81600701805490501115611b9d5760008160050160006101000a81548160ff02191690836003811115611b97577f4e487b7100000000000000000000000000000000000000000000000000000000600052602160045260246000fd5b02179055505b50505050565b3373ffffffffffffffffffffffffffffffffffffffff16600080600460003373ffffffffffffffffffffffffffffffffffffffff1673ffffffffffffffffffffffffffffffffffffffff16815260200190815260200160002054815260200190815260200160002060050160009054906101000a900473ffffffffffffffffffffffffffffffffffffffff1673ffffffffffffffffffffffffffffffffffffffff161415611c86576040517f08c379a0000000000000000000000000000000000000000000000000000000008152600401611c7d906151b1565b60405180910390fd5b6000600c60008154611c97906158e7565b919050819055905080600460003373ffffffffffffffffffffffffffffffffffffffff1673ffffffffffffffffffffffffffffffffffffffff1681526020019081526020016000208190555060006040518060a00160405280888152602001878152602001868152602001858152602001848152509050604051806101800160405280600c6000815480929190611d2d906158e7565b9190505581526020018d81526020018c81526020018b81526020018a81526020013373ffffffffffffffffffffffffffffffffffffffff168152602001600067ffffffffffffffff811115611dab577f4e487b7100000000000000000000000000000000000000000000000000000000600052604160045260246000fd5b604051908082528060200260200182016040528015611dd95781602001602082028036833780820191505090505b508152602001600067ffffffffffffffff811115611e20577f4e487b7100000000000000000000000000000000000000000000000000000000600052604160045260246000fd5b604051908082528060200260200182016040528015611e4e5781602001602082028036833780820191505090505b5081526020016000815260200160046005811115611e95577f4e487b7100000000000000000000000000000000000000000000000000000000600052602160045260246000fd5b8152602001896002811115611ed3577f4e487b7100000000000000000000000000000000000000000000000000000000600052602160045260246000fd5b815260200182815250600080848152602001908152602001600020600082015181600001556020820151816001019080519060200190611f14929190614449565b506040820151816002019080519060200190611f31929190614449565b50606082015181600301556080820151816004019080519060200190611f58929190614449565b5060a08201518160050160006101000a81548173ffffffffffffffffffffffffffffffffffffffff021916908373ffffffffffffffffffffffffffffffffffffffff16021790555060c0820151816006019080519060200190611fbc9291906144cf565b5060e0820151816007019080519060200190611fd99291906144cf565b5061010082015181600801556101208201518160090160006101000a81548160ff02191690836005811115612037577f4e487b7100000000000000000000000000000000000000000000000000000000600052602160045260246000fd5b02179055506101408201518160090160016101000a81548160ff0219169083600281111561208e577f4e487b7100000000000000000000000000000000000000000000000000000000600052602160045260246000fd5b021790555061016082015181600a0160008201518160000190805190602001906120b9929190614449565b5060208201518160010190805190602001906120d6929190614449565b5060408201518160020190805190602001906120f3929190614449565b506060820151816003019080519060200190612110929190614449565b50608082015181600401908051906020019061212d929190614449565b505050905050505050505050505050505050565b600060205280600052604060002060009150905080600001549080600101805461216a90615884565b80601f016020809104026020016040519081016040528092919081815260200182805461219690615884565b80156121e35780601f106121b8576101008083540402835291602001916121e3565b820191906000526020600020905b8154815290600101906020018083116121c657829003601f168201915b5050505050908060020180546121f890615884565b80601f016020809104026020016040519081016040528092919081815260200182805461222490615884565b80156122715780601f1061224657610100808354040283529160200191612271565b820191906000526020600020905b81548152906001019060200180831161225457829003601f168201915b50505050509080600301549080600401805461228c90615884565b80601f01602080910402602001604051908101604052809291908181526020018280546122b890615884565b80156123055780601f106122da57610100808354040283529160200191612305565b820191906000526020600020905b8154815290600101906020018083116122e857829003601f168201915b5050505050908060050160009054906101000a900473ffffffffffffffffffffffffffffffffffffffff16908060080154908060090160009054906101000a900460ff16908060090160019054906101000a900460ff169080600a016040518060a001604052908160008201805461237c90615884565b80601f01602080910402602001604051908101604052809291908181526020018280546123a890615884565b80156123f55780601f106123ca576101008083540402835291602001916123f5565b820191906000526020600020905b8154815290600101906020018083116123d857829003601f168201915b5050505050815260200160018201805461240e90615884565b80601f016020809104026020016040519081016040528092919081815260200182805461243a90615884565b80156124875780601f1061245c57610100808354040283529160200191612487565b820191906000526020600020905b81548152906001019060200180831161246a57829003601f168201915b505050505081526020016002820180546124a090615884565b80601f01602080910402602001604051908101604052809291908181526020018280546124cc90615884565b80156125195780601f106124ee57610100808354040283529160200191612519565b820191906000526020600020905b8154815290600101906020018083116124fc57829003601f168201915b5050505050815260200160038201805461253290615884565b80601f016020809104026020016040519081016040528092919081815260200182805461255e90615884565b80156125ab5780601f10612580576101008083540402835291602001916125ab565b820191906000526020600020905b81548152906001019060200180831161258e57829003601f168201915b505050505081526020016004820180546125c490615884565b80601f01602080910402602001604051908101604052809291908181526020018280546125f090615884565b801561263d5780601f106126125761010080835404028352916020019161263d565b820191906000526020600020905b81548152906001019060200180831161262057829003601f168201915b50505050508152505090508a565b8060008084815260200190815260200160002060080154146126a2576040517f08c379a0000000000000000000000000000000000000000000000000000000008152600401612699906151f1565b60405180910390fd5b8060008084815260200190815260200160002060080181905550600360008084815260200190815260200160002060090160006101000a81548160ff0219169083600581111561271b577f4e487b7100000000000000000000000000000000000000000000000000000000600052602160045260246000fd5b0217905550600160008281526020019081526020016000206001018290806001815401808255809150506001900390600052602060002001600090919091909150555050565b60086020528060005260406000206000915090505481565b600082600080600083815260200190815260200160002060000154141561279f57600080fd5b60006005600085815260200190815260200160002090506000601e603c8060188560070154426127cf9190615757565b6127d991906156cc565b6127e391906156fd565b6127ed91906156fd565b6127f791906156fd565b90506000811161280657600080fd5b600082600201549050600083600401549050600084600501549050600081600c61283091906156fd565b600c60648561283f91906156cc565b61284991906156fd565b60016128559190615676565b8561286091906156fd565b1890508086600201546128739190615757565b86600201819055508097505050505050505092915050565b60028280516020810182018051848252602083016020850120818352809550505050505081815481106128bd57600080fd5b90600052602060002001600091509150505481565b8260008060008381526020019081526020016000206000015414156128f657600080fd5b60006129028585612779565b905082811461291057600080fd5b60006005600086815260200190815260200160002090503073ffffffffffffffffffffffffffffffffffffffff166108fc859081150290604051600060405180830381858888f1935050505015801561296d573d6000803e3d6000fd5b5083600160008360030154815260200190815260200160002060090160008282546129989190615676565b92505081905550428160070181905550505050505050565b6129b861451c565b600360008381526020019081526020016000206040518060c0016040529081600082015481526020016001820180546129f090615884565b80601f0160208091040260200160405190810160405280929190818152602001828054612a1c90615884565b8015612a695780601f10612a3e57610100808354040283529160200191612a69565b820191906000526020600020905b815481529060010190602001808311612a4c57829003601f168201915b505050505081526020016002820160009054906101000a900473ffffffffffffffffffffffffffffffffffffffff1673ffffffffffffffffffffffffffffffffffffffff1673ffffffffffffffffffffffffffffffffffffffff168152602001600382018054612ad890615884565b80601f0160208091040260200160405190810160405280929190818152602001828054612b0490615884565b8015612b515780601f10612b2657610100808354040283529160200191612b51565b820191906000526020600020905b815481529060010190602001808311612b3457829003601f168201915b505050505081526020016004820154815260200160058201805480602002602001604051908101604052809291908181526020018280548015612bb357602002820191906000526020600020905b815481526020019060010190808311612b9f575b5050505050815250509050919050565b8060008084815260200190815260200160002060090160006101000a81548160ff02191690836005811115612c21577f4e487b7100000000000000000000000000000000000000000000000000000000600052602160045260246000fd5b02179055505050565b6000600d54905090565b60096020528060005260406000206000915090505481565b6000600c54905090565b600082600060016000838152602001908152602001600020600001541415612c7d57600080fd5b60006005600085815260200190815260200160002090506000601e603c806018856007015442612cad9190615757565b612cb791906156cc565b612cc191906156fd565b612ccb91906156fd565b612cd591906156fd565b905060008111612ce457600080fd5b600082600201549050600083600401549050600084600501549050600081600c612d0e91906156fd565b600c606485612d1d91906156cc565b612d2791906156fd565b6001612d339190615676565b85612d3e91906156fd565b189050808660020154612d519190615757565b86600201819055508097505050505050505092915050565b80600060036000838152602001908152602001600020600001541415612d8e57600080fd5b60006007600085815260200190815260200160002060040160006101000a81548160ff02191690836003811115612dee577f4e487b7100000000000000000000000000000000000000000000000000000000600052602160045260246000fd5b0217905550505050565b82600060016000838152602001908152602001600020600001541415612e1d57600080fd5b6000612e298585612c56565b9050828114612e3757600080fd5b60006005600086815260200190815260200160002090503073ffffffffffffffffffffffffffffffffffffffff166108fc859081150290604051600060405180830381858888f19350505050158015612e94573d6000803e3d6000fd5b508360016000836003015481526020019081526020016000206009016000828254612ebf9190615676565b92505081905550428160070181905550505050505050565b6006602052806000526040600020600091509050806000015490806001015490806002015490806003018054612f0c90615884565b80601f0160208091040260200160405190810160405280929190818152602001828054612f3890615884565b8015612f855780601f10612f5a57610100808354040283529160200191612f85565b820191906000526020600020905b815481529060010190602001808311612f6857829003601f168201915b5050505050908060040154908060050160009054906101000a900460ff16908060060154905087565b6060600282604051612fc0919061513d565b908152602001604051809103902080548060200260200160405190810160405280929190818152602001828054801561301857602002820191906000526020600020905b815481526020019060010190808311613004575b50505050509050919050565b6002600581111561305e577f4e487b7100000000000000000000000000000000000000000000000000000000600052602160045260246000fd5b600080600460003373ffffffffffffffffffffffffffffffffffffffff1673ffffffffffffffffffffffffffffffffffffffff16815260200190815260200160002054815260200190815260200160002060090160009054906101000a900460ff1660058111156130f8577f4e487b7100000000000000000000000000000000000000000000000000000000600052602160045260246000fd5b14613138576040517f08c379a000000000000000000000000000000000000000000000000000000000815260040161312f90615231565b60405180910390fd5b60006003811115613172577f4e487b7100000000000000000000000000000000000000000000000000000000600052602160045260246000fd5b6006600083815260200190815260200160002060050160009054906101000a900460ff1660038111156131ce577f4e487b7100000000000000000000000000000000000000000000000000000000600052602160045260246000fd5b1461320e576040517f08c379a000000000000000000000000000000000000000000000000000000000815260040161320590615211565b60405180910390fd5b600060066000838152602001908152602001600020905060018160050160006101000a81548160ff02191690836003811115613273577f4e487b7100000000000000000000000000000000000000000000000000000000600052602160045260246000fd5b02179055506000604051806101000160405280601160008154613295906158e7565b91905081905581526020018360040154815260200183600201548152602001836001015481526020016001600085600401548152602001908152602001600020600d01548152602001836006015481526020014281526020016000815250905080600560006011548152602001908152602001600020600082015181600001556020820151816001015560408201518160020155606082015181600301556080820151816004015560a0820151816005015560c0820151816006015560e082015181600701559050506001600083600401548152602001908152602001600020600b0160115490806001815401808255809150506001900390600052602060002001600090919091909150556000808360010154815260200190815260200160002060060160115490806001815401808255809150506001900390600052602060002001600090919091909150558160020154600160008460040154815260200190815260200160002060090154101561340e57600080fd5b6000808360010154815260200190815260200160002060050160009054906101000a900473ffffffffffffffffffffffffffffffffffffffff1673ffffffffffffffffffffffffffffffffffffffff166108fc83600201549081150290604051600060405180830381858888f19350505050158015613491573d6000803e3d6000fd5b508160020154600160008460040154815260200190815260200160002060090160008282546134c09190615757565b92505081905550505050565b600060016000838152602001908152602001600020905061353f8160010180548060200260200160405190810160405280929190818152602001828054801561353457602002820191906000526020600020905b815481526020019060010190808311613520575b50505050508361420f565b61357e576040517f08c379a0000000000000000000000000000000000000000000000000000000008152600401613575906151d1565b60405180910390fd5b60006135dc826001018054806020026020016040519081016040528092919081815260200182805480156135d157602002820191906000526020600020905b8154815260200190600101908083116135bd575b50505050508561429d565b9050600061363c8360010180548060200260200160405190810160405280929190818152602001828054801561363157602002820191906000526020600020905b81548152602001906001019080831161361d575b50505050508361431e565b9050808360010190805190602001906136569291906144cf565b505050505050565b6060600160008381526020019081526020016000206001018054806020026020016040519081016040528092919081815260200182805480156136c057602002820191906000526020600020905b8154815260200190600101908083116136ac575b50505050509050919050565b60003373ffffffffffffffffffffffffffffffffffffffff16600080600460003373ffffffffffffffffffffffffffffffffffffffff1673ffffffffffffffffffffffffffffffffffffffff16815260200190815260200160002054815260200190815260200160002060050160009054906101000a900473ffffffffffffffffffffffffffffffffffffffff1673ffffffffffffffffffffffffffffffffffffffff1614905090565b60078b5110156137bb576040517f08c379a00000000000000000000000000000000000000000000000000000000081526004016137b290615191565b60405180910390fd5b6000600d600081546137cc906158e7565b919050819055905060006040518060a001604052808a81526020018981526020018881526020018781526020018681525090506040518061014001604052808381526020018e81526020018b81526020018281526020018581526020016000815260200160008152602001600067ffffffffffffffff811115613878577f4e487b7100000000000000000000000000000000000000000000000000000000600052604160045260246000fd5b6040519080825280602002602001820160405280156138a65781602001602082028036833780820191505090505b508152602001600067ffffffffffffffff8111156138ed577f4e487b7100000000000000000000000000000000000000000000000000000000600052604160045260246000fd5b60405190808252806020026020018201604052801561391b5781602001602082028036833780820191505090505b508152602001848152506001600084815260200190815260200160002060008201518160000155602082015181600101908051906020019061395e9291906144cf565b50604082015181600201908051906020019061397b929190614449565b5060608201518160030160008201518160000190805190602001906139a1929190614449565b5060208201518160010190805190602001906139be929190614449565b5060408201518160020190805190602001906139db929190614449565b5060608201518160030190805190602001906139f8929190614449565b506080820151816004019080519060200190613a15929190614449565b5050506080820151816008019080519060200190613a34929190614449565b5060a0820151816009015560c082015181600a015560e082015181600b019080519060200190613a659291906144cf565b5061010082015181600c019080519060200190613a839291906144cf565b5061012082015181600d015590505060005b8d51811015613cb05760008e8281518110613ad9577f4e487b7100000000000000000000000000000000000000000000000000000000600052603260045260246000fd5b60200260200101519050600360008083815260200190815260200160002060090160006101000a81548160ff02191690836005811115613b42577f4e487b7100000000000000000000000000000000000000000000000000000000600052602160045260246000fd5b02179055508d811415613bb457600080600083815260200190815260200160002060090160006101000a81548160ff02191690836005811115613bae577f4e487b7100000000000000000000000000000000000000000000000000000000600052602160045260246000fd5b02179055505b8c811415613c2157600260008083815260200190815260200160002060090160006101000a81548160ff02191690836005811115613c1b577f4e487b7100000000000000000000000000000000000000000000000000000000600052602160045260246000fd5b02179055505b600d546008600080600085815260200190815260200160002060050160009054906101000a900473ffffffffffffffffffffffffffffffffffffffff1673ffffffffffffffffffffffffffffffffffffffff1673ffffffffffffffffffffffffffffffffffffffff16815260200190815260200160002081905550508080613ca8906158e7565b915050613a95565b50600288604051613cc1919061513d565b908152602001604051809103902082908060018154018082558091505060019003906000526020600020016000909190919091505550505050505050505050505050565b6060816000806000838152602001908152602001600020600001541415613d2b57600080fd5b600080848152602001908152602001600020600601805480602002602001604051908101604052809291908181526020018280548015613d8a57602002820191906000526020600020905b815481526020019060010190808311613d76575b5050505050915050919050565b606060005b600f54811015613e12578260076000838152602001908152602001600020600101541415613dff57600b60008481526020019081526020016000208190806001815401808255809150506001900390600052602060002001600090919091909150555b8080613e0a906158e7565b915050613d9c565b50600b6000838152602001908152602001600020805480602002602001604051908101604052809291908181526020018280548015613e7057602002820191906000526020600020905b815481526020019060010190808311613e5c575b50505050509050919050565b81600060036000838152602001908152602001600020600001541415613ea157600080fd5b3073ffffffffffffffffffffffffffffffffffffffff166108fc839081150290604051600060405180830381858888f19350505050158015613ee7573d6000803e3d6000fd5b5060016007600086815260200190815260200160002060040160006101000a81548160ff02191690836003811115613f48577f4e487b7100000000000000000000000000000000000000000000000000000000600052602160045260246000fd5b02179055508160016000600760008881526020019081526020016000206001015481526020019081526020016000206009016000828254613f899190615676565b9250508190555050505050565b60056020528060005260406000206000915090508060000154908060010154908060020154908060030154908060040154908060050154908060060154908060070154905088565b60046020528060005260406000206000915090505481565b600b602052816000526040600020818154811061401257600080fd5b90600052602060002001600091509150505481565b81600080600083815260200190815260200160002060000154141561404b57600080fd5b8260066000848152602001908152602001600020600101541461406d57600080fd5b600080600090505b600e548110156140b85784600660008381526020019081526020016000206001015414156140a5578091506140b8565b80806140b0906158e7565b915050614075565b5060066000828152602001908152602001600020600080820160009055600182016000905560028201600090556003820160006140f59190614568565b60048201600090556005820160006101000a81549060ff0219169055600682016000905560078201600061412991906145a8565b505050505050565b60008060066000848152602001908152602001600020600701905060005b818054905081101561420357600460003373ffffffffffffffffffffffffffffffffffffffff1673ffffffffffffffffffffffffffffffffffffffff168152602001908152602001600020548282815481106141d4577f4e487b7100000000000000000000000000000000000000000000000000000000600052603260045260246000fd5b906000526020600020015414156141f05760009250505061420a565b80806141fb906158e7565b91505061414f565b5060019150505b919050565b600080600090505b600184516142259190615757565b8110156142915782848281518110614266577f4e487b7100000000000000000000000000000000000000000000000000000000600052603260045260246000fd5b6020026020010151141561427e576001915050614297565b8080614289906158e7565b915050614217565b50600090505b92915050565b600080600090505b835181101561431257828482815181106142e8577f4e487b7100000000000000000000000000000000000000000000000000000000600052603260045260246000fd5b602002602001015114156142ff5780915050614318565b808061430a906158e7565b9150506142a5565b50600090505b92915050565b60608251821061432d57600080fd5b60008290505b600184516143419190615757565b8110156143ed57836001826143569190615676565b8151811061438d577f4e487b7100000000000000000000000000000000000000000000000000000000600052603260045260246000fd5b60200260200101518482815181106143ce577f4e487b7100000000000000000000000000000000000000000000000000000000600052603260045260246000fd5b60200260200101818152505080806143e5906158e7565b915050614333565b5082600184516143fd9190615757565b81518110614434577f4e487b7100000000000000000000000000000000000000000000000000000000600052603260045260246000fd5b60200260200101600081525082905092915050565b82805461445590615884565b90600052602060002090601f01602090048101928261447757600085556144be565b82601f1061449057805160ff19168380011785556144be565b828001600101855582156144be579182015b828111156144bd5782518255916020019190600101906144a2565b5b5090506144cb91906145c9565b5090565b82805482825590600052602060002090810192821561450b579160200282015b8281111561450a5782518255916020019190600101906144ef565b5b50905061451891906145c9565b5090565b6040518060c001604052806000815260200160608152602001600073ffffffffffffffffffffffffffffffffffffffff1681526020016060815260200160008152602001606081525090565b50805461457490615884565b6000825580601f1061458657506145a5565b601f0160209004906000526020600020908101906145a491906145c9565b5b50565b50805460008255906000526020600020908101906145c691906145c9565b50565b5b808211156145e25760008160009055506001016145ca565b5090565b60006145f96145f484615597565b615572565b9050808382526020820190508285602086028201111561461857600080fd5b60005b85811015614648578161462e8882614723565b84526020840193506020830192505060018101905061461b565b5050509392505050565b6000614665614660846155c3565b615572565b90508281526020810184848401111561467d57600080fd5b614688848285615842565b509392505050565b60008135905061469f81615b84565b92915050565b600082601f8301126146b657600080fd5b81356146c68482602086016145e6565b91505092915050565b6000813590506146de81615b9b565b92915050565b6000813590506146f381615bab565b92915050565b600082601f83011261470a57600080fd5b813561471a848260208601614652565b91505092915050565b60008135905061473281615bbb565b92915050565b60006020828403121561474a57600080fd5b600061475884828501614690565b91505092915050565b60008060008060008060008060008060006101608c8e03121561478357600080fd5b60008c013567ffffffffffffffff81111561479d57600080fd5b6147a98e828f016146a5565b9b505060206147ba8e828f01614723565b9a505060406147cb8e828f01614723565b99505060608c013567ffffffffffffffff8111156147e857600080fd5b6147f48e828f016146f9565b98505060808c013567ffffffffffffffff81111561481157600080fd5b61481d8e828f016146f9565b97505060a08c013567ffffffffffffffff81111561483a57600080fd5b6148468e828f016146f9565b96505060c08c013567ffffffffffffffff81111561486357600080fd5b61486f8e828f016146f9565b95505060e08c013567ffffffffffffffff81111561488c57600080fd5b6148988e828f016146f9565b9450506101008c013567ffffffffffffffff8111156148b657600080fd5b6148c28e828f016146f9565b9350506101208c013567ffffffffffffffff8111156148e057600080fd5b6148ec8e828f016146f9565b9250506101406148fe8e828f01614723565b9150509295989b509295989b9093969950565b60006020828403121561492357600080fd5b600082013567ffffffffffffffff81111561493d57600080fd5b614949848285016146f9565b91505092915050565b6000806000806080858703121561496857600080fd5b600085013567ffffffffffffffff81111561498257600080fd5b61498e878288016146f9565b945050602061499f87828801614690565b935050604085013567ffffffffffffffff8111156149bc57600080fd5b6149c8878288016146f9565b92505060606149d987828801614723565b91505092959194509250565b6000806000806000806000806000806101408b8d031215614a0557600080fd5b60008b013567ffffffffffffffff811115614a1f57600080fd5b614a2b8d828e016146f9565b9a505060208b013567ffffffffffffffff811115614a4857600080fd5b614a548d828e016146f9565b9950506040614a658d828e01614723565b98505060608b013567ffffffffffffffff811115614a8257600080fd5b614a8e8d828e016146f9565b9750506080614a9f8d828e016146cf565b96505060a08b013567ffffffffffffffff811115614abc57600080fd5b614ac88d828e016146f9565b95505060c08b013567ffffffffffffffff811115614ae557600080fd5b614af18d828e016146f9565b94505060e08b013567ffffffffffffffff811115614b0e57600080fd5b614b1a8d828e016146f9565b9350506101008b013567ffffffffffffffff811115614b3857600080fd5b614b448d828e016146f9565b9250506101208b013567ffffffffffffffff811115614b6257600080fd5b614b6e8d828e016146f9565b9150509295989b9194979a5092959850565b60008060408385031215614b9357600080fd5b600083013567ffffffffffffffff811115614bad57600080fd5b614bb9858286016146f9565b9250506020614bca85828601614723565b9150509250929050565b600060208284031215614be657600080fd5b6000614bf484828501614723565b91505092915050565b60008060408385031215614c1057600080fd5b6000614c1e85828601614723565b9250506020614c2f858286016146e4565b9150509250929050565b60008060408385031215614c4c57600080fd5b6000614c5a85828601614723565b9250506020614c6b85828601614723565b9150509250929050565b600080600060608486031215614c8a57600080fd5b6000614c9886828701614723565b9350506020614ca986828701614723565b9250506040614cba86828701614723565b9150509250925092565b600080600080600060a08688031215614cdc57600080fd5b6000614cea88828901614723565b9550506020614cfb88828901614723565b9450506040614d0c88828901614723565b935050606086013567ffffffffffffffff811115614d2957600080fd5b614d35888289016146f9565b9250506080614d4688828901614723565b9150509295509295909350565b6000614d5f838361511f565b60208301905092915050565b614d748161578b565b82525050565b614d838161578b565b82525050565b6000614d9482615604565b614d9e8185615627565b9350614da9836155f4565b8060005b83811015614dda578151614dc18882614d53565b9750614dcc8361561a565b925050600181019050614dad565b5085935050505092915050565b6000614df282615604565b614dfc8185615638565b9350614e07836155f4565b8060005b83811015614e38578151614e1f8882614d53565b9750614e2a8361561a565b925050600181019050614e0b565b5085935050505092915050565b614e4e8161579d565b82525050565b614e5d8161580c565b82525050565b614e6c8161581e565b82525050565b614e7b81615830565b82525050565b6000614e8c8261560f565b614e968185615649565b9350614ea6818560208601615851565b614eaf81615a1b565b840191505092915050565b6000614ec58261560f565b614ecf818561565a565b9350614edf818560208601615851565b614ee881615a1b565b840191505092915050565b6000614efe8261560f565b614f08818561566b565b9350614f18818560208601615851565b80840191505092915050565b6000614f31601a8361565a565b9150614f3c82615a2c565b602082019050919050565b6000614f5460128361565a565b9150614f5f82615a55565b602082019050919050565b6000614f7760258361565a565b9150614f8282615a7e565b604082019050919050565b6000614f9a60128361565a565b9150614fa582615acd565b602082019050919050565b6000614fbd60128361565a565b9150614fc882615af6565b602082019050919050565b6000614fe060138361565a565b9150614feb82615b1f565b602082019050919050565b600060c08301600083015161500e600086018261511f565b50602083015184820360208601526150268282614e81565b915050604083015161503b6040860182614d6b565b50606083015184820360608601526150538282614e81565b9150506080830151615068608086018261511f565b5060a083015184820360a08601526150808282614d89565b9150508091505092915050565b600060a08301600083015184820360008601526150aa8282614e81565b915050602083015184820360208601526150c48282614e81565b915050604083015184820360408601526150de8282614e81565b915050606083015184820360608601526150f88282614e81565b915050608083015184820360808601526151128282614e81565b9150508091505092915050565b61512881615802565b82525050565b61513781615802565b82525050565b60006151498284614ef3565b915081905092915050565b6000602082019050818103600083015261516e8184614de7565b905092915050565b600060208201905061518b6000830184614e45565b92915050565b600060208201905081810360008301526151aa81614f24565b9050919050565b600060208201905081810360008301526151ca81614f47565b9050919050565b600060208201905081810360008301526151ea81614f6a565b9050919050565b6000602082019050818103600083015261520a81614f8d565b9050919050565b6000602082019050818103600083015261522a81614fb0565b9050919050565b6000602082019050818103600083015261524a81614fd3565b9050919050565b6000602082019050818103600083015261526b8184614ff6565b905092915050565b6000602082019050615288600083018461512e565b92915050565b600060a0820190506152a3600083018861512e565b81810360208301526152b58187614eba565b90506152c46040830186614d7a565b81810360608301526152d68185614eba565b90506152e5608083018461512e565b9695505050505050565b600061014082019050615305600083018d61512e565b8181036020830152615317818c614eba565b9050818103604083015261532b818b614eba565b905061533a606083018a61512e565b818103608083015261534c8189614eba565b905061535b60a0830188614d7a565b61536860c083018761512e565b61537560e0830186614e72565b615383610100830185614e54565b818103610120830152615396818461508d565b90509b9a5050505050505050505050565b600060e0820190506153bc600083018a61512e565b81810360208301526153ce8189614eba565b905081810360408301526153e2818861508d565b905081810360608301526153f68187614eba565b9050615405608083018661512e565b61541260a083018561512e565b61541f60c083018461512e565b98975050505050505050565b600060e082019050615440600083018a61512e565b61544d602083018961512e565b61545a604083018861512e565b818103606083015261546c8187614eba565b905061547b608083018661512e565b61548860a0830185614e63565b61549560c083018461512e565b98975050505050505050565b600060a0820190506154b6600083018861512e565b6154c3602083018761512e565b6154d0604083018661512e565b6154dd606083018561512e565b6154ea6080830184614e63565b9695505050505050565b60006101008201905061550a600083018b61512e565b615517602083018a61512e565b615524604083018961512e565b615531606083018861512e565b61553e608083018761512e565b61554b60a083018661512e565b61555860c083018561512e565b61556560e083018461512e565b9998505050505050505050565b600061557c61558d565b905061558882826158b6565b919050565b6000604051905090565b600067ffffffffffffffff8211156155b2576155b16159ec565b5b602082029050602081019050919050565b600067ffffffffffffffff8211156155de576155dd6159ec565b5b6155e782615a1b565b9050602081019050919050565b6000819050602082019050919050565b600081519050919050565b600081519050919050565b6000602082019050919050565b600082825260208201905092915050565b600082825260208201905092915050565b600082825260208201905092915050565b600082825260208201905092915050565b600081905092915050565b600061568182615802565b915061568c83615802565b9250827fffffffffffffffffffffffffffffffffffffffffffffffffffffffffffffffff038211156156c1576156c0615930565b5b828201905092915050565b60006156d782615802565b91506156e283615802565b9250826156f2576156f161595f565b5b828204905092915050565b600061570882615802565b915061571383615802565b9250817fffffffffffffffffffffffffffffffffffffffffffffffffffffffffffffffff048311821515161561574c5761574b615930565b5b828202905092915050565b600061576282615802565b915061576d83615802565b9250828210156157805761577f615930565b5b828203905092915050565b6000615796826157e2565b9050919050565b60008115159050919050565b60008190506157b782615b48565b919050565b60008190506157ca82615b5c565b919050565b60008190506157dd82615b70565b919050565b600073ffffffffffffffffffffffffffffffffffffffff82169050919050565b6000819050919050565b6000615817826157a9565b9050919050565b6000615829826157bc565b9050919050565b600061583b826157cf565b9050919050565b82818337600083830152505050565b60005b8381101561586f578082015181840152602081019050615854565b8381111561587e576000848401525b50505050565b6000600282049050600182168061589c57607f821691505b602082108114156158b0576158af6159bd565b5b50919050565b6158bf82615a1b565b810181811067ffffffffffffffff821117156158de576158dd6159ec565b5b80604052505050565b60006158f282615802565b91507fffffffffffffffffffffffffffffffffffffffffffffffffffffffffffffffff82141561592557615924615930565b5b600182019050919050565b7f4e487b7100000000000000000000000000000000000000000000000000000000600052601160045260246000fd5b7f4e487b7100000000000000000000000000000000000000000000000000000000600052601260045260246000fd5b7f4e487b7100000000000000000000000000000000000000000000000000000000600052602160045260246000fd5b7f4e487b7100000000000000000000000000000000000000000000000000000000600052602260045260246000fd5b7f4e487b7100000000000000000000000000000000000000000000000000000000600052604160045260246000fd5b6000601f19601f8301169050919050565b7f41746c656173742037206d656d62657273207265717569726564000000000000600082015250565b7f416c726561647920526567697374657265640000000000000000000000000000600082015250565b7f5573657220697320616c7265616479206e6f7420612070617274206f6620746860008201527f6520534847000000000000000000000000000000000000000000000000000000602082015250565b7f5573657220616c72656164792061646465640000000000000000000000000000600082015250565b7f556e617070726f76656420726571756573740000000000000000000000000000600082015250565b7f556e617574686f72697a65642072657165737400000000000000000000000000600082015250565b60038110615b5957615b5861598e565b5b50565b60048110615b6d57615b6c61598e565b5b50565b60068110615b8157615b8061598e565b5b50565b615b8d8161578b565b8114615b9857600080fd5b50565b60038110615ba857600080fd5b50565b60068110615bb857600080fd5b50565b615bc481615802565b8114615bcf57600080fd5b5056fea26469706673582212200412ecc7854e3b77c32c9e08127344d0b7b800d09eec47c7a5e789dbe2df41d664736f6c63430008040033",
  "immutableReferences": {},
  "source": "// SPDX-License-Identifier: MIT\npragma solidity ^0.8.1;\nimport \"./lib/Bank.sol\";\nimport \"./lib/SHG.sol\";\nimport \"./lib/User.sol\";\n\ncontract Yogdaan is Bank, SHG, User {\n    address admin;\n\n    constructor() {\n        admin = msg.sender;\n    }\n}\n",
  "sourcePath": "/home/sdas/code/yogdaan-contracts/contracts/yogdaan.sol",
  "compiler": {
    "name": "solc",
    "version": "0.8.4+commit.c7e474f2.Emscripten.clang"
  },
  "schemaVersion": "3.4.9",
  "updatedAt": "2022-08-25T23:39:48.859Z",
  "networkType": "ethereum",
  "devdoc": {
    "kind": "dev",
    "methods": {},
    "version": 1
  },
  "userdoc": {
    "kind": "user",
    "methods": {},
    "version": 1
  }
}